{
  "contractName": "MExchange",
  "abi": [
    {
      "inputs": [],
      "stateMutability": "nonpayable",
      "type": "constructor"
    },
    {
      "anonymous": false,
      "inputs": [
        {
          "indexed": true,
          "internalType": "address",
          "name": "account",
          "type": "address"
        },
        {
          "indexed": true,
          "internalType": "address",
          "name": "operator",
          "type": "address"
        },
        {
          "indexed": false,
          "internalType": "bool",
          "name": "approved",
          "type": "bool"
        }
      ],
      "name": "ApprovalForAll",
      "type": "event"
    },
    {
      "anonymous": false,
      "inputs": [
        {
          "indexed": false,
          "internalType": "address",
          "name": "account",
          "type": "address"
        },
        {
          "indexed": false,
          "internalType": "uint256",
          "name": "id_from",
          "type": "uint256"
        },
        {
          "indexed": false,
          "internalType": "uint256",
          "name": "id_to",
          "type": "uint256"
        },
        {
          "indexed": false,
          "internalType": "uint256",
          "name": "amount",
          "type": "uint256"
        },
        {
          "indexed": false,
          "internalType": "uint256",
          "name": "rate",
          "type": "uint256"
        }
      ],
      "name": "TokensSwap",
      "type": "event"
    },
    {
      "anonymous": false,
      "inputs": [
        {
          "indexed": true,
          "internalType": "address",
          "name": "operator",
          "type": "address"
        },
        {
          "indexed": true,
          "internalType": "address",
          "name": "from",
          "type": "address"
        },
        {
          "indexed": true,
          "internalType": "address",
          "name": "to",
          "type": "address"
        },
        {
          "indexed": false,
          "internalType": "uint256[]",
          "name": "ids",
          "type": "uint256[]"
        },
        {
          "indexed": false,
          "internalType": "uint256[]",
          "name": "values",
          "type": "uint256[]"
        }
      ],
      "name": "TransferBatch",
      "type": "event"
    },
    {
      "anonymous": false,
      "inputs": [
        {
          "indexed": true,
          "internalType": "address",
          "name": "operator",
          "type": "address"
        },
        {
          "indexed": true,
          "internalType": "address",
          "name": "from",
          "type": "address"
        },
        {
          "indexed": true,
          "internalType": "address",
          "name": "to",
          "type": "address"
        },
        {
          "indexed": false,
          "internalType": "uint256",
          "name": "id",
          "type": "uint256"
        },
        {
          "indexed": false,
          "internalType": "uint256",
          "name": "value",
          "type": "uint256"
        }
      ],
      "name": "TransferSingle",
      "type": "event"
    },
    {
      "anonymous": false,
      "inputs": [
        {
          "indexed": false,
          "internalType": "string",
          "name": "value",
          "type": "string"
        },
        {
          "indexed": true,
          "internalType": "uint256",
          "name": "id",
          "type": "uint256"
        }
      ],
      "name": "URI",
      "type": "event"
    },
    {
      "inputs": [],
      "name": "DECIMAL",
      "outputs": [
        {
          "internalType": "uint32",
          "name": "",
          "type": "uint32"
        }
      ],
      "stateMutability": "view",
      "type": "function"
    },
    {
      "inputs": [],
      "name": "MAX_NUMBER_COIN",
      "outputs": [
        {
          "internalType": "uint32",
          "name": "",
          "type": "uint32"
        }
      ],
      "stateMutability": "view",
      "type": "function"
    },
    {
      "inputs": [],
      "name": "MCOIN",
      "outputs": [
        {
          "internalType": "uint32",
          "name": "",
          "type": "uint32"
        }
      ],
      "stateMutability": "view",
      "type": "function"
    },
    {
      "inputs": [],
      "name": "UCOIN",
      "outputs": [
        {
          "internalType": "uint32",
          "name": "",
          "type": "uint32"
        }
      ],
      "stateMutability": "view",
      "type": "function"
    },
    {
      "inputs": [],
      "name": "YCOIN",
      "outputs": [
        {
          "internalType": "uint32",
          "name": "",
          "type": "uint32"
        }
      ],
      "stateMutability": "view",
      "type": "function"
    },
    {
      "inputs": [
        {
          "internalType": "address",
          "name": "account",
          "type": "address"
        },
        {
          "internalType": "uint256",
          "name": "id",
          "type": "uint256"
        }
      ],
      "name": "balanceOf",
      "outputs": [
        {
          "internalType": "uint256",
          "name": "",
          "type": "uint256"
        }
      ],
      "stateMutability": "view",
      "type": "function"
    },
    {
      "inputs": [
        {
          "internalType": "address[]",
          "name": "accounts",
          "type": "address[]"
        },
        {
          "internalType": "uint256[]",
          "name": "ids",
          "type": "uint256[]"
        }
      ],
      "name": "balanceOfBatch",
      "outputs": [
        {
          "internalType": "uint256[]",
          "name": "",
          "type": "uint256[]"
        }
      ],
      "stateMutability": "view",
      "type": "function"
    },
    {
      "inputs": [
        {
          "internalType": "address",
          "name": "account",
          "type": "address"
        },
        {
          "internalType": "address",
          "name": "operator",
          "type": "address"
        }
      ],
      "name": "isApprovedForAll",
      "outputs": [
        {
          "internalType": "bool",
          "name": "",
          "type": "bool"
        }
      ],
      "stateMutability": "view",
      "type": "function"
    },
    {
      "inputs": [
        {
          "internalType": "address",
          "name": "from",
          "type": "address"
        },
        {
          "internalType": "address",
          "name": "to",
          "type": "address"
        },
        {
          "internalType": "uint256[]",
          "name": "ids",
          "type": "uint256[]"
        },
        {
          "internalType": "uint256[]",
          "name": "amounts",
          "type": "uint256[]"
        },
        {
          "internalType": "bytes",
          "name": "data",
          "type": "bytes"
        }
      ],
      "name": "safeBatchTransferFrom",
      "outputs": [],
      "stateMutability": "nonpayable",
      "type": "function"
    },
    {
      "inputs": [
        {
          "internalType": "address",
          "name": "from",
          "type": "address"
        },
        {
          "internalType": "address",
          "name": "to",
          "type": "address"
        },
        {
          "internalType": "uint256",
          "name": "id",
          "type": "uint256"
        },
        {
          "internalType": "uint256",
          "name": "amount",
          "type": "uint256"
        },
        {
          "internalType": "bytes",
          "name": "data",
          "type": "bytes"
        }
      ],
      "name": "safeTransferFrom",
      "outputs": [],
      "stateMutability": "nonpayable",
      "type": "function"
    },
    {
      "inputs": [
        {
          "internalType": "address",
          "name": "operator",
          "type": "address"
        },
        {
          "internalType": "bool",
          "name": "approved",
          "type": "bool"
        }
      ],
      "name": "setApprovalForAll",
      "outputs": [],
      "stateMutability": "nonpayable",
      "type": "function"
    },
    {
      "inputs": [
        {
          "internalType": "bytes4",
          "name": "interfaceId",
          "type": "bytes4"
        }
      ],
      "name": "supportsInterface",
      "outputs": [
        {
          "internalType": "bool",
          "name": "",
          "type": "bool"
        }
      ],
      "stateMutability": "view",
      "type": "function"
    },
    {
      "inputs": [
        {
          "internalType": "uint256",
          "name": "",
          "type": "uint256"
        }
      ],
      "name": "uri",
      "outputs": [
        {
          "internalType": "string",
          "name": "",
          "type": "string"
        }
      ],
      "stateMutability": "view",
      "type": "function"
    },
    {
      "inputs": [
        {
          "internalType": "uint32",
          "name": "_id",
          "type": "uint32"
        },
        {
          "internalType": "string",
          "name": "_name",
          "type": "string"
        }
      ],
      "name": "donateCoin",
      "outputs": [
        {
          "internalType": "bool",
          "name": "",
          "type": "bool"
        }
      ],
      "stateMutability": "nonpayable",
      "type": "function"
    },
    {
      "inputs": [],
      "name": "decimals",
      "outputs": [
        {
          "internalType": "uint32",
          "name": "",
          "type": "uint32"
        }
      ],
      "stateMutability": "view",
      "type": "function"
    },
    {
      "inputs": [
        {
          "internalType": "uint32",
          "name": "id_from",
          "type": "uint32"
        },
        {
          "internalType": "uint32",
          "name": "id_to",
          "type": "uint32"
        }
      ],
      "name": "totalSupply",
      "outputs": [
        {
          "internalType": "uint256",
          "name": "",
          "type": "uint256"
        }
      ],
      "stateMutability": "view",
      "type": "function"
    },
    {
      "inputs": [
        {
          "internalType": "address",
          "name": "account",
          "type": "address"
        },
        {
          "internalType": "uint256",
          "name": "id",
          "type": "uint256"
        }
      ],
      "name": "_balanceOf",
      "outputs": [
        {
          "internalType": "uint256",
          "name": "",
          "type": "uint256"
        }
      ],
      "stateMutability": "view",
      "type": "function"
    },
    {
      "inputs": [
        {
          "internalType": "address",
          "name": "from",
          "type": "address"
        },
        {
          "internalType": "address",
          "name": "to",
          "type": "address"
        },
        {
          "internalType": "uint32",
          "name": "id",
          "type": "uint32"
        },
        {
          "internalType": "uint256",
          "name": "amount",
          "type": "uint256"
        }
      ],
      "name": "transfer",
      "outputs": [
        {
          "internalType": "bool",
          "name": "",
          "type": "bool"
        }
      ],
      "stateMutability": "nonpayable",
      "type": "function"
    },
    {
      "inputs": [
        {
          "internalType": "address",
          "name": "operator",
          "type": "address"
        },
        {
          "internalType": "bool",
          "name": "approved",
          "type": "bool"
        }
      ],
      "name": "approve",
      "outputs": [
        {
          "internalType": "bool",
          "name": "",
          "type": "bool"
        }
      ],
      "stateMutability": "nonpayable",
      "type": "function"
    },
    {
      "inputs": [
        {
          "internalType": "uint32",
          "name": "id_from",
          "type": "uint32"
        },
        {
          "internalType": "uint32",
          "name": "id_to",
          "type": "uint32"
        }
      ],
      "name": "getRate",
      "outputs": [
        {
          "internalType": "uint256",
          "name": "",
          "type": "uint256"
        }
      ],
      "stateMutability": "view",
      "type": "function"
    },
    {
      "inputs": [
        {
          "internalType": "uint32",
          "name": "id_from",
          "type": "uint32"
        },
        {
          "internalType": "uint32",
          "name": "id_to",
          "type": "uint32"
        },
        {
          "internalType": "uint256",
          "name": "amount",
          "type": "uint256"
        }
      ],
      "name": "swapTokens",
      "outputs": [
        {
          "internalType": "bool",
          "name": "",
          "type": "bool"
        }
      ],
      "stateMutability": "payable",
      "type": "function"
    }
  ],
  "bytecode": "0x60806040523480156200001157600080fd5b506040518060400160405280600381526020017f4d6532000000000000000000000000000000000000000000000000000000000081525062000059816200013760201b60201c565b5033600360006101000a81548173ffffffffffffffffffffffffffffffffffffffff021916908373ffffffffffffffffffffffffffffffffffffffff160217905550620000cd33600063ffffffff16670de0b6b3a7640000604051806020016040528060008152506200015360201b60201c565b620000ff33600163ffffffff16670de0b6b3a7640000604051806020016040528060008152506200015360201b60201c565b6200013133600263ffffffff16670de0b6b3a7640000604051806020016040528060008152506200015360201b60201c565b62000d59565b80600290805190602001906200014f9291906200060e565b5050565b600073ffffffffffffffffffffffffffffffffffffffff168473ffffffffffffffffffffffffffffffffffffffff161415620001c6576040517f08c379a0000000000000000000000000000000000000000000000000000000008152600401620001bd90620008e6565b60405180910390fd5b6000620001d86200031860201b60201c565b90506200021181600087620001f3886200032060201b60201c565b62000204886200032060201b60201c565b87620003e960201b60201c565b8260008086815260200190815260200160002060008773ffffffffffffffffffffffffffffffffffffffff1673ffffffffffffffffffffffffffffffffffffffff168152602001908152602001600020600082825462000272919062000977565b925050819055508473ffffffffffffffffffffffffffffffffffffffff16600073ffffffffffffffffffffffffffffffffffffffff168273ffffffffffffffffffffffffffffffffffffffff167fc3d58168c5ae7397731d063d5bbf3d657854427343f4c083240f7aacaa2d0f628787604051620002f292919062000908565b60405180910390a46200031181600087878787620003f160201b60201c565b5050505050565b600033905090565b60606000600167ffffffffffffffff81111562000366577f4e487b7100000000000000000000000000000000000000000000000000000000600052604160045260246000fd5b604051908082528060200260200182016040528015620003955781602001602082028036833780820191505090505b5090508281600081518110620003d4577f4e487b7100000000000000000000000000000000000000000000000000000000600052603260045260246000fd5b60200260200101818152505080915050919050565b505050505050565b6200041d8473ffffffffffffffffffffffffffffffffffffffff16620005fb60201b620017671760201c565b15620005f3578373ffffffffffffffffffffffffffffffffffffffff1663f23a6e6187878686866040518663ffffffff1660e01b8152600401620004669594939291906200081a565b602060405180830381600087803b1580156200048157600080fd5b505af1925050508015620004b557506040513d601f19601f82011682018060405250810190620004b29190620006d5565b60015b6200056757620004c462000b6d565b806308c379a01415620005285750620004dc62000c9d565b80620004e957506200052a565b806040517f08c379a00000000000000000000000000000000000000000000000000000000081526004016200051f91906200087e565b60405180910390fd5b505b6040517f08c379a00000000000000000000000000000000000000000000000000000000081526004016200055e90620008a2565b60405180910390fd5b63f23a6e6160e01b7bffffffffffffffffffffffffffffffffffffffffffffffffffffffff1916817bffffffffffffffffffffffffffffffffffffffffffffffffffffffff191614620005f1576040517f08c379a0000000000000000000000000000000000000000000000000000000008152600401620005e890620008c4565b60405180910390fd5b505b505050505050565b600080823b905060008111915050919050565b8280546200061c9062000a74565b90600052602060002090601f0160209004810192826200064057600085556200068c565b82601f106200065b57805160ff19168380011785556200068c565b828001600101855582156200068c579182015b828111156200068b5782518255916020019190600101906200066e565b5b5090506200069b91906200069f565b5090565b5b80821115620006ba576000816000905550600101620006a0565b5090565b600081519050620006cf8162000d3f565b92915050565b600060208284031215620006e857600080fd5b6000620006f884828501620006be565b91505092915050565b6200070c81620009d4565b82525050565b60006200071f826200093f565b6200072b818562000955565b93506200073d81856020860162000a3e565b620007488162000b92565b840191505092915050565b600062000760826200094a565b6200076c818562000966565b93506200077e81856020860162000a3e565b620007898162000b92565b840191505092915050565b6000620007a360348362000966565b9150620007b08262000bb0565b604082019050919050565b6000620007ca60288362000966565b9150620007d78262000bff565b604082019050919050565b6000620007f160218362000966565b9150620007fe8262000c4e565b604082019050919050565b620008148162000a34565b82525050565b600060a08201905062000831600083018862000701565b62000840602083018762000701565b6200084f604083018662000809565b6200085e606083018562000809565b818103608083015262000872818462000712565b90509695505050505050565b600060208201905081810360008301526200089a818462000753565b905092915050565b60006020820190508181036000830152620008bd8162000794565b9050919050565b60006020820190508181036000830152620008df81620007bb565b9050919050565b600060208201905081810360008301526200090181620007e2565b9050919050565b60006040820190506200091f600083018562000809565b6200092e602083018462000809565b9392505050565b6000604051905090565b600081519050919050565b600081519050919050565b600082825260208201905092915050565b600082825260208201905092915050565b6000620009848262000a34565b9150620009918362000a34565b9250827fffffffffffffffffffffffffffffffffffffffffffffffffffffffffffffffff03821115620009c957620009c862000ae0565b5b828201905092915050565b6000620009e18262000a14565b9050919050565b60007fffffffff0000000000000000000000000000000000000000000000000000000082169050919050565b600073ffffffffffffffffffffffffffffffffffffffff82169050919050565b6000819050919050565b60005b8381101562000a5e57808201518184015260208101905062000a41565b8381111562000a6e576000848401525b50505050565b6000600282049050600182168062000a8d57607f821691505b6020821081141562000aa45762000aa362000b0f565b5b50919050565b62000ab58262000b92565b810181811067ffffffffffffffff8211171562000ad75762000ad662000b3e565b5b80604052505050565b7f4e487b7100000000000000000000000000000000000000000000000000000000600052601160045260246000fd5b7f4e487b7100000000000000000000000000000000000000000000000000000000600052602260045260246000fd5b7f4e487b7100000000000000000000000000000000000000000000000000000000600052604160045260246000fd5b600060033d111562000b8f5760046000803e62000b8c60005162000ba3565b90505b90565b6000601f19601f8301169050919050565b60008160e01c9050919050565b7f455243313135353a207472616e7366657220746f206e6f6e204552433131353560008201527f526563656976657220696d706c656d656e746572000000000000000000000000602082015250565b7f455243313135353a204552433131353552656365697665722072656a6563746560008201527f6420746f6b656e73000000000000000000000000000000000000000000000000602082015250565b7f455243313135353a206d696e7420746f20746865207a65726f2061646472657360008201527f7300000000000000000000000000000000000000000000000000000000000000602082015250565b600060443d101562000caf5762000d3c565b62000cb962000935565b60043d036004823e80513d602482011167ffffffffffffffff8211171562000ce357505062000d3c565b808201805167ffffffffffffffff81111562000d03575050505062000d3c565b80602083010160043d03850181111562000d2257505050505062000d3c565b62000d338260200185018662000aaa565b82955050505050505b90565b62000d4a81620009e8565b811462000d5657600080fd5b50565b6133f28062000d696000396000f3fe6080604052600436106101295760003560e01c80636ab55fd9116100ab578063c595f8951161006f578063c595f89514610456578063ce2b5f0714610493578063e16ca171146104be578063e933ad41146104e9578063e985e9c514610514578063f242432a1461055157610129565b80636ab55fd91461034b578063787d2f3014610376578063982944c0146103b35780639c01b296146103f0578063a22cb4651461042d57610129565b80632eb2c2d6116100f25780632eb2c2d61461024d578063313ce567146102765780633d140d21146102a15780634e1273f4146102de5780635aa2063a1461031b57610129565b8062fdd58e1461012e57806301ffc9a71461016b5780630e89341c146101a857806313d8191f146101e557806315b3e20414610210575b600080fd5b34801561013a57600080fd5b50610155600480360381019061015091906121ce565b61057a565b60405161016291906129e1565b60405180910390f35b34801561017757600080fd5b50610192600480360381019061018d9190612276565b610643565b60405161019f9190612824565b60405180910390f35b3480156101b457600080fd5b506101cf60048036038101906101ca91906122c8565b610725565b6040516101dc919061283f565b60405180910390f35b3480156101f157600080fd5b506101fa6107b9565b6040516102079190612a25565b60405180910390f35b34801561021c57600080fd5b50610237600480360381019061023291906122f1565b6107be565b6040516102449190612824565b60405180910390f35b34801561025957600080fd5b50610274600480360381019061026f9190611fe1565b6108da565b005b34801561028257600080fd5b5061028b610cd0565b6040516102989190612a25565b60405180910390f35b3480156102ad57600080fd5b506102c860048036038101906102c39190612192565b610cd9565b6040516102d59190612824565b60405180910390f35b3480156102ea57600080fd5b506103056004803603810190610300919061220a565b610cee565b60405161031291906127cb565b60405180910390f35b61033560048036038101906103309190612381565b610e9f565b6040516103429190612824565b60405180910390f35b34801561035757600080fd5b50610360611028565b60405161036d9190612a25565b60405180910390f35b34801561038257600080fd5b5061039d600480360381019061039891906121ce565b61102d565b6040516103aa91906129e1565b60405180910390f35b3480156103bf57600080fd5b506103da60048036038101906103d59190612345565b6110b3565b6040516103e791906129e1565b60405180910390f35b3480156103fc57600080fd5b506104176004803603810190610412919061212f565b611124565b6040516104249190612824565b60405180910390f35b34801561043957600080fd5b50610454600480360381019061044f9190612192565b6111e4565b005b34801561046257600080fd5b5061047d60048036038101906104789190612345565b611365565b60405161048a91906129e1565b60405180910390f35b34801561049f57600080fd5b506104a86113ac565b6040516104b59190612a25565b60405180910390f35b3480156104ca57600080fd5b506104d36113b1565b6040516104e09190612a25565b60405180910390f35b3480156104f557600080fd5b506104fe6113b6565b60405161050b9190612a25565b60405180910390f35b34801561052057600080fd5b5061053b60048036038101906105369190611fa5565b6113bb565b6040516105489190612824565b60405180910390f35b34801561055d57600080fd5b50610578600480360381019061057391906120a0565b61144f565b005b60008073ffffffffffffffffffffffffffffffffffffffff168373ffffffffffffffffffffffffffffffffffffffff1614156105eb576040517f08c379a00000000000000000000000000000000000000000000000000000000081526004016105e2906128a1565b60405180910390fd5b60008083815260200190815260200160002060008473ffffffffffffffffffffffffffffffffffffffff1673ffffffffffffffffffffffffffffffffffffffff16815260200190815260200160002054905092915050565b60007fd9b67a26000000000000000000000000000000000000000000000000000000007bffffffffffffffffffffffffffffffffffffffffffffffffffffffff1916827bffffffffffffffffffffffffffffffffffffffffffffffffffffffff1916148061070e57507f0e89341c000000000000000000000000000000000000000000000000000000007bffffffffffffffffffffffffffffffffffffffffffffffffffffffff1916827bffffffffffffffffffffffffffffffffffffffffffffffffffffffff1916145b8061071e575061071d8261177a565b5b9050919050565b60606002805461073490612d7d565b80601f016020809104026020016040519081016040528092919081815260200182805461076090612d7d565b80156107ad5780601f10610782576101008083540402835291602001916107ad565b820191906000526020600020905b81548152906001019060200180831161079057829003601f168201915b50505050509050919050565b600281565b60008073ffffffffffffffffffffffffffffffffffffffff163373ffffffffffffffffffffffffffffffffffffffff16141561082f576040517f08c379a0000000000000000000000000000000000000000000000000000000008152600401610826906129c1565b60405180910390fd5b60405180604001604052808463ffffffff16815260200183815250600460003373ffffffffffffffffffffffffffffffffffffffff1673ffffffffffffffffffffffffffffffffffffffff16815260200190815260200160002060008201518160000160006101000a81548163ffffffff021916908363ffffffff16021790555060208201518160010190805190602001906108cc929190611c88565b509050506001905092915050565b815183511461091e576040517f08c379a0000000000000000000000000000000000000000000000000000000008152600401610915906129a1565b60405180910390fd5b600073ffffffffffffffffffffffffffffffffffffffff168473ffffffffffffffffffffffffffffffffffffffff16141561098e576040517f08c379a000000000000000000000000000000000000000000000000000000000815260040161098590612901565b60405180910390fd5b6109966117e4565b73ffffffffffffffffffffffffffffffffffffffff168573ffffffffffffffffffffffffffffffffffffffff1614806109dc57506109db856109d66117e4565b6113bb565b5b610a1b576040517f08c379a0000000000000000000000000000000000000000000000000000000008152600401610a1290612921565b60405180910390fd5b6000610a256117e4565b9050610a358187878787876117ec565b60005b8451811015610c3b576000858281518110610a7c577f4e487b7100000000000000000000000000000000000000000000000000000000600052603260045260246000fd5b602002602001015190506000858381518110610ac1577f4e487b7100000000000000000000000000000000000000000000000000000000600052603260045260246000fd5b60200260200101519050600080600084815260200190815260200160002060008b73ffffffffffffffffffffffffffffffffffffffff1673ffffffffffffffffffffffffffffffffffffffff16815260200190815260200160002054905081811015610b62576040517f08c379a0000000000000000000000000000000000000000000000000000000008152600401610b5990612941565b60405180910390fd5b8181610b6e9190612c71565b60008085815260200190815260200160002060008c73ffffffffffffffffffffffffffffffffffffffff1673ffffffffffffffffffffffffffffffffffffffff168152602001908152602001600020819055508160008085815260200190815260200160002060008b73ffffffffffffffffffffffffffffffffffffffff1673ffffffffffffffffffffffffffffffffffffffff1681526020019081526020016000206000828254610c209190612b90565b9250508190555050505080610c3490612de0565b9050610a38565b508473ffffffffffffffffffffffffffffffffffffffff168673ffffffffffffffffffffffffffffffffffffffff168273ffffffffffffffffffffffffffffffffffffffff167f4a39dc06d4c0dbc64b70af90fd698a233a518aa5d07e595d983b8c0526c8f7fb8787604051610cb29291906127ed565b60405180910390a4610cc88187878787876117f4565b505050505050565b6000600c905090565b6000610ce583836111e4565b81905092915050565b60608151835114610d34576040517f08c379a0000000000000000000000000000000000000000000000000000000008152600401610d2b90612981565b60405180910390fd5b6000835167ffffffffffffffff811115610d77577f4e487b7100000000000000000000000000000000000000000000000000000000600052604160045260246000fd5b604051908082528060200260200182016040528015610da55781602001602082028036833780820191505090505b50905060005b8451811015610e9457610e3e858281518110610df0577f4e487b7100000000000000000000000000000000000000000000000000000000600052603260045260246000fd5b6020026020010151858381518110610e31577f4e487b7100000000000000000000000000000000000000000000000000000000600052603260045260246000fd5b602002602001015161057a565b828281518110610e77577f4e487b7100000000000000000000000000000000000000000000000000000000600052603260045260246000fd5b60200260200101818152505080610e8d90612de0565b9050610dab565b508091505092915050565b6000808290506000610eb186866110b3565b9050610ee0600360009054906101000a900473ffffffffffffffffffffffffffffffffffffffff1660016111e4565b610f2f33600360009054906101000a900473ffffffffffffffffffffffffffffffffffffffff168863ffffffff168488610f1a9190612c17565b6040518060200160405280600081525061144f565b610f7e600360009054906101000a900473ffffffffffffffffffffffffffffffffffffffff16338763ffffffff168488610f699190612c17565b6040518060200160405280600081525061144f565b8084610f8a9190612c17565b600560008863ffffffff1663ffffffff16815260200190815260200160002060008763ffffffff1663ffffffff1681526020019081526020016000206000828254610fd59190612b90565b925050819055507f5e9c7808ad5cbd05c6e2a97387715515d544f4cec71faec323a4962411ec752b3387878585604051611013959493929190612778565b60405180910390a16001925050509392505050565b600c81565b600082600073ffffffffffffffffffffffffffffffffffffffff168173ffffffffffffffffffffffffffffffffffffffff1614156110a0576040517f08c379a0000000000000000000000000000000000000000000000000000000008152600401611097906129c1565b60405180910390fd5b6110aa848461057a565b91505092915050565b600066038d7ea4c680006064600560008663ffffffff1663ffffffff16815260200190815260200160002060008563ffffffff1663ffffffff168152602001908152602001600020546111069190612c17565b6111109190612be6565b600161111c9190612b90565b905092915050565b6000600360009054906101000a900473ffffffffffffffffffffffffffffffffffffffff1673ffffffffffffffffffffffffffffffffffffffff163373ffffffffffffffffffffffffffffffffffffffff16146111b6576040517f08c379a00000000000000000000000000000000000000000000000000000000081526004016111ad906128e1565b60405180910390fd5b6111d885858563ffffffff16856040518060200160405280600081525061144f565b60019050949350505050565b8173ffffffffffffffffffffffffffffffffffffffff166112036117e4565b73ffffffffffffffffffffffffffffffffffffffff16141561125a576040517f08c379a000000000000000000000000000000000000000000000000000000000815260040161125190612961565b60405180910390fd5b80600160006112676117e4565b73ffffffffffffffffffffffffffffffffffffffff1673ffffffffffffffffffffffffffffffffffffffff16815260200190815260200160002060008473ffffffffffffffffffffffffffffffffffffffff1673ffffffffffffffffffffffffffffffffffffffff16815260200190815260200160002060006101000a81548160ff0219169083151502179055508173ffffffffffffffffffffffffffffffffffffffff166113146117e4565b73ffffffffffffffffffffffffffffffffffffffff167f17307eab39ab6107e8899845ad3d59bd9653f200f220920489ca2b5937696c31836040516113599190612824565b60405180910390a35050565b6000600560008463ffffffff1663ffffffff16815260200190815260200160002060008363ffffffff1663ffffffff16815260200190815260200160002054905092915050565b600381565b600081565b600181565b6000600160008473ffffffffffffffffffffffffffffffffffffffff1673ffffffffffffffffffffffffffffffffffffffff16815260200190815260200160002060008373ffffffffffffffffffffffffffffffffffffffff1673ffffffffffffffffffffffffffffffffffffffff16815260200190815260200160002060009054906101000a900460ff16905092915050565b600073ffffffffffffffffffffffffffffffffffffffff168473ffffffffffffffffffffffffffffffffffffffff1614156114bf576040517f08c379a00000000000000000000000000000000000000000000000000000000081526004016114b690612901565b60405180910390fd5b6114c76117e4565b73ffffffffffffffffffffffffffffffffffffffff168573ffffffffffffffffffffffffffffffffffffffff16148061150d575061150c856115076117e4565b6113bb565b5b61154c576040517f08c379a0000000000000000000000000000000000000000000000000000000008152600401611543906128c1565b60405180910390fd5b60006115566117e4565b9050611576818787611567886119db565b611570886119db565b876117ec565b600080600086815260200190815260200160002060008873ffffffffffffffffffffffffffffffffffffffff1673ffffffffffffffffffffffffffffffffffffffff1681526020019081526020016000205490508381101561160d576040517f08c379a000000000000000000000000000000000000000000000000000000000815260040161160490612941565b60405180910390fd5b83816116199190612c71565b60008087815260200190815260200160002060008973ffffffffffffffffffffffffffffffffffffffff1673ffffffffffffffffffffffffffffffffffffffff168152602001908152602001600020819055508360008087815260200190815260200160002060008873ffffffffffffffffffffffffffffffffffffffff1673ffffffffffffffffffffffffffffffffffffffff16815260200190815260200160002060008282546116cb9190612b90565b925050819055508573ffffffffffffffffffffffffffffffffffffffff168773ffffffffffffffffffffffffffffffffffffffff168373ffffffffffffffffffffffffffffffffffffffff167fc3d58168c5ae7397731d063d5bbf3d657854427343f4c083240f7aacaa2d0f6288886040516117489291906129fc565b60405180910390a461175e828888888888611aa1565b50505050505050565b600080823b905060008111915050919050565b60007f01ffc9a7000000000000000000000000000000000000000000000000000000007bffffffffffffffffffffffffffffffffffffffffffffffffffffffff1916827bffffffffffffffffffffffffffffffffffffffffffffffffffffffff1916149050919050565b600033905090565b505050505050565b6118138473ffffffffffffffffffffffffffffffffffffffff16611767565b156119d3578373ffffffffffffffffffffffffffffffffffffffff1663bc197c8187878686866040518663ffffffff1660e01b81526004016118599594939291906126b6565b602060405180830381600087803b15801561187357600080fd5b505af19250505080156118a457506040513d601f19601f820116820180604052508101906118a1919061229f565b60015b61194a576118b0612ee5565b806308c379a0141561190d57506118c56132b3565b806118d0575061190f565b806040517f08c379a0000000000000000000000000000000000000000000000000000000008152600401611904919061283f565b60405180910390fd5b505b6040517f08c379a000000000000000000000000000000000000000000000000000000000815260040161194190612861565b60405180910390fd5b63bc197c8160e01b7bffffffffffffffffffffffffffffffffffffffffffffffffffffffff1916817bffffffffffffffffffffffffffffffffffffffffffffffffffffffff1916146119d1576040517f08c379a00000000000000000000000000000000000000000000000000000000081526004016119c890612881565b60405180910390fd5b505b505050505050565b60606000600167ffffffffffffffff811115611a20577f4e487b7100000000000000000000000000000000000000000000000000000000600052604160045260246000fd5b604051908082528060200260200182016040528015611a4e5781602001602082028036833780820191505090505b5090508281600081518110611a8c577f4e487b7100000000000000000000000000000000000000000000000000000000600052603260045260246000fd5b60200260200101818152505080915050919050565b611ac08473ffffffffffffffffffffffffffffffffffffffff16611767565b15611c80578373ffffffffffffffffffffffffffffffffffffffff1663f23a6e6187878686866040518663ffffffff1660e01b8152600401611b0695949392919061271e565b602060405180830381600087803b158015611b2057600080fd5b505af1925050508015611b5157506040513d601f19601f82011682018060405250810190611b4e919061229f565b60015b611bf757611b5d612ee5565b806308c379a01415611bba5750611b726132b3565b80611b7d5750611bbc565b806040517f08c379a0000000000000000000000000000000000000000000000000000000008152600401611bb1919061283f565b60405180910390fd5b505b6040517f08c379a0000000000000000000000000000000000000000000000000000000008152600401611bee90612861565b60405180910390fd5b63f23a6e6160e01b7bffffffffffffffffffffffffffffffffffffffffffffffffffffffff1916817bffffffffffffffffffffffffffffffffffffffffffffffffffffffff191614611c7e576040517f08c379a0000000000000000000000000000000000000000000000000000000008152600401611c7590612881565b60405180910390fd5b505b505050505050565b828054611c9490612d7d565b90600052602060002090601f016020900481019282611cb65760008555611cfd565b82601f10611ccf57805160ff1916838001178555611cfd565b82800160010185558215611cfd579182015b82811115611cfc578251825591602001919060010190611ce1565b5b509050611d0a9190611d0e565b5090565b5b80821115611d27576000816000905550600101611d0f565b5090565b6000611d3e611d3984612a65565b612a40565b90508083825260208201905082856020860282011115611d5d57600080fd5b60005b85811015611d8d5781611d738882611e7f565b845260208401935060208301925050600181019050611d60565b5050509392505050565b6000611daa611da584612a91565b612a40565b90508083825260208201905082856020860282011115611dc957600080fd5b60005b85811015611df95781611ddf8882611f7b565b845260208401935060208301925050600181019050611dcc565b5050509392505050565b6000611e16611e1184612abd565b612a40565b905082815260208101848484011115611e2e57600080fd5b611e39848285612d3b565b509392505050565b6000611e54611e4f84612aee565b612a40565b905082815260208101848484011115611e6c57600080fd5b611e77848285612d3b565b509392505050565b600081359050611e8e81613349565b92915050565b600082601f830112611ea557600080fd5b8135611eb5848260208601611d2b565b91505092915050565b600082601f830112611ecf57600080fd5b8135611edf848260208601611d97565b91505092915050565b600081359050611ef781613360565b92915050565b600081359050611f0c81613377565b92915050565b600081519050611f2181613377565b92915050565b600082601f830112611f3857600080fd5b8135611f48848260208601611e03565b91505092915050565b600082601f830112611f6257600080fd5b8135611f72848260208601611e41565b91505092915050565b600081359050611f8a8161338e565b92915050565b600081359050611f9f816133a5565b92915050565b60008060408385031215611fb857600080fd5b6000611fc685828601611e7f565b9250506020611fd785828601611e7f565b9150509250929050565b600080600080600060a08688031215611ff957600080fd5b600061200788828901611e7f565b955050602061201888828901611e7f565b945050604086013567ffffffffffffffff81111561203557600080fd5b61204188828901611ebe565b935050606086013567ffffffffffffffff81111561205e57600080fd5b61206a88828901611ebe565b925050608086013567ffffffffffffffff81111561208757600080fd5b61209388828901611f27565b9150509295509295909350565b600080600080600060a086880312156120b857600080fd5b60006120c688828901611e7f565b95505060206120d788828901611e7f565b94505060406120e888828901611f7b565b93505060606120f988828901611f7b565b925050608086013567ffffffffffffffff81111561211657600080fd5b61212288828901611f27565b9150509295509295909350565b6000806000806080858703121561214557600080fd5b600061215387828801611e7f565b945050602061216487828801611e7f565b935050604061217587828801611f90565b925050606061218687828801611f7b565b91505092959194509250565b600080604083850312156121a557600080fd5b60006121b385828601611e7f565b92505060206121c485828601611ee8565b9150509250929050565b600080604083850312156121e157600080fd5b60006121ef85828601611e7f565b925050602061220085828601611f7b565b9150509250929050565b6000806040838503121561221d57600080fd5b600083013567ffffffffffffffff81111561223757600080fd5b61224385828601611e94565b925050602083013567ffffffffffffffff81111561226057600080fd5b61226c85828601611ebe565b9150509250929050565b60006020828403121561228857600080fd5b600061229684828501611efd565b91505092915050565b6000602082840312156122b157600080fd5b60006122bf84828501611f12565b91505092915050565b6000602082840312156122da57600080fd5b60006122e884828501611f7b565b91505092915050565b6000806040838503121561230457600080fd5b600061231285828601611f90565b925050602083013567ffffffffffffffff81111561232f57600080fd5b61233b85828601611f51565b9150509250929050565b6000806040838503121561235857600080fd5b600061236685828601611f90565b925050602061237785828601611f90565b9150509250929050565b60008060006060848603121561239657600080fd5b60006123a486828701611f90565b93505060206123b586828701611f90565b92505060406123c686828701611f7b565b9150509250925092565b60006123dc838361267a565b60208301905092915050565b6123f181612ca5565b82525050565b600061240282612b2f565b61240c8185612b5d565b935061241783612b1f565b8060005b8381101561244857815161242f88826123d0565b975061243a83612b50565b92505060018101905061241b565b5085935050505092915050565b61245e81612cb7565b82525050565b600061246f82612b3a565b6124798185612b6e565b9350612489818560208601612d4a565b61249281612f07565b840191505092915050565b60006124a882612b45565b6124b28185612b7f565b93506124c2818560208601612d4a565b6124cb81612f07565b840191505092915050565b60006124e3603483612b7f565b91506124ee82612f25565b604082019050919050565b6000612506602883612b7f565b915061251182612f74565b604082019050919050565b6000612529602b83612b7f565b915061253482612fc3565b604082019050919050565b600061254c602983612b7f565b915061255782613012565b604082019050919050565b600061256f602283612b7f565b915061257a82613061565b604082019050919050565b6000612592602583612b7f565b915061259d826130b0565b604082019050919050565b60006125b5603283612b7f565b91506125c0826130ff565b604082019050919050565b60006125d8602a83612b7f565b91506125e38261314e565b604082019050919050565b60006125fb602983612b7f565b91506126068261319d565b604082019050919050565b600061261e602983612b7f565b9150612629826131ec565b604082019050919050565b6000612641602883612b7f565b915061264c8261323b565b604082019050919050565b6000612664601283612b7f565b915061266f8261328a565b602082019050919050565b61268381612d0f565b82525050565b61269281612d0f565b82525050565b6126a181612d29565b82525050565b6126b081612d19565b82525050565b600060a0820190506126cb60008301886123e8565b6126d860208301876123e8565b81810360408301526126ea81866123f7565b905081810360608301526126fe81856123f7565b905081810360808301526127128184612464565b90509695505050505050565b600060a08201905061273360008301886123e8565b61274060208301876123e8565b61274d6040830186612689565b61275a6060830185612689565b818103608083015261276c8184612464565b90509695505050505050565b600060a08201905061278d60008301886123e8565b61279a6020830187612698565b6127a76040830186612698565b6127b46060830185612689565b6127c16080830184612689565b9695505050505050565b600060208201905081810360008301526127e581846123f7565b905092915050565b6000604082019050818103600083015261280781856123f7565b9050818103602083015261281b81846123f7565b90509392505050565b60006020820190506128396000830184612455565b92915050565b60006020820190508181036000830152612859818461249d565b905092915050565b6000602082019050818103600083015261287a816124d6565b9050919050565b6000602082019050818103600083015261289a816124f9565b9050919050565b600060208201905081810360008301526128ba8161251c565b9050919050565b600060208201905081810360008301526128da8161253f565b9050919050565b600060208201905081810360008301526128fa81612562565b9050919050565b6000602082019050818103600083015261291a81612585565b9050919050565b6000602082019050818103600083015261293a816125a8565b9050919050565b6000602082019050818103600083015261295a816125cb565b9050919050565b6000602082019050818103600083015261297a816125ee565b9050919050565b6000602082019050818103600083015261299a81612611565b9050919050565b600060208201905081810360008301526129ba81612634565b9050919050565b600060208201905081810360008301526129da81612657565b9050919050565b60006020820190506129f66000830184612689565b92915050565b6000604082019050612a116000830185612689565b612a1e6020830184612689565b9392505050565b6000602082019050612a3a60008301846126a7565b92915050565b6000612a4a612a5b565b9050612a568282612daf565b919050565b6000604051905090565b600067ffffffffffffffff821115612a8057612a7f612eb6565b5b602082029050602081019050919050565b600067ffffffffffffffff821115612aac57612aab612eb6565b5b602082029050602081019050919050565b600067ffffffffffffffff821115612ad857612ad7612eb6565b5b612ae182612f07565b9050602081019050919050565b600067ffffffffffffffff821115612b0957612b08612eb6565b5b612b1282612f07565b9050602081019050919050565b6000819050602082019050919050565b600081519050919050565b600081519050919050565b600081519050919050565b6000602082019050919050565b600082825260208201905092915050565b600082825260208201905092915050565b600082825260208201905092915050565b6000612b9b82612d0f565b9150612ba683612d0f565b9250827fffffffffffffffffffffffffffffffffffffffffffffffffffffffffffffffff03821115612bdb57612bda612e29565b5b828201905092915050565b6000612bf182612d0f565b9150612bfc83612d0f565b925082612c0c57612c0b612e58565b5b828204905092915050565b6000612c2282612d0f565b9150612c2d83612d0f565b9250817fffffffffffffffffffffffffffffffffffffffffffffffffffffffffffffffff0483118215151615612c6657612c65612e29565b5b828202905092915050565b6000612c7c82612d0f565b9150612c8783612d0f565b925082821015612c9a57612c99612e29565b5b828203905092915050565b6000612cb082612cef565b9050919050565b60008115159050919050565b60007fffffffff0000000000000000000000000000000000000000000000000000000082169050919050565b600073ffffffffffffffffffffffffffffffffffffffff82169050919050565b6000819050919050565b600063ffffffff82169050919050565b6000612d3482612d19565b9050919050565b82818337600083830152505050565b60005b83811015612d68578082015181840152602081019050612d4d565b83811115612d77576000848401525b50505050565b60006002820490506001821680612d9557607f821691505b60208210811415612da957612da8612e87565b5b50919050565b612db882612f07565b810181811067ffffffffffffffff82111715612dd757612dd6612eb6565b5b80604052505050565b6000612deb82612d0f565b91507fffffffffffffffffffffffffffffffffffffffffffffffffffffffffffffffff821415612e1e57612e1d612e29565b5b600182019050919050565b7f4e487b7100000000000000000000000000000000000000000000000000000000600052601160045260246000fd5b7f4e487b7100000000000000000000000000000000000000000000000000000000600052601260045260246000fd5b7f4e487b7100000000000000000000000000000000000000000000000000000000600052602260045260246000fd5b7f4e487b7100000000000000000000000000000000000000000000000000000000600052604160045260246000fd5b600060033d1115612f045760046000803e612f01600051612f18565b90505b90565b6000601f19601f8301169050919050565b60008160e01c9050919050565b7f455243313135353a207472616e7366657220746f206e6f6e204552433131353560008201527f526563656976657220696d706c656d656e746572000000000000000000000000602082015250565b7f455243313135353a204552433131353552656365697665722072656a6563746560008201527f6420746f6b656e73000000000000000000000000000000000000000000000000602082015250565b7f455243313135353a2062616c616e636520717565727920666f7220746865207a60008201527f65726f2061646472657373000000000000000000000000000000000000000000602082015250565b7f455243313135353a2063616c6c6572206973206e6f74206f776e6572206e6f7260008201527f20617070726f7665640000000000000000000000000000000000000000000000602082015250565b7f41636573736f20726573747269746f206170656e617320706172612041646d6960008201527f6e21000000000000000000000000000000000000000000000000000000000000602082015250565b7f455243313135353a207472616e7366657220746f20746865207a65726f20616460008201527f6472657373000000000000000000000000000000000000000000000000000000602082015250565b7f455243313135353a207472616e736665722063616c6c6572206973206e6f742060008201527f6f776e6572206e6f7220617070726f7665640000000000000000000000000000602082015250565b7f455243313135353a20696e73756666696369656e742062616c616e636520666f60008201527f72207472616e7366657200000000000000000000000000000000000000000000602082015250565b7f455243313135353a2073657474696e6720617070726f76616c2073746174757360008201527f20666f722073656c660000000000000000000000000000000000000000000000602082015250565b7f455243313135353a206163636f756e747320616e6420696473206c656e67746860008201527f206d69736d617463680000000000000000000000000000000000000000000000602082015250565b7f455243313135353a2069647320616e6420616d6f756e7473206c656e6774682060008201527f6d69736d61746368000000000000000000000000000000000000000000000000602082015250565b7f456e64657265636f20496e76616c69646f210000000000000000000000000000600082015250565b600060443d10156132c357613346565b6132cb612a5b565b60043d036004823e80513d602482011167ffffffffffffffff821117156132f3575050613346565b808201805167ffffffffffffffff8111156133115750505050613346565b80602083010160043d03850181111561332e575050505050613346565b61333d82602001850186612daf565b82955050505050505b90565b61335281612ca5565b811461335d57600080fd5b50565b61336981612cb7565b811461337457600080fd5b50565b61338081612cc3565b811461338b57600080fd5b50565b61339781612d0f565b81146133a257600080fd5b50565b6133ae81612d19565b81146133b957600080fd5b5056fea26469706673582212200003a841b468b79cc3d6f771c7b4db141c8ff2da91d407ed1de598cab1dba14264736f6c63430008040033",
  "immutableReferences": {},
  "source": "// CdBy mand0mb3\n// SPDX-License-Identifier: MIT\n\npragma solidity ^0.8.4;\n\n//import \"https://github.com/OpenZeppelin/openzeppelin-contracts/blob/master/contracts/token/ERC1155/ERC1155.sol\";\nimport 'openzeppelin-solidity/contracts/token/ERC1155/ERC1155.sol';\n\ncontract MExchange is ERC1155{\n\n    uint32 public constant UCOIN = 0;\n    uint32 public constant MCOIN = 1;\n    uint32 public constant YCOIN = 2;\n    uint32 public constant MAX_NUMBER_COIN = 3;\n    uint32 public constant DECIMAL = 12;\n\n    address private owner;\n\n    struct Account{\n        uint32 id;\n        string name;\n        //uint256 balance;\n    }\n\n    event TokensSwap(\n        address account,\n        uint id_from,\n        uint id_to,\n        uint amount,\n        uint rate\n    );\n\n    mapping(address=>Account) private proprietarios;\n    mapping(uint32=>mapping(uint32=>uint256)) private _totalsupply;\n\n    modifier someOneReal(address someone){\n        require(someone!=address(0), \"Endereco Invalido!\");\n        _;\n    }\n    modifier onlyOwner(){\n        require(msg.sender==owner, \"Acesso restrito apenas para Admin!\");\n        _;\n    }\n    modifier onlyReal(){\n        require(msg.sender!=address(0), \"Endereco Invalido!\");\n        _;\n    }\n\n    constructor() public ERC1155(\"Me2\") {\n        owner = msg.sender;\n\n        _mint(msg.sender, UCOIN, 10**18, \"\");\n        _mint(msg.sender, MCOIN, 10**18, \"\");\n        _mint(msg.sender, YCOIN, 10**18, \"\");\n\n        /*\n        _mint(address(this), UCOIN, 10**15, \"\");\n        _mint(address(this), MCOIN, 10**15, \"\");\n        _mint(address(this), YCOIN, 10**15, \"\");\n        totalsupply[UCOIN][MCOIN] = 0;\n        totalsupply[MCOIN][UCOIN] = 0;\n        totalsupply[UCOIN][YCOIN] = 0;\n        totalsupply[YCOIN][UCOIN] = 0;\n        totalsupply[YCOIN][MCOIN] = 0;\n        totalsupply[MCOIN][YCOIN] = 0;\n        */\n    }\n\n    function donateCoin(uint32 _id, string memory _name) public onlyReal returns(bool){\n        proprietarios[msg.sender]=Account(_id, _name);\n        return true;\n    }\n\n    function decimals() public  view returns (uint32){\n        return DECIMAL;\n    }\n\n    function totalSupply(uint32 id_from, uint32 id_to) public view  returns (uint256){\n        return _totalsupply[id_from][id_to];\n    }\n    function _balanceOf(address account, uint256 id) public  view someOneReal(account) returns (uint256){\n        return balanceOf( account, id);\n    }\n    function transfer(address from, address to, uint32 id, uint256 amount) public onlyOwner returns (bool){\n        safeTransferFrom(from, to,  id, amount, '');\n        return true;\n    }\n    function approve(address operator, bool approved) public  returns (bool){\n        setApprovalForAll( operator,  approved);\n        return approved;\n    }\n    function getRate(uint32 id_from, uint32 id_to) public view  returns (uint256){\n        return 1 + (_totalsupply[id_from][id_to]*100/10**15);\n    }\n    function swapTokens(uint32 id_from, uint32 id_to, uint256 amount) public payable returns(bool) {\n        // Calculate the number of tokens to buy\n        uint tokenAmount = amount ;//* getRate(id_from, id_to);\n        uint price = getRate(id_from, id_to);\n        setApprovalForAll( owner,  true);\n\n        //transfer(msg.sender, owner, id_from, amount*price);\n        //transfer(owner, msg.sender, id_to, amount*price);\n        safeTransferFrom(msg.sender, owner, id_from, amount*price, '');\n        safeTransferFrom(owner, msg.sender, id_to, amount*price, '');\n        _totalsupply[id_from][id_to] += amount*price;\n\n        // Emit an event\n        emit TokensSwap(msg.sender, id_from, id_to, tokenAmount, price);\n        return true;\n    }\n\n}\n\n// Learn about automatic market to study formule to",
  "sourcePath": "C:/Users/gaspa/Documents/Experincias/Comercio Elotronico/uNt/contracts/MExchange.sol",
  "compiler": {
    "name": "solc",
    "version": "0.8.4+commit.c7e474f2.Emscripten.clang"
  },
  "schemaVersion": "3.4.1",
  "updatedAt": "2021-07-08T00:30:19.651Z",
  "devdoc": {
    "kind": "dev",
    "methods": {
      "balanceOf(address,uint256)": {
        "details": "See {IERC1155-balanceOf}. Requirements: - `account` cannot be the zero address."
      },
      "balanceOfBatch(address[],uint256[])": {
        "details": "See {IERC1155-balanceOfBatch}. Requirements: - `accounts` and `ids` must have the same length."
      },
      "isApprovedForAll(address,address)": {
        "details": "See {IERC1155-isApprovedForAll}."
      },
      "safeBatchTransferFrom(address,address,uint256[],uint256[],bytes)": {
        "details": "See {IERC1155-safeBatchTransferFrom}."
      },
      "safeTransferFrom(address,address,uint256,uint256,bytes)": {
        "details": "See {IERC1155-safeTransferFrom}."
      },
      "setApprovalForAll(address,bool)": {
        "details": "See {IERC1155-setApprovalForAll}."
      },
      "supportsInterface(bytes4)": {
        "details": "See {IERC165-supportsInterface}."
      },
      "uri(uint256)": {
        "details": "See {IERC1155MetadataURI-uri}. This implementation returns the same URI for *all* token types. It relies on the token type ID substitution mechanism https://eips.ethereum.org/EIPS/eip-1155#metadata[defined in the EIP]. Clients calling this function must replace the `\\{id\\}` substring with the actual token type ID."
      }
    },
    "version": 1
  },
  "userdoc": {
    "kind": "user",
    "methods": {},
    "version": 1
  }
}