{
  "contractName": "MExchange",
  "abi": [
    {
      "inputs": [],
      "stateMutability": "nonpayable",
      "type": "constructor"
    },
    {
      "anonymous": false,
      "inputs": [
        {
          "indexed": true,
          "internalType": "address",
          "name": "account",
          "type": "address"
        },
        {
          "indexed": true,
          "internalType": "address",
          "name": "operator",
          "type": "address"
        },
        {
          "indexed": false,
          "internalType": "bool",
          "name": "approved",
          "type": "bool"
        }
      ],
      "name": "ApprovalForAll",
      "type": "event"
    },
    {
      "anonymous": false,
      "inputs": [
        {
          "indexed": false,
          "internalType": "address",
          "name": "account",
          "type": "address"
        },
        {
          "indexed": false,
          "internalType": "uint256",
          "name": "id_from",
          "type": "uint256"
        },
        {
          "indexed": false,
          "internalType": "uint256",
          "name": "id_to",
          "type": "uint256"
        },
        {
          "indexed": false,
          "internalType": "uint256",
          "name": "amount",
          "type": "uint256"
        },
        {
          "indexed": false,
          "internalType": "uint256",
          "name": "rate",
          "type": "uint256"
        }
      ],
      "name": "TokensSwap",
      "type": "event"
    },
    {
      "anonymous": false,
      "inputs": [
        {
          "indexed": true,
          "internalType": "address",
          "name": "operator",
          "type": "address"
        },
        {
          "indexed": true,
          "internalType": "address",
          "name": "from",
          "type": "address"
        },
        {
          "indexed": true,
          "internalType": "address",
          "name": "to",
          "type": "address"
        },
        {
          "indexed": false,
          "internalType": "uint256[]",
          "name": "ids",
          "type": "uint256[]"
        },
        {
          "indexed": false,
          "internalType": "uint256[]",
          "name": "values",
          "type": "uint256[]"
        }
      ],
      "name": "TransferBatch",
      "type": "event"
    },
    {
      "anonymous": false,
      "inputs": [
        {
          "indexed": true,
          "internalType": "address",
          "name": "operator",
          "type": "address"
        },
        {
          "indexed": true,
          "internalType": "address",
          "name": "from",
          "type": "address"
        },
        {
          "indexed": true,
          "internalType": "address",
          "name": "to",
          "type": "address"
        },
        {
          "indexed": false,
          "internalType": "uint256",
          "name": "id",
          "type": "uint256"
        },
        {
          "indexed": false,
          "internalType": "uint256",
          "name": "value",
          "type": "uint256"
        }
      ],
      "name": "TransferSingle",
      "type": "event"
    },
    {
      "anonymous": false,
      "inputs": [
        {
          "indexed": false,
          "internalType": "string",
          "name": "value",
          "type": "string"
        },
        {
          "indexed": true,
          "internalType": "uint256",
          "name": "id",
          "type": "uint256"
        }
      ],
      "name": "URI",
      "type": "event"
    },
    {
      "inputs": [],
      "name": "DECIMAL",
      "outputs": [
        {
          "internalType": "uint32",
          "name": "",
          "type": "uint32"
        }
      ],
      "stateMutability": "view",
      "type": "function",
      "constant": true
    },
    {
      "inputs": [],
      "name": "MAX_NUMBER_COIN",
      "outputs": [
        {
          "internalType": "uint32",
          "name": "",
          "type": "uint32"
        }
      ],
      "stateMutability": "view",
      "type": "function",
      "constant": true
    },
    {
      "inputs": [],
      "name": "MCOIN",
      "outputs": [
        {
          "internalType": "uint32",
          "name": "",
          "type": "uint32"
        }
      ],
      "stateMutability": "view",
      "type": "function",
      "constant": true
    },
    {
      "inputs": [],
      "name": "UCOIN",
      "outputs": [
        {
          "internalType": "uint32",
          "name": "",
          "type": "uint32"
        }
      ],
      "stateMutability": "view",
      "type": "function",
      "constant": true
    },
    {
      "inputs": [],
      "name": "YCOIN",
      "outputs": [
        {
          "internalType": "uint32",
          "name": "",
          "type": "uint32"
        }
      ],
      "stateMutability": "view",
      "type": "function",
      "constant": true
    },
    {
      "inputs": [
        {
          "internalType": "address",
          "name": "account",
          "type": "address"
        },
        {
          "internalType": "uint256",
          "name": "id",
          "type": "uint256"
        }
      ],
      "name": "balanceOf",
      "outputs": [
        {
          "internalType": "uint256",
          "name": "",
          "type": "uint256"
        }
      ],
      "stateMutability": "view",
      "type": "function",
      "constant": true
    },
    {
      "inputs": [
        {
          "internalType": "address[]",
          "name": "accounts",
          "type": "address[]"
        },
        {
          "internalType": "uint256[]",
          "name": "ids",
          "type": "uint256[]"
        }
      ],
      "name": "balanceOfBatch",
      "outputs": [
        {
          "internalType": "uint256[]",
          "name": "",
          "type": "uint256[]"
        }
      ],
      "stateMutability": "view",
      "type": "function",
      "constant": true
    },
    {
      "inputs": [
        {
          "internalType": "address",
          "name": "account",
          "type": "address"
        },
        {
          "internalType": "address",
          "name": "operator",
          "type": "address"
        }
      ],
      "name": "isApprovedForAll",
      "outputs": [
        {
          "internalType": "bool",
          "name": "",
          "type": "bool"
        }
      ],
      "stateMutability": "view",
      "type": "function",
      "constant": true
    },
    {
      "inputs": [
        {
          "internalType": "address",
          "name": "from",
          "type": "address"
        },
        {
          "internalType": "address",
          "name": "to",
          "type": "address"
        },
        {
          "internalType": "uint256[]",
          "name": "ids",
          "type": "uint256[]"
        },
        {
          "internalType": "uint256[]",
          "name": "amounts",
          "type": "uint256[]"
        },
        {
          "internalType": "bytes",
          "name": "data",
          "type": "bytes"
        }
      ],
      "name": "safeBatchTransferFrom",
      "outputs": [],
      "stateMutability": "nonpayable",
      "type": "function"
    },
    {
      "inputs": [
        {
          "internalType": "address",
          "name": "from",
          "type": "address"
        },
        {
          "internalType": "address",
          "name": "to",
          "type": "address"
        },
        {
          "internalType": "uint256",
          "name": "id",
          "type": "uint256"
        },
        {
          "internalType": "uint256",
          "name": "amount",
          "type": "uint256"
        },
        {
          "internalType": "bytes",
          "name": "data",
          "type": "bytes"
        }
      ],
      "name": "safeTransferFrom",
      "outputs": [],
      "stateMutability": "nonpayable",
      "type": "function"
    },
    {
      "inputs": [
        {
          "internalType": "address",
          "name": "operator",
          "type": "address"
        },
        {
          "internalType": "bool",
          "name": "approved",
          "type": "bool"
        }
      ],
      "name": "setApprovalForAll",
      "outputs": [],
      "stateMutability": "nonpayable",
      "type": "function"
    },
    {
      "inputs": [
        {
          "internalType": "bytes4",
          "name": "interfaceId",
          "type": "bytes4"
        }
      ],
      "name": "supportsInterface",
      "outputs": [
        {
          "internalType": "bool",
          "name": "",
          "type": "bool"
        }
      ],
      "stateMutability": "view",
      "type": "function",
      "constant": true
    },
    {
      "inputs": [
        {
          "internalType": "uint256",
          "name": "",
          "type": "uint256"
        }
      ],
      "name": "uri",
      "outputs": [
        {
          "internalType": "string",
          "name": "",
          "type": "string"
        }
      ],
      "stateMutability": "view",
      "type": "function",
      "constant": true
    },
    {
      "inputs": [
        {
          "internalType": "uint32",
          "name": "_id",
          "type": "uint32"
        },
        {
          "internalType": "string",
          "name": "_name",
          "type": "string"
        }
      ],
      "name": "donateCoin",
      "outputs": [
        {
          "internalType": "bool",
          "name": "",
          "type": "bool"
        }
      ],
      "stateMutability": "nonpayable",
      "type": "function"
    },
    {
      "inputs": [],
      "name": "decimals",
      "outputs": [
        {
          "internalType": "uint32",
          "name": "",
          "type": "uint32"
        }
      ],
      "stateMutability": "view",
      "type": "function",
      "constant": true
    },
    {
      "inputs": [
        {
          "internalType": "uint32",
          "name": "id_from",
          "type": "uint32"
        },
        {
          "internalType": "uint32",
          "name": "id_to",
          "type": "uint32"
        }
      ],
      "name": "totalSupply",
      "outputs": [
        {
          "internalType": "uint256",
          "name": "",
          "type": "uint256"
        }
      ],
      "stateMutability": "view",
      "type": "function",
      "constant": true
    },
    {
      "inputs": [
        {
          "internalType": "address",
          "name": "account",
          "type": "address"
        },
        {
          "internalType": "uint256",
          "name": "id",
          "type": "uint256"
        }
      ],
      "name": "_balanceOf",
      "outputs": [
        {
          "internalType": "uint256",
          "name": "",
          "type": "uint256"
        }
      ],
      "stateMutability": "view",
      "type": "function",
      "constant": true
    },
    {
      "inputs": [
        {
          "internalType": "address",
          "name": "from",
          "type": "address"
        },
        {
          "internalType": "address",
          "name": "to",
          "type": "address"
        },
        {
          "internalType": "uint32",
          "name": "id",
          "type": "uint32"
        },
        {
          "internalType": "uint256",
          "name": "amount",
          "type": "uint256"
        }
      ],
      "name": "transfer",
      "outputs": [
        {
          "internalType": "bool",
          "name": "",
          "type": "bool"
        }
      ],
      "stateMutability": "nonpayable",
      "type": "function"
    },
    {
      "inputs": [
        {
          "internalType": "address",
          "name": "operator",
          "type": "address"
        },
        {
          "internalType": "bool",
          "name": "approved",
          "type": "bool"
        }
      ],
      "name": "approve",
      "outputs": [
        {
          "internalType": "bool",
          "name": "",
          "type": "bool"
        }
      ],
      "stateMutability": "nonpayable",
      "type": "function"
    },
    {
      "inputs": [
        {
          "internalType": "uint32",
          "name": "id_from",
          "type": "uint32"
        },
        {
          "internalType": "uint32",
          "name": "id_to",
          "type": "uint32"
        }
      ],
      "name": "getRate",
      "outputs": [
        {
          "internalType": "uint256",
          "name": "",
          "type": "uint256"
        }
      ],
      "stateMutability": "view",
      "type": "function",
      "constant": true
    },
    {
      "inputs": [
        {
          "internalType": "uint32",
          "name": "id_from",
          "type": "uint32"
        },
        {
          "internalType": "uint32",
          "name": "id_to",
          "type": "uint32"
        },
        {
          "internalType": "uint256",
          "name": "amount",
          "type": "uint256"
        }
      ],
      "name": "swapTokens",
      "outputs": [
        {
          "internalType": "bool",
          "name": "",
          "type": "bool"
        }
      ],
      "stateMutability": "payable",
      "type": "function",
      "payable": true
    }
  ],
  "bytecode": "0x60806040523480156200001157600080fd5b506040518060400160405280600381526020017f4d6532000000000000000000000000000000000000000000000000000000000081525062000059816200013760201b60201c565b5033600360006101000a81548173ffffffffffffffffffffffffffffffffffffffff021916908373ffffffffffffffffffffffffffffffffffffffff160217905550620000cd33600063ffffffff16670de0b6b3a7640000604051806020016040528060008152506200015360201b60201c565b620000ff33600163ffffffff16670de0b6b3a7640000604051806020016040528060008152506200015360201b60201c565b6200013133600263ffffffff16670de0b6b3a7640000604051806020016040528060008152506200015360201b60201c565b62000d4b565b80600290805190602001906200014f929190620005c6565b5050565b600073ffffffffffffffffffffffffffffffffffffffff168473ffffffffffffffffffffffffffffffffffffffff161415620001c6576040517f08c379a0000000000000000000000000000000000000000000000000000000008152600401620001bd90620008a4565b60405180910390fd5b6000620001d86200031860201b60201c565b90506200021181600087620001f3886200032060201b60201c565b62000204886200032060201b60201c565b87620003a160201b60201c565b8260008086815260200190815260200160002060008773ffffffffffffffffffffffffffffffffffffffff1673ffffffffffffffffffffffffffffffffffffffff168152602001908152602001600020600082825462000272919062000935565b925050819055508473ffffffffffffffffffffffffffffffffffffffff16600073ffffffffffffffffffffffffffffffffffffffff168273ffffffffffffffffffffffffffffffffffffffff167fc3d58168c5ae7397731d063d5bbf3d657854427343f4c083240f7aacaa2d0f628787604051620002f2929190620008c6565b60405180910390a46200031181600087878787620003a960201b60201c565b5050505050565b600033905090565b60606000600167ffffffffffffffff81111562000342576200034162000b2b565b5b604051908082528060200260200182016040528015620003715781602001602082028036833780820191505090505b50905082816000815181106200038c576200038b62000afc565b5b60200260200101818152505080915050919050565b505050505050565b620003d58473ffffffffffffffffffffffffffffffffffffffff16620005b360201b620016831760201c565b15620005ab578373ffffffffffffffffffffffffffffffffffffffff1663f23a6e6187878686866040518663ffffffff1660e01b81526004016200041e959493929190620007d8565b602060405180830381600087803b1580156200043957600080fd5b505af19250505080156200046d57506040513d601f19601f820116820180604052508101906200046a91906200068d565b60015b6200051f576200047c62000b5a565b806308c379a01415620004e057506200049462000c8f565b80620004a15750620004e2565b806040517f08c379a0000000000000000000000000000000000000000000000000000000008152600401620004d791906200083c565b60405180910390fd5b505b6040517f08c379a0000000000000000000000000000000000000000000000000000000008152600401620005169062000860565b60405180910390fd5b63f23a6e6160e01b7bffffffffffffffffffffffffffffffffffffffffffffffffffffffff1916817bffffffffffffffffffffffffffffffffffffffffffffffffffffffff191614620005a9576040517f08c379a0000000000000000000000000000000000000000000000000000000008152600401620005a09062000882565b60405180910390fd5b505b505050505050565b600080823b905060008111915050919050565b828054620005d49062000a32565b90600052602060002090601f016020900481019282620005f8576000855562000644565b82601f106200061357805160ff191683800117855562000644565b8280016001018555821562000644579182015b828111156200064357825182559160200191906001019062000626565b5b50905062000653919062000657565b5090565b5b808211156200067257600081600090555060010162000658565b5090565b600081519050620006878162000d31565b92915050565b600060208284031215620006a657620006a562000b7f565b5b6000620006b68482850162000676565b91505092915050565b620006ca8162000992565b82525050565b6000620006dd82620008fd565b620006e9818562000913565b9350620006fb818560208601620009fc565b620007068162000b84565b840191505092915050565b60006200071e8262000908565b6200072a818562000924565b93506200073c818560208601620009fc565b620007478162000b84565b840191505092915050565b60006200076160348362000924565b91506200076e8262000ba2565b604082019050919050565b60006200078860288362000924565b9150620007958262000bf1565b604082019050919050565b6000620007af60218362000924565b9150620007bc8262000c40565b604082019050919050565b620007d281620009f2565b82525050565b600060a082019050620007ef6000830188620006bf565b620007fe6020830187620006bf565b6200080d6040830186620007c7565b6200081c6060830185620007c7565b8181036080830152620008308184620006d0565b90509695505050505050565b6000602082019050818103600083015262000858818462000711565b905092915050565b600060208201905081810360008301526200087b8162000752565b9050919050565b600060208201905081810360008301526200089d8162000779565b9050919050565b60006020820190508181036000830152620008bf81620007a0565b9050919050565b6000604082019050620008dd6000830185620007c7565b620008ec6020830184620007c7565b9392505050565b6000604051905090565b600081519050919050565b600081519050919050565b600082825260208201905092915050565b600082825260208201905092915050565b60006200094282620009f2565b91506200094f83620009f2565b9250827fffffffffffffffffffffffffffffffffffffffffffffffffffffffffffffffff0382111562000987576200098662000a9e565b5b828201905092915050565b60006200099f82620009d2565b9050919050565b60007fffffffff0000000000000000000000000000000000000000000000000000000082169050919050565b600073ffffffffffffffffffffffffffffffffffffffff82169050919050565b6000819050919050565b60005b8381101562000a1c578082015181840152602081019050620009ff565b8381111562000a2c576000848401525b50505050565b6000600282049050600182168062000a4b57607f821691505b6020821081141562000a625762000a6162000acd565b5b50919050565b62000a738262000b84565b810181811067ffffffffffffffff8211171562000a955762000a9462000b2b565b5b80604052505050565b7f4e487b7100000000000000000000000000000000000000000000000000000000600052601160045260246000fd5b7f4e487b7100000000000000000000000000000000000000000000000000000000600052602260045260246000fd5b7f4e487b7100000000000000000000000000000000000000000000000000000000600052603260045260246000fd5b7f4e487b7100000000000000000000000000000000000000000000000000000000600052604160045260246000fd5b600060033d111562000b7c5760046000803e62000b7960005162000b95565b90505b90565b600080fd5b6000601f19601f8301169050919050565b60008160e01c9050919050565b7f455243313135353a207472616e7366657220746f206e6f6e204552433131353560008201527f526563656976657220696d706c656d656e746572000000000000000000000000602082015250565b7f455243313135353a204552433131353552656365697665722072656a6563746560008201527f6420746f6b656e73000000000000000000000000000000000000000000000000602082015250565b7f455243313135353a206d696e7420746f20746865207a65726f2061646472657360008201527f7300000000000000000000000000000000000000000000000000000000000000602082015250565b600060443d101562000ca15762000d2e565b62000cab620008f3565b60043d036004823e80513d602482011167ffffffffffffffff8211171562000cd557505062000d2e565b808201805167ffffffffffffffff81111562000cf5575050505062000d2e565b80602083010160043d03850181111562000d1457505050505062000d2e565b62000d258260200185018662000a68565b82955050505050505b90565b62000d3c81620009a6565b811462000d4857600080fd5b50565b61337a8062000d5b6000396000f3fe6080604052600436106101295760003560e01c80636ab55fd9116100ab578063c595f8951161006f578063c595f89514610456578063ce2b5f0714610493578063e16ca171146104be578063e933ad41146104e9578063e985e9c514610514578063f242432a1461055157610129565b80636ab55fd91461034b578063787d2f3014610376578063982944c0146103b35780639c01b296146103f0578063a22cb4651461042d57610129565b80632eb2c2d6116100f25780632eb2c2d61461024d578063313ce567146102765780633d140d21146102a15780634e1273f4146102de5780635aa2063a1461031b57610129565b8062fdd58e1461012e57806301ffc9a71461016b5780630e89341c146101a857806313d8191f146101e557806315b3e20414610210575b600080fd5b34801561013a57600080fd5b50610155600480360381019061015091906120e2565b61057a565b6040516101629190612921565b60405180910390f35b34801561017757600080fd5b50610192600480360381019061018d919061219a565b610643565b60405161019f9190612764565b60405180910390f35b3480156101b457600080fd5b506101cf60048036038101906101ca91906121f4565b610725565b6040516101dc919061277f565b60405180910390f35b3480156101f157600080fd5b506101fa6107b9565b6040516102079190612965565b60405180910390f35b34801561021c57600080fd5b5061023760048036038101906102329190612221565b6107be565b6040516102449190612764565b60405180910390f35b34801561025957600080fd5b50610274600480360381019061026f9190611ed5565b6108da565b005b34801561028257600080fd5b5061028b610c84565b6040516102989190612965565b60405180910390f35b3480156102ad57600080fd5b506102c860048036038101906102c391906120a2565b610c8d565b6040516102d59190612764565b60405180910390f35b3480156102ea57600080fd5b5061030560048036038101906103009190612122565b610ca2565b604051610312919061270b565b60405180910390f35b610335600480360381019061033091906122bd565b610dbb565b6040516103429190612764565b60405180910390f35b34801561035757600080fd5b50610360610f44565b60405161036d9190612965565b60405180910390f35b34801561038257600080fd5b5061039d600480360381019061039891906120e2565b610f49565b6040516103aa9190612921565b60405180910390f35b3480156103bf57600080fd5b506103da60048036038101906103d5919061227d565b610fcf565b6040516103e79190612921565b60405180910390f35b3480156103fc57600080fd5b506104176004803603810190610412919061203b565b611040565b6040516104249190612764565b60405180910390f35b34801561043957600080fd5b50610454600480360381019061044f91906120a2565b611100565b005b34801561046257600080fd5b5061047d6004803603810190610478919061227d565b611281565b60405161048a9190612921565b60405180910390f35b34801561049f57600080fd5b506104a86112c8565b6040516104b59190612965565b60405180910390f35b3480156104ca57600080fd5b506104d36112cd565b6040516104e09190612965565b60405180910390f35b3480156104f557600080fd5b506104fe6112d2565b60405161050b9190612965565b60405180910390f35b34801561052057600080fd5b5061053b60048036038101906105369190611e95565b6112d7565b6040516105489190612764565b60405180910390f35b34801561055d57600080fd5b5061057860048036038101906105739190611fa4565b61136b565b005b60008073ffffffffffffffffffffffffffffffffffffffff168373ffffffffffffffffffffffffffffffffffffffff1614156105eb576040517f08c379a00000000000000000000000000000000000000000000000000000000081526004016105e2906127e1565b60405180910390fd5b60008083815260200190815260200160002060008473ffffffffffffffffffffffffffffffffffffffff1673ffffffffffffffffffffffffffffffffffffffff16815260200190815260200160002054905092915050565b60007fd9b67a26000000000000000000000000000000000000000000000000000000007bffffffffffffffffffffffffffffffffffffffffffffffffffffffff1916827bffffffffffffffffffffffffffffffffffffffffffffffffffffffff1916148061070e57507f0e89341c000000000000000000000000000000000000000000000000000000007bffffffffffffffffffffffffffffffffffffffffffffffffffffffff1916827bffffffffffffffffffffffffffffffffffffffffffffffffffffffff1916145b8061071e575061071d82611696565b5b9050919050565b60606002805461073490612cbd565b80601f016020809104026020016040519081016040528092919081815260200182805461076090612cbd565b80156107ad5780601f10610782576101008083540402835291602001916107ad565b820191906000526020600020905b81548152906001019060200180831161079057829003601f168201915b50505050509050919050565b600281565b60008073ffffffffffffffffffffffffffffffffffffffff163373ffffffffffffffffffffffffffffffffffffffff16141561082f576040517f08c379a000000000000000000000000000000000000000000000000000000000815260040161082690612901565b60405180910390fd5b60405180604001604052808463ffffffff16815260200183815250600460003373ffffffffffffffffffffffffffffffffffffffff1673ffffffffffffffffffffffffffffffffffffffff16815260200190815260200160002060008201518160000160006101000a81548163ffffffff021916908363ffffffff16021790555060208201518160010190805190602001906108cc929190611b58565b509050506001905092915050565b815183511461091e576040517f08c379a0000000000000000000000000000000000000000000000000000000008152600401610915906128e1565b60405180910390fd5b600073ffffffffffffffffffffffffffffffffffffffff168473ffffffffffffffffffffffffffffffffffffffff16141561098e576040517f08c379a000000000000000000000000000000000000000000000000000000000815260040161098590612841565b60405180910390fd5b610996611700565b73ffffffffffffffffffffffffffffffffffffffff168573ffffffffffffffffffffffffffffffffffffffff1614806109dc57506109db856109d6611700565b6112d7565b5b610a1b576040517f08c379a0000000000000000000000000000000000000000000000000000000008152600401610a1290612861565b60405180910390fd5b6000610a25611700565b9050610a35818787878787611708565b60005b8451811015610bef576000858281518110610a5657610a55612df6565b5b602002602001015190506000858381518110610a7557610a74612df6565b5b60200260200101519050600080600084815260200190815260200160002060008b73ffffffffffffffffffffffffffffffffffffffff1673ffffffffffffffffffffffffffffffffffffffff16815260200190815260200160002054905081811015610b16576040517f08c379a0000000000000000000000000000000000000000000000000000000008152600401610b0d90612881565b60405180910390fd5b8181610b229190612bb1565b60008085815260200190815260200160002060008c73ffffffffffffffffffffffffffffffffffffffff1673ffffffffffffffffffffffffffffffffffffffff168152602001908152602001600020819055508160008085815260200190815260200160002060008b73ffffffffffffffffffffffffffffffffffffffff1673ffffffffffffffffffffffffffffffffffffffff1681526020019081526020016000206000828254610bd49190612ad0565b9250508190555050505080610be890612d20565b9050610a38565b508473ffffffffffffffffffffffffffffffffffffffff168673ffffffffffffffffffffffffffffffffffffffff168273ffffffffffffffffffffffffffffffffffffffff167f4a39dc06d4c0dbc64b70af90fd698a233a518aa5d07e595d983b8c0526c8f7fb8787604051610c6692919061272d565b60405180910390a4610c7c818787878787611710565b505050505050565b6000600c905090565b6000610c998383611100565b81905092915050565b60608151835114610ce8576040517f08c379a0000000000000000000000000000000000000000000000000000000008152600401610cdf906128c1565b60405180910390fd5b6000835167ffffffffffffffff811115610d0557610d04612e25565b5b604051908082528060200260200182016040528015610d335781602001602082028036833780820191505090505b50905060005b8451811015610db057610d80858281518110610d5857610d57612df6565b5b6020026020010151858381518110610d7357610d72612df6565b5b602002602001015161057a565b828281518110610d9357610d92612df6565b5b60200260200101818152505080610da990612d20565b9050610d39565b508091505092915050565b6000808290506000610dcd8686610fcf565b9050610dfc600360009054906101000a900473ffffffffffffffffffffffffffffffffffffffff166001611100565b610e4b33600360009054906101000a900473ffffffffffffffffffffffffffffffffffffffff168863ffffffff168488610e369190612b57565b6040518060200160405280600081525061136b565b610e9a600360009054906101000a900473ffffffffffffffffffffffffffffffffffffffff16338763ffffffff168488610e859190612b57565b6040518060200160405280600081525061136b565b8084610ea69190612b57565b600560008863ffffffff1663ffffffff16815260200190815260200160002060008763ffffffff1663ffffffff1681526020019081526020016000206000828254610ef19190612ad0565b925050819055507f5e9c7808ad5cbd05c6e2a97387715515d544f4cec71faec323a4962411ec752b3387878585604051610f2f9594939291906126b8565b60405180910390a16001925050509392505050565b600c81565b600082600073ffffffffffffffffffffffffffffffffffffffff168173ffffffffffffffffffffffffffffffffffffffff161415610fbc576040517f08c379a0000000000000000000000000000000000000000000000000000000008152600401610fb390612901565b60405180910390fd5b610fc6848461057a565b91505092915050565b600066038d7ea4c680006064600560008663ffffffff1663ffffffff16815260200190815260200160002060008563ffffffff1663ffffffff168152602001908152602001600020546110229190612b57565b61102c9190612b26565b60016110389190612ad0565b905092915050565b6000600360009054906101000a900473ffffffffffffffffffffffffffffffffffffffff1673ffffffffffffffffffffffffffffffffffffffff163373ffffffffffffffffffffffffffffffffffffffff16146110d2576040517f08c379a00000000000000000000000000000000000000000000000000000000081526004016110c990612821565b60405180910390fd5b6110f485858563ffffffff16856040518060200160405280600081525061136b565b60019050949350505050565b8173ffffffffffffffffffffffffffffffffffffffff1661111f611700565b73ffffffffffffffffffffffffffffffffffffffff161415611176576040517f08c379a000000000000000000000000000000000000000000000000000000000815260040161116d906128a1565b60405180910390fd5b8060016000611183611700565b73ffffffffffffffffffffffffffffffffffffffff1673ffffffffffffffffffffffffffffffffffffffff16815260200190815260200160002060008473ffffffffffffffffffffffffffffffffffffffff1673ffffffffffffffffffffffffffffffffffffffff16815260200190815260200160002060006101000a81548160ff0219169083151502179055508173ffffffffffffffffffffffffffffffffffffffff16611230611700565b73ffffffffffffffffffffffffffffffffffffffff167f17307eab39ab6107e8899845ad3d59bd9653f200f220920489ca2b5937696c31836040516112759190612764565b60405180910390a35050565b6000600560008463ffffffff1663ffffffff16815260200190815260200160002060008363ffffffff1663ffffffff16815260200190815260200160002054905092915050565b600381565b600081565b600181565b6000600160008473ffffffffffffffffffffffffffffffffffffffff1673ffffffffffffffffffffffffffffffffffffffff16815260200190815260200160002060008373ffffffffffffffffffffffffffffffffffffffff1673ffffffffffffffffffffffffffffffffffffffff16815260200190815260200160002060009054906101000a900460ff16905092915050565b600073ffffffffffffffffffffffffffffffffffffffff168473ffffffffffffffffffffffffffffffffffffffff1614156113db576040517f08c379a00000000000000000000000000000000000000000000000000000000081526004016113d290612841565b60405180910390fd5b6113e3611700565b73ffffffffffffffffffffffffffffffffffffffff168573ffffffffffffffffffffffffffffffffffffffff161480611429575061142885611423611700565b6112d7565b5b611468576040517f08c379a000000000000000000000000000000000000000000000000000000000815260040161145f90612801565b60405180910390fd5b6000611472611700565b9050611492818787611483886118f7565b61148c886118f7565b87611708565b600080600086815260200190815260200160002060008873ffffffffffffffffffffffffffffffffffffffff1673ffffffffffffffffffffffffffffffffffffffff16815260200190815260200160002054905083811015611529576040517f08c379a000000000000000000000000000000000000000000000000000000000815260040161152090612881565b60405180910390fd5b83816115359190612bb1565b60008087815260200190815260200160002060008973ffffffffffffffffffffffffffffffffffffffff1673ffffffffffffffffffffffffffffffffffffffff168152602001908152602001600020819055508360008087815260200190815260200160002060008873ffffffffffffffffffffffffffffffffffffffff1673ffffffffffffffffffffffffffffffffffffffff16815260200190815260200160002060008282546115e79190612ad0565b925050819055508573ffffffffffffffffffffffffffffffffffffffff168773ffffffffffffffffffffffffffffffffffffffff168373ffffffffffffffffffffffffffffffffffffffff167fc3d58168c5ae7397731d063d5bbf3d657854427343f4c083240f7aacaa2d0f62888860405161166492919061293c565b60405180910390a461167a828888888888611971565b50505050505050565b600080823b905060008111915050919050565b60007f01ffc9a7000000000000000000000000000000000000000000000000000000007bffffffffffffffffffffffffffffffffffffffffffffffffffffffff1916827bffffffffffffffffffffffffffffffffffffffffffffffffffffffff1916149050919050565b600033905090565b505050505050565b61172f8473ffffffffffffffffffffffffffffffffffffffff16611683565b156118ef578373ffffffffffffffffffffffffffffffffffffffff1663bc197c8187878686866040518663ffffffff1660e01b81526004016117759594939291906125f6565b602060405180830381600087803b15801561178f57600080fd5b505af19250505080156117c057506040513d601f19601f820116820180604052508101906117bd91906121c7565b60015b611866576117cc612e54565b806308c379a0141561182957506117e161323b565b806117ec575061182b565b806040517f08c379a0000000000000000000000000000000000000000000000000000000008152600401611820919061277f565b60405180910390fd5b505b6040517f08c379a000000000000000000000000000000000000000000000000000000000815260040161185d906127a1565b60405180910390fd5b63bc197c8160e01b7bffffffffffffffffffffffffffffffffffffffffffffffffffffffff1916817bffffffffffffffffffffffffffffffffffffffffffffffffffffffff1916146118ed576040517f08c379a00000000000000000000000000000000000000000000000000000000081526004016118e4906127c1565b60405180910390fd5b505b505050505050565b60606000600167ffffffffffffffff81111561191657611915612e25565b5b6040519080825280602002602001820160405280156119445781602001602082028036833780820191505090505b509050828160008151811061195c5761195b612df6565b5b60200260200101818152505080915050919050565b6119908473ffffffffffffffffffffffffffffffffffffffff16611683565b15611b50578373ffffffffffffffffffffffffffffffffffffffff1663f23a6e6187878686866040518663ffffffff1660e01b81526004016119d695949392919061265e565b602060405180830381600087803b1580156119f057600080fd5b505af1925050508015611a2157506040513d601f19601f82011682018060405250810190611a1e91906121c7565b60015b611ac757611a2d612e54565b806308c379a01415611a8a5750611a4261323b565b80611a4d5750611a8c565b806040517f08c379a0000000000000000000000000000000000000000000000000000000008152600401611a81919061277f565b60405180910390fd5b505b6040517f08c379a0000000000000000000000000000000000000000000000000000000008152600401611abe906127a1565b60405180910390fd5b63f23a6e6160e01b7bffffffffffffffffffffffffffffffffffffffffffffffffffffffff1916817bffffffffffffffffffffffffffffffffffffffffffffffffffffffff191614611b4e576040517f08c379a0000000000000000000000000000000000000000000000000000000008152600401611b45906127c1565b60405180910390fd5b505b505050505050565b828054611b6490612cbd565b90600052602060002090601f016020900481019282611b865760008555611bcd565b82601f10611b9f57805160ff1916838001178555611bcd565b82800160010185558215611bcd579182015b82811115611bcc578251825591602001919060010190611bb1565b5b509050611bda9190611bde565b5090565b5b80821115611bf7576000816000905550600101611bdf565b5090565b6000611c0e611c09846129a5565b612980565b90508083825260208201905082856020860282011115611c3157611c30612e7b565b5b60005b85811015611c615781611c478882611d5f565b845260208401935060208301925050600181019050611c34565b5050509392505050565b6000611c7e611c79846129d1565b612980565b90508083825260208201905082856020860282011115611ca157611ca0612e7b565b5b60005b85811015611cd15781611cb78882611e6b565b845260208401935060208301925050600181019050611ca4565b5050509392505050565b6000611cee611ce9846129fd565b612980565b905082815260208101848484011115611d0a57611d09612e80565b5b611d15848285612c7b565b509392505050565b6000611d30611d2b84612a2e565b612980565b905082815260208101848484011115611d4c57611d4b612e80565b5b611d57848285612c7b565b509392505050565b600081359050611d6e816132d1565b92915050565b600082601f830112611d8957611d88612e76565b5b8135611d99848260208601611bfb565b91505092915050565b600082601f830112611db757611db6612e76565b5b8135611dc7848260208601611c6b565b91505092915050565b600081359050611ddf816132e8565b92915050565b600081359050611df4816132ff565b92915050565b600081519050611e09816132ff565b92915050565b600082601f830112611e2457611e23612e76565b5b8135611e34848260208601611cdb565b91505092915050565b600082601f830112611e5257611e51612e76565b5b8135611e62848260208601611d1d565b91505092915050565b600081359050611e7a81613316565b92915050565b600081359050611e8f8161332d565b92915050565b60008060408385031215611eac57611eab612e8a565b5b6000611eba85828601611d5f565b9250506020611ecb85828601611d5f565b9150509250929050565b600080600080600060a08688031215611ef157611ef0612e8a565b5b6000611eff88828901611d5f565b9550506020611f1088828901611d5f565b945050604086013567ffffffffffffffff811115611f3157611f30612e85565b5b611f3d88828901611da2565b935050606086013567ffffffffffffffff811115611f5e57611f5d612e85565b5b611f6a88828901611da2565b925050608086013567ffffffffffffffff811115611f8b57611f8a612e85565b5b611f9788828901611e0f565b9150509295509295909350565b600080600080600060a08688031215611fc057611fbf612e8a565b5b6000611fce88828901611d5f565b9550506020611fdf88828901611d5f565b9450506040611ff088828901611e6b565b935050606061200188828901611e6b565b925050608086013567ffffffffffffffff81111561202257612021612e85565b5b61202e88828901611e0f565b9150509295509295909350565b6000806000806080858703121561205557612054612e8a565b5b600061206387828801611d5f565b945050602061207487828801611d5f565b935050604061208587828801611e80565b925050606061209687828801611e6b565b91505092959194509250565b600080604083850312156120b9576120b8612e8a565b5b60006120c785828601611d5f565b92505060206120d885828601611dd0565b9150509250929050565b600080604083850312156120f9576120f8612e8a565b5b600061210785828601611d5f565b925050602061211885828601611e6b565b9150509250929050565b6000806040838503121561213957612138612e8a565b5b600083013567ffffffffffffffff81111561215757612156612e85565b5b61216385828601611d74565b925050602083013567ffffffffffffffff81111561218457612183612e85565b5b61219085828601611da2565b9150509250929050565b6000602082840312156121b0576121af612e8a565b5b60006121be84828501611de5565b91505092915050565b6000602082840312156121dd576121dc612e8a565b5b60006121eb84828501611dfa565b91505092915050565b60006020828403121561220a57612209612e8a565b5b600061221884828501611e6b565b91505092915050565b6000806040838503121561223857612237612e8a565b5b600061224685828601611e80565b925050602083013567ffffffffffffffff81111561226757612266612e85565b5b61227385828601611e3d565b9150509250929050565b6000806040838503121561229457612293612e8a565b5b60006122a285828601611e80565b92505060206122b385828601611e80565b9150509250929050565b6000806000606084860312156122d6576122d5612e8a565b5b60006122e486828701611e80565b93505060206122f586828701611e80565b925050604061230686828701611e6b565b9150509250925092565b600061231c83836125ba565b60208301905092915050565b61233181612be5565b82525050565b600061234282612a6f565b61234c8185612a9d565b935061235783612a5f565b8060005b8381101561238857815161236f8882612310565b975061237a83612a90565b92505060018101905061235b565b5085935050505092915050565b61239e81612bf7565b82525050565b60006123af82612a7a565b6123b98185612aae565b93506123c9818560208601612c8a565b6123d281612e8f565b840191505092915050565b60006123e882612a85565b6123f28185612abf565b9350612402818560208601612c8a565b61240b81612e8f565b840191505092915050565b6000612423603483612abf565b915061242e82612ead565b604082019050919050565b6000612446602883612abf565b915061245182612efc565b604082019050919050565b6000612469602b83612abf565b915061247482612f4b565b604082019050919050565b600061248c602983612abf565b915061249782612f9a565b604082019050919050565b60006124af602283612abf565b91506124ba82612fe9565b604082019050919050565b60006124d2602583612abf565b91506124dd82613038565b604082019050919050565b60006124f5603283612abf565b915061250082613087565b604082019050919050565b6000612518602a83612abf565b9150612523826130d6565b604082019050919050565b600061253b602983612abf565b915061254682613125565b604082019050919050565b600061255e602983612abf565b915061256982613174565b604082019050919050565b6000612581602883612abf565b915061258c826131c3565b604082019050919050565b60006125a4601283612abf565b91506125af82613212565b602082019050919050565b6125c381612c4f565b82525050565b6125d281612c4f565b82525050565b6125e181612c69565b82525050565b6125f081612c59565b82525050565b600060a08201905061260b6000830188612328565b6126186020830187612328565b818103604083015261262a8186612337565b9050818103606083015261263e8185612337565b9050818103608083015261265281846123a4565b90509695505050505050565b600060a0820190506126736000830188612328565b6126806020830187612328565b61268d60408301866125c9565b61269a60608301856125c9565b81810360808301526126ac81846123a4565b90509695505050505050565b600060a0820190506126cd6000830188612328565b6126da60208301876125d8565b6126e760408301866125d8565b6126f460608301856125c9565b61270160808301846125c9565b9695505050505050565b600060208201905081810360008301526127258184612337565b905092915050565b600060408201905081810360008301526127478185612337565b9050818103602083015261275b8184612337565b90509392505050565b60006020820190506127796000830184612395565b92915050565b6000602082019050818103600083015261279981846123dd565b905092915050565b600060208201905081810360008301526127ba81612416565b9050919050565b600060208201905081810360008301526127da81612439565b9050919050565b600060208201905081810360008301526127fa8161245c565b9050919050565b6000602082019050818103600083015261281a8161247f565b9050919050565b6000602082019050818103600083015261283a816124a2565b9050919050565b6000602082019050818103600083015261285a816124c5565b9050919050565b6000602082019050818103600083015261287a816124e8565b9050919050565b6000602082019050818103600083015261289a8161250b565b9050919050565b600060208201905081810360008301526128ba8161252e565b9050919050565b600060208201905081810360008301526128da81612551565b9050919050565b600060208201905081810360008301526128fa81612574565b9050919050565b6000602082019050818103600083015261291a81612597565b9050919050565b600060208201905061293660008301846125c9565b92915050565b600060408201905061295160008301856125c9565b61295e60208301846125c9565b9392505050565b600060208201905061297a60008301846125e7565b92915050565b600061298a61299b565b90506129968282612cef565b919050565b6000604051905090565b600067ffffffffffffffff8211156129c0576129bf612e25565b5b602082029050602081019050919050565b600067ffffffffffffffff8211156129ec576129eb612e25565b5b602082029050602081019050919050565b600067ffffffffffffffff821115612a1857612a17612e25565b5b612a2182612e8f565b9050602081019050919050565b600067ffffffffffffffff821115612a4957612a48612e25565b5b612a5282612e8f565b9050602081019050919050565b6000819050602082019050919050565b600081519050919050565b600081519050919050565b600081519050919050565b6000602082019050919050565b600082825260208201905092915050565b600082825260208201905092915050565b600082825260208201905092915050565b6000612adb82612c4f565b9150612ae683612c4f565b9250827fffffffffffffffffffffffffffffffffffffffffffffffffffffffffffffffff03821115612b1b57612b1a612d69565b5b828201905092915050565b6000612b3182612c4f565b9150612b3c83612c4f565b925082612b4c57612b4b612d98565b5b828204905092915050565b6000612b6282612c4f565b9150612b6d83612c4f565b9250817fffffffffffffffffffffffffffffffffffffffffffffffffffffffffffffffff0483118215151615612ba657612ba5612d69565b5b828202905092915050565b6000612bbc82612c4f565b9150612bc783612c4f565b925082821015612bda57612bd9612d69565b5b828203905092915050565b6000612bf082612c2f565b9050919050565b60008115159050919050565b60007fffffffff0000000000000000000000000000000000000000000000000000000082169050919050565b600073ffffffffffffffffffffffffffffffffffffffff82169050919050565b6000819050919050565b600063ffffffff82169050919050565b6000612c7482612c59565b9050919050565b82818337600083830152505050565b60005b83811015612ca8578082015181840152602081019050612c8d565b83811115612cb7576000848401525b50505050565b60006002820490506001821680612cd557607f821691505b60208210811415612ce957612ce8612dc7565b5b50919050565b612cf882612e8f565b810181811067ffffffffffffffff82111715612d1757612d16612e25565b5b80604052505050565b6000612d2b82612c4f565b91507fffffffffffffffffffffffffffffffffffffffffffffffffffffffffffffffff821415612d5e57612d5d612d69565b5b600182019050919050565b7f4e487b7100000000000000000000000000000000000000000000000000000000600052601160045260246000fd5b7f4e487b7100000000000000000000000000000000000000000000000000000000600052601260045260246000fd5b7f4e487b7100000000000000000000000000000000000000000000000000000000600052602260045260246000fd5b7f4e487b7100000000000000000000000000000000000000000000000000000000600052603260045260246000fd5b7f4e487b7100000000000000000000000000000000000000000000000000000000600052604160045260246000fd5b600060033d1115612e735760046000803e612e70600051612ea0565b90505b90565b600080fd5b600080fd5b600080fd5b600080fd5b600080fd5b6000601f19601f8301169050919050565b60008160e01c9050919050565b7f455243313135353a207472616e7366657220746f206e6f6e204552433131353560008201527f526563656976657220696d706c656d656e746572000000000000000000000000602082015250565b7f455243313135353a204552433131353552656365697665722072656a6563746560008201527f6420746f6b656e73000000000000000000000000000000000000000000000000602082015250565b7f455243313135353a2062616c616e636520717565727920666f7220746865207a60008201527f65726f2061646472657373000000000000000000000000000000000000000000602082015250565b7f455243313135353a2063616c6c6572206973206e6f74206f776e6572206e6f7260008201527f20617070726f7665640000000000000000000000000000000000000000000000602082015250565b7f41636573736f20726573747269746f206170656e617320706172612041646d6960008201527f6e21000000000000000000000000000000000000000000000000000000000000602082015250565b7f455243313135353a207472616e7366657220746f20746865207a65726f20616460008201527f6472657373000000000000000000000000000000000000000000000000000000602082015250565b7f455243313135353a207472616e736665722063616c6c6572206973206e6f742060008201527f6f776e6572206e6f7220617070726f7665640000000000000000000000000000602082015250565b7f455243313135353a20696e73756666696369656e742062616c616e636520666f60008201527f72207472616e7366657200000000000000000000000000000000000000000000602082015250565b7f455243313135353a2073657474696e6720617070726f76616c2073746174757360008201527f20666f722073656c660000000000000000000000000000000000000000000000602082015250565b7f455243313135353a206163636f756e747320616e6420696473206c656e67746860008201527f206d69736d617463680000000000000000000000000000000000000000000000602082015250565b7f455243313135353a2069647320616e6420616d6f756e7473206c656e6774682060008201527f6d69736d61746368000000000000000000000000000000000000000000000000602082015250565b7f456e64657265636f20496e76616c69646f210000000000000000000000000000600082015250565b600060443d101561324b576132ce565b61325361299b565b60043d036004823e80513d602482011167ffffffffffffffff8211171561327b5750506132ce565b808201805167ffffffffffffffff81111561329957505050506132ce565b80602083010160043d0385018111156132b65750505050506132ce565b6132c582602001850186612cef565b82955050505050505b90565b6132da81612be5565b81146132e557600080fd5b50565b6132f181612bf7565b81146132fc57600080fd5b50565b61330881612c03565b811461331357600080fd5b50565b61331f81612c4f565b811461332a57600080fd5b50565b61333681612c59565b811461334157600080fd5b5056fea264697066735822122068447661c85ab75f34053ff42da3e3ca767364af7d76c9c82d4cf8f6c103a1a664736f6c63430008060033",
  "immutableReferences": {},
  "source": "// CdBy mand0mb3\n// SPDX-License-Identifier: MIT\n\npragma solidity ^0.8.4;\n\n//import \"https://github.com/OpenZeppelin/openzeppelin-contracts/blob/master/contracts/token/ERC1155/ERC1155.sol\";\nimport 'openzeppelin-solidity/contracts/token/ERC1155/ERC1155.sol';\n\ncontract MExchange is ERC1155{\n\n    uint32 public constant UCOIN = 0;\n    uint32 public constant MCOIN = 1;\n    uint32 public constant YCOIN = 2;\n    uint32 public constant MAX_NUMBER_COIN = 3;\n    uint32 public constant DECIMAL = 12;\n\n    address private owner;\n\n    struct Account{\n        uint32 id;\n        string name;\n        //uint256 balance;\n    }\n\n    event TokensSwap(\n        address account,\n        uint id_from,\n        uint id_to,\n        uint amount,\n        uint rate\n    );\n\n    mapping(address=>Account) private proprietarios;\n    mapping(uint32=>mapping(uint32=>uint256)) private _totalsupply;\n\n    modifier someOneReal(address someone){\n        require(someone!=address(0), \"Endereco Invalido!\");\n        _;\n    }\n    modifier onlyOwner(){\n        require(msg.sender==owner, \"Acesso restrito apenas para Admin!\");\n        _;\n    }\n    modifier onlyReal(){\n        require(msg.sender!=address(0), \"Endereco Invalido!\");\n        _;\n    }\n\n    constructor() public ERC1155(\"Me2\") {\n        owner = msg.sender;\n\n        _mint(msg.sender, UCOIN, 10**18, \"\");\n        _mint(msg.sender, MCOIN, 10**18, \"\");\n        _mint(msg.sender, YCOIN, 10**18, \"\");\n\n        /*\n        _mint(address(this), UCOIN, 10**15, \"\");\n        _mint(address(this), MCOIN, 10**15, \"\");\n        _mint(address(this), YCOIN, 10**15, \"\");\n        totalsupply[UCOIN][MCOIN] = 0;\n        totalsupply[MCOIN][UCOIN] = 0;\n        totalsupply[UCOIN][YCOIN] = 0;\n        totalsupply[YCOIN][UCOIN] = 0;\n        totalsupply[YCOIN][MCOIN] = 0;\n        totalsupply[MCOIN][YCOIN] = 0;\n        */\n    }\n\n    function donateCoin(uint32 _id, string memory _name) public onlyReal returns(bool){\n        proprietarios[msg.sender]=Account(_id, _name);\n        return true;\n    }\n\n    function decimals() public  view returns (uint32){\n        return DECIMAL;\n    }\n\n    function totalSupply(uint32 id_from, uint32 id_to) public view  returns (uint256){\n        return _totalsupply[id_from][id_to];\n    }\n    function _balanceOf(address account, uint256 id) public  view someOneReal(account) returns (uint256){\n        return balanceOf( account, id);\n    }\n    function transfer(address from, address to, uint32 id, uint256 amount) public onlyOwner returns (bool){\n        safeTransferFrom(from, to,  id, amount, '');\n        return true;\n    }\n    function approve(address operator, bool approved) public  returns (bool){\n        setApprovalForAll( operator,  approved);\n        return approved;\n    }\n    function getRate(uint32 id_from, uint32 id_to) public view  returns (uint256){\n        return 1 + (_totalsupply[id_from][id_to]*100/10**15);\n    }\n    function swapTokens(uint32 id_from, uint32 id_to, uint256 amount) public payable returns(bool) {\n        // Calculate the number of tokens to buy\n        uint tokenAmount = amount ;//* getRate(id_from, id_to);\n        uint price = getRate(id_from, id_to);\n        setApprovalForAll( owner,  true);\n\n        //transfer(msg.sender, owner, id_from, amount*price);\n        //transfer(owner, msg.sender, id_to, amount*price);\n        safeTransferFrom(msg.sender, owner, id_from, amount*price, '');\n        safeTransferFrom(owner, msg.sender, id_to, amount*price, '');\n        _totalsupply[id_from][id_to] += amount*price;\n\n        // Emit an event\n        emit TokensSwap(msg.sender, id_from, id_to, tokenAmount, price);\n        return true;\n    }\n\n}\n\n// Learn about automatic market to study formule to",
  "sourcePath": "/home/mandombe/Script/development/smart-contract/mkingdom/contracts/MExchange.sol",
  "compiler": {
    "name": "solc",
    "version": "0.8.6+commit.11564f7e.Emscripten.clang"
  },
  "schemaVersion": "3.3.4",
  "updatedAt": "2021-06-23T16:00:55.232Z",
  "networkType": "ethereum",
  "devdoc": {
    "kind": "dev",
    "methods": {
      "balanceOf(address,uint256)": {
        "details": "See {IERC1155-balanceOf}. Requirements: - `account` cannot be the zero address."
      },
      "balanceOfBatch(address[],uint256[])": {
        "details": "See {IERC1155-balanceOfBatch}. Requirements: - `accounts` and `ids` must have the same length."
      },
      "isApprovedForAll(address,address)": {
        "details": "See {IERC1155-isApprovedForAll}."
      },
      "safeBatchTransferFrom(address,address,uint256[],uint256[],bytes)": {
        "details": "See {IERC1155-safeBatchTransferFrom}."
      },
      "safeTransferFrom(address,address,uint256,uint256,bytes)": {
        "details": "See {IERC1155-safeTransferFrom}."
      },
      "setApprovalForAll(address,bool)": {
        "details": "See {IERC1155-setApprovalForAll}."
      },
      "supportsInterface(bytes4)": {
        "details": "See {IERC165-supportsInterface}."
      },
      "uri(uint256)": {
        "details": "See {IERC1155MetadataURI-uri}. This implementation returns the same URI for *all* token types. It relies on the token type ID substitution mechanism https://eips.ethereum.org/EIPS/eip-1155#metadata[defined in the EIP]. Clients calling this function must replace the `\\{id\\}` substring with the actual token type ID."
      }
    },
    "version": 1
  },
  "userdoc": {
    "kind": "user",
    "methods": {},
    "version": 1
  }
}