{
  "contractName": "Swap",
  "abi": [
    {
      "inputs": [],
      "stateMutability": "nonpayable",
      "type": "constructor"
    },
    {
      "anonymous": false,
      "inputs": [
        {
          "indexed": false,
          "internalType": "address",
          "name": "account",
          "type": "address"
        },
        {
          "indexed": false,
          "internalType": "uint256",
          "name": "id_from",
          "type": "uint256"
        },
        {
          "indexed": false,
          "internalType": "uint256",
          "name": "id_to",
          "type": "uint256"
        },
        {
          "indexed": false,
          "internalType": "uint256",
          "name": "amount",
          "type": "uint256"
        },
        {
          "indexed": false,
          "internalType": "uint256",
          "name": "rate",
          "type": "uint256"
        }
      ],
      "name": "TokensSwap",
      "type": "event"
    },
    {
      "inputs": [
        {
          "internalType": "uint32",
          "name": "id_",
          "type": "uint32"
        },
        {
          "internalType": "string",
          "name": "name_",
          "type": "string"
        }
      ],
      "name": "signUp",
      "outputs": [
        {
          "internalType": "bool",
          "name": "",
          "type": "bool"
        }
      ],
      "stateMutability": "nonpayable",
      "type": "function"
    },
    {
      "inputs": [
        {
          "internalType": "address",
          "name": "student",
          "type": "address"
        },
        {
          "internalType": "uint256",
          "name": "amount",
          "type": "uint256"
        }
      ],
      "name": "donateCoin",
      "outputs": [
        {
          "internalType": "bool",
          "name": "",
          "type": "bool"
        }
      ],
      "stateMutability": "nonpayable",
      "type": "function"
    },
    {
      "inputs": [
        {
          "internalType": "address",
          "name": "coin",
          "type": "address"
        }
      ],
      "name": "addCoin",
      "outputs": [
        {
          "internalType": "bool",
          "name": "",
          "type": "bool"
        }
      ],
      "stateMutability": "nonpayable",
      "type": "function"
    },
    {
      "inputs": [
        {
          "internalType": "address",
          "name": "_coinFrom",
          "type": "address"
        },
        {
          "internalType": "address",
          "name": "_coinTo",
          "type": "address"
        }
      ],
      "name": "priceCoin",
      "outputs": [
        {
          "internalType": "uint256",
          "name": "",
          "type": "uint256"
        }
      ],
      "stateMutability": "view",
      "type": "function",
      "constant": true
    },
    {
      "inputs": [
        {
          "internalType": "uint256",
          "name": "index_1",
          "type": "uint256"
        },
        {
          "internalType": "uint256",
          "name": "index_2",
          "type": "uint256"
        }
      ],
      "name": "priceCoinAt",
      "outputs": [
        {
          "internalType": "uint256",
          "name": "",
          "type": "uint256"
        }
      ],
      "stateMutability": "view",
      "type": "function",
      "constant": true
    },
    {
      "inputs": [
        {
          "internalType": "address",
          "name": "_coinFrom",
          "type": "address"
        },
        {
          "internalType": "address",
          "name": "_coinTo",
          "type": "address"
        }
      ],
      "name": "getRate",
      "outputs": [
        {
          "internalType": "uint256",
          "name": "",
          "type": "uint256"
        }
      ],
      "stateMutability": "view",
      "type": "function",
      "constant": true
    },
    {
      "inputs": [
        {
          "internalType": "address",
          "name": "_coinFrom",
          "type": "address"
        }
      ],
      "name": "getMax",
      "outputs": [
        {
          "internalType": "uint256",
          "name": "",
          "type": "uint256"
        }
      ],
      "stateMutability": "view",
      "type": "function",
      "constant": true
    },
    {
      "inputs": [],
      "name": "getStudentsLength",
      "outputs": [
        {
          "internalType": "uint256",
          "name": "",
          "type": "uint256"
        }
      ],
      "stateMutability": "view",
      "type": "function",
      "constant": true
    },
    {
      "inputs": [],
      "name": "getCoinsLength",
      "outputs": [
        {
          "internalType": "uint256",
          "name": "",
          "type": "uint256"
        }
      ],
      "stateMutability": "view",
      "type": "function",
      "constant": true
    },
    {
      "inputs": [
        {
          "internalType": "uint256",
          "name": "index",
          "type": "uint256"
        }
      ],
      "name": "getStudent",
      "outputs": [
        {
          "components": [
            {
              "internalType": "uint32",
              "name": "id",
              "type": "uint32"
            },
            {
              "internalType": "string",
              "name": "name",
              "type": "string"
            },
            {
              "internalType": "bool",
              "name": "received",
              "type": "bool"
            }
          ],
          "internalType": "struct Swap.Account",
          "name": "",
          "type": "tuple"
        }
      ],
      "stateMutability": "view",
      "type": "function",
      "constant": true
    },
    {
      "inputs": [
        {
          "internalType": "uint256",
          "name": "index",
          "type": "uint256"
        }
      ],
      "name": "getCoinSymbol",
      "outputs": [
        {
          "internalType": "string",
          "name": "",
          "type": "string"
        }
      ],
      "stateMutability": "view",
      "type": "function",
      "constant": true
    },
    {
      "inputs": [
        {
          "internalType": "address",
          "name": "_coinFrom",
          "type": "address"
        },
        {
          "internalType": "uint256",
          "name": "amount",
          "type": "uint256"
        }
      ],
      "name": "approve",
      "outputs": [
        {
          "internalType": "bool",
          "name": "",
          "type": "bool"
        }
      ],
      "stateMutability": "nonpayable",
      "type": "function"
    },
    {
      "inputs": [
        {
          "internalType": "address",
          "name": "_coinFrom",
          "type": "address"
        }
      ],
      "name": "balanceOf",
      "outputs": [
        {
          "internalType": "uint256",
          "name": "",
          "type": "uint256"
        }
      ],
      "stateMutability": "view",
      "type": "function",
      "constant": true
    },
    {
      "inputs": [
        {
          "internalType": "uint256",
          "name": "index_U",
          "type": "uint256"
        },
        {
          "internalType": "uint256",
          "name": "index_C",
          "type": "uint256"
        }
      ],
      "name": "balanceOfAt",
      "outputs": [
        {
          "internalType": "uint256",
          "name": "",
          "type": "uint256"
        }
      ],
      "stateMutability": "view",
      "type": "function",
      "constant": true
    },
    {
      "inputs": [
        {
          "internalType": "address",
          "name": "_coinFrom",
          "type": "address"
        },
        {
          "internalType": "address",
          "name": "_coinTo",
          "type": "address"
        },
        {
          "internalType": "uint256",
          "name": "amount",
          "type": "uint256"
        }
      ],
      "name": "swap",
      "outputs": [
        {
          "internalType": "bool",
          "name": "",
          "type": "bool"
        }
      ],
      "stateMutability": "nonpayable",
      "type": "function"
    },
    {
      "inputs": [
        {
          "internalType": "uint256",
          "name": "x",
          "type": "uint256"
        },
        {
          "internalType": "uint256",
          "name": "y",
          "type": "uint256"
        }
      ],
      "name": "div",
      "outputs": [
        {
          "internalType": "uint256",
          "name": "",
          "type": "uint256"
        }
      ],
      "stateMutability": "pure",
      "type": "function",
      "constant": true
    },
    {
      "inputs": [
        {
          "internalType": "uint256",
          "name": "x",
          "type": "uint256"
        },
        {
          "internalType": "uint256",
          "name": "y",
          "type": "uint256"
        }
      ],
      "name": "mul",
      "outputs": [
        {
          "internalType": "uint256",
          "name": "",
          "type": "uint256"
        }
      ],
      "stateMutability": "pure",
      "type": "function",
      "constant": true
    },
    {
      "inputs": [
        {
          "internalType": "uint256",
          "name": "a",
          "type": "uint256"
        }
      ],
      "name": "value",
      "outputs": [
        {
          "internalType": "uint256",
          "name": "",
          "type": "uint256"
        }
      ],
      "stateMutability": "pure",
      "type": "function",
      "constant": true
    }
  ],
  "bytecode": "0x60806040526012600a620000149190620000d4565b600162000022919062000211565b6006553480156200003257600080fd5b50336000806101000a81548173ffffffffffffffffffffffffffffffffffffffff021916908373ffffffffffffffffffffffffffffffffffffffff160217905550620002c5565b6000808291508390505b6001851115620000cb57808604811115620000a357620000a262000289565b5b6001851615620000b35780820291505b8081029050620000c385620002b8565b945062000083565b94509492505050565b6000620000e18262000272565b9150620000ee836200027c565b92506200011d7fffffffffffffffffffffffffffffffffffffffffffffffffffffffffffffffff848462000125565b905092915050565b6000826200013757600190506200020a565b816200014757600090506200020a565b81600181146200016057600281146200016b57620001a1565b60019150506200020a565b60ff84111562000180576200017f62000289565b5b8360020a9150848211156200019a576200019962000289565b5b506200020a565b5060208310610133831016604e8410600b8410161715620001db5782820a905083811115620001d557620001d462000289565b5b6200020a565b620001ea848484600162000079565b9250905081840481111562000204576200020362000289565b5b81810290505b9392505050565b60006200021e8262000272565b91506200022b8362000272565b9250817fffffffffffffffffffffffffffffffffffffffffffffffffffffffffffffffff048311821515161562000267576200026662000289565b5b828202905092915050565b6000819050919050565b600060ff82169050919050565b7f4e487b7100000000000000000000000000000000000000000000000000000000600052601160045260246000fd5b60008160011c9050919050565b613bc780620002d56000396000f3fe608060405234801561001057600080fd5b50600436106101165760003560e01c8063a391c15b116100a2578063c8a4ac9c11610071578063c8a4ac9c14610367578063df791e5014610397578063e659fd32146103c7578063f69f1889146103f7578063fe9ec6b61461042757610116565b8063a391c15b146102cb578063b807be38146102fb578063bbc975cc14610319578063c5a46ee61461033757610116565b80633fe14d90116100e95780633fe14d90146101db578063642f91631461020b57806369284f5b1461023b57806370a082311461026b578063853c8aeb1461029b57610116565b8063095ea7b31461011b57806316da86321461014b578063379b87ea1461017b57806339e62c46146101ab575b600080fd5b61013560048036038101906101309190612dfb565b610457565b6040516101429190613274565b60405180910390f35b61016560048036038101906101609190612d3b565b6105fa565b6040516101729190613274565b60405180910390f35b61019560048036038101906101909190612d68565b610949565b6040516101a291906133d3565b60405180910390f35b6101c560048036038101906101c09190612eb1565b6109d0565b6040516101d2919061328f565b60405180910390f35b6101f560048036038101906101f09190612f0b565b610ae3565b60405161020291906133d3565b60405180910390f35b61022560048036038101906102209190612eb1565b610da4565b60405161023291906133b1565b60405180910390f35b61025560048036038101906102509190612f4b565b610f57565b6040516102629190613274565b60405180910390f35b61028560048036038101906102809190612d3b565b61125f565b60405161029291906133d3565b60405180910390f35b6102b560048036038101906102b09190612f0b565b611366565b6040516102c291906133d3565b60405180910390f35b6102e560048036038101906102e09190612f0b565b61157c565b6040516102f291906133d3565b60405180910390f35b6103036115a8565b60405161031091906133d3565b60405180910390f35b6103216115b5565b60405161032e91906133d3565b60405180910390f35b610351600480360381019061034c9190612eb1565b6115c2565b60405161035e91906133d3565b60405180910390f35b610381600480360381019061037c9190612f0b565b6115e1565b60405161038e91906133d3565b60405180910390f35b6103b160048036038101906103ac9190612da8565b61160d565b6040516103be9190613274565b60405180910390f35b6103e160048036038101906103dc9190612dfb565b611a89565b6040516103ee9190613274565b60405180910390f35b610411600480360381019061040c9190612d3b565b611d44565b60405161041e91906133d3565b60405180910390f35b610441600480360381019061043c9190612d68565b611d8d565b60405161044e91906133d3565b60405180910390f35b60003073ffffffffffffffffffffffffffffffffffffffff163373ffffffffffffffffffffffffffffffffffffffff1614156104c8576040517f08c379a00000000000000000000000000000000000000000000000000000000081526004016104bf906132b1565b60405180910390fd5b60008390508073ffffffffffffffffffffffffffffffffffffffff166339509351308373ffffffffffffffffffffffffffffffffffffffff1663313ce5676040518163ffffffff1660e01b815260040160206040518083038186803b15801561053057600080fd5b505afa158015610544573d6000803e3d6000fd5b505050506040513d601f19601f820116820180604052508101906105689190612fa7565b60ff16600a610577919061351a565b866105829190613683565b6040518363ffffffff1660e01b815260040161059f92919061324b565b602060405180830381600087803b1580156105b957600080fd5b505af11580156105cd573d6000803e3d6000fd5b505050506040513d601f19601f820116820180604052508101906105f19190612e3b565b91505092915050565b600060405180602001604052806000815250805190602001208273ffffffffffffffffffffffffffffffffffffffff166306fdde036040518163ffffffff1660e01b815260040160006040518083038186803b15801561065957600080fd5b505afa15801561066d573d6000803e3d6000fd5b505050506040513d6000823e3d601f19601f820116820180604052508101906106969190612e68565b8051906020012014156106de576040517f08c379a00000000000000000000000000000000000000000000000000000000081526004016106d590613331565b60405180910390fd5b60005b60048054905081101561077d576004818154811061070257610701613920565b5b9060005260206000200160009054906101000a900473ffffffffffffffffffffffffffffffffffffffff1673ffffffffffffffffffffffffffffffffffffffff168373ffffffffffffffffffffffffffffffffffffffff16141561076a576000915050610944565b80806107759061381b565b9150506106e1565b506004829080600181540180825580915050600190039060005260206000200160009091909190916101000a81548173ffffffffffffffffffffffffffffffffffffffff021916908373ffffffffffffffffffffffffffffffffffffffff1602179055506108fc8273ffffffffffffffffffffffffffffffffffffffff166370a08231306040518263ffffffff1660e01b815260040161081d91906131f9565b60206040518083038186803b15801561083557600080fd5b505afa158015610849573d6000803e3d6000fd5b505050506040513d601f19601f8201168201806040525081019061086d9190612ede565b8373ffffffffffffffffffffffffffffffffffffffff1663313ce5676040518163ffffffff1660e01b815260040160206040518083038186803b1580156108b357600080fd5b505afa1580156108c7573d6000803e3d6000fd5b505050506040513d601f19601f820116820180604052508101906108eb9190612fa7565b600a6108f79190613565565b61157c565b600260008473ffffffffffffffffffffffffffffffffffffffff1673ffffffffffffffffffffffffffffffffffffffff16815260200190815260200160002081905550600190505b919050565b6000600360008473ffffffffffffffffffffffffffffffffffffffff1673ffffffffffffffffffffffffffffffffffffffff16815260200190815260200160002060008373ffffffffffffffffffffffffffffffffffffffff1673ffffffffffffffffffffffffffffffffffffffff16815260200190815260200160002054905092915050565b60606109da6115b5565b8210610a1b576040517f08c379a0000000000000000000000000000000000000000000000000000000008152600401610a1290613351565b60405180910390fd5b60048281548110610a2f57610a2e613920565b5b9060005260206000200160009054906101000a900473ffffffffffffffffffffffffffffffffffffffff1673ffffffffffffffffffffffffffffffffffffffff166395d89b416040518163ffffffff1660e01b815260040160006040518083038186803b158015610a9f57600080fd5b505afa158015610ab3573d6000803e3d6000fd5b505050506040513d6000823e3d601f19601f82011682018060405250810190610adc9190612e68565b9050919050565b6000610aed6115b5565b8310610b2e576040517f08c379a0000000000000000000000000000000000000000000000000000000008152600401610b2590613351565b60405180910390fd5b610b366115b5565b8210610b77576040517f08c379a0000000000000000000000000000000000000000000000000000000008152600401610b6e90613351565b60405180910390fd5b60006003600060048681548110610b9157610b90613920565b5b9060005260206000200160009054906101000a900473ffffffffffffffffffffffffffffffffffffffff1673ffffffffffffffffffffffffffffffffffffffff1673ffffffffffffffffffffffffffffffffffffffff168152602001908152602001600020600060048581548110610c0c57610c0b613920565b5b9060005260206000200160009054906101000a900473ffffffffffffffffffffffffffffffffffffffff1673ffffffffffffffffffffffffffffffffffffffff1673ffffffffffffffffffffffffffffffffffffffff1681526020019081526020016000205411610c98576012600a610c859190613565565b6001610c919190613683565b9050610d9e565b610d9b6003600060048681548110610cb357610cb2613920565b5b9060005260206000200160009054906101000a900473ffffffffffffffffffffffffffffffffffffffff1673ffffffffffffffffffffffffffffffffffffffff1673ffffffffffffffffffffffffffffffffffffffff168152602001908152602001600020600060048581548110610d2e57610d2d613920565b5b9060005260206000200160009054906101000a900473ffffffffffffffffffffffffffffffffffffffff1673ffffffffffffffffffffffffffffffffffffffff1673ffffffffffffffffffffffffffffffffffffffff16815260200190815260200160002054600a61157c565b90505b92915050565b610dac612b11565b610db46115a8565b8210610df5576040517f08c379a0000000000000000000000000000000000000000000000000000000008152600401610dec90613351565b60405180910390fd5b6001600060058481548110610e0d57610e0c613920565b5b9060005260206000200160009054906101000a900473ffffffffffffffffffffffffffffffffffffffff1673ffffffffffffffffffffffffffffffffffffffff1673ffffffffffffffffffffffffffffffffffffffff1681526020019081526020016000206040518060600160405290816000820160009054906101000a900463ffffffff1663ffffffff1663ffffffff168152602001600182018054610eb3906137b8565b80601f0160208091040260200160405190810160405280929190818152602001828054610edf906137b8565b8015610f2c5780601f10610f0157610100808354040283529160200191610f2c565b820191906000526020600020905b815481529060010190602001808311610f0f57829003601f168201915b505050505081526020016002820160009054906101000a900460ff1615151515815250509050919050565b60008073ffffffffffffffffffffffffffffffffffffffff163373ffffffffffffffffffffffffffffffffffffffff161415610fc8576040517f08c379a0000000000000000000000000000000000000000000000000000000008152600401610fbf90613391565b60405180910390fd5b6000600160003373ffffffffffffffffffffffffffffffffffffffff1673ffffffffffffffffffffffffffffffffffffffff16815260200190815260200160002060000160009054906101000a900463ffffffff1663ffffffff1614611063576040517f08c379a000000000000000000000000000000000000000000000000000000000815260040161105a906132d1565b60405180910390fd5b60005b600580549050811015611127578363ffffffff16600160003373ffffffffffffffffffffffffffffffffffffffff1673ffffffffffffffffffffffffffffffffffffffff16815260200190815260200160002060000160009054906101000a900463ffffffff1663ffffffff161415611114576040517f08c379a000000000000000000000000000000000000000000000000000000000815260040161110b906132d1565b60405180910390fd5b808061111f9061381b565b915050611066565b506005339080600181540180825580915050600190039060005260206000200160009091909190916101000a81548173ffffffffffffffffffffffffffffffffffffffff021916908373ffffffffffffffffffffffffffffffffffffffff16021790555060405180606001604052808463ffffffff16815260200183815260200160001515815250600160003373ffffffffffffffffffffffffffffffffffffffff1673ffffffffffffffffffffffffffffffffffffffff16815260200190815260200160002060008201518160000160006101000a81548163ffffffff021916908363ffffffff1602179055506020820151816001019080519060200190611231929190612b3a565b5060408201518160020160006101000a81548160ff0219169083151502179055509050506001905092915050565b60008073ffffffffffffffffffffffffffffffffffffffff163373ffffffffffffffffffffffffffffffffffffffff1614156112d0576040517f08c379a00000000000000000000000000000000000000000000000000000000081526004016112c790613391565b60405180910390fd5b60008290508073ffffffffffffffffffffffffffffffffffffffff166370a08231336040518263ffffffff1660e01b815260040161130e91906131f9565b60206040518083038186803b15801561132657600080fd5b505afa15801561133a573d6000803e3d6000fd5b505050506040513d601f19601f8201168201806040525081019061135e9190612ede565b915050919050565b60008073ffffffffffffffffffffffffffffffffffffffff163373ffffffffffffffffffffffffffffffffffffffff1614156113d7576040517f08c379a00000000000000000000000000000000000000000000000000000000081526004016113ce90613391565b60405180910390fd5b6113df6115b5565b8210611420576040517f08c379a000000000000000000000000000000000000000000000000000000000815260040161141790613351565b60405180910390fd5b6114286115a8565b8310611469576040517f08c379a000000000000000000000000000000000000000000000000000000000815260040161146090613351565b60405180910390fd5b60006004838154811061147f5761147e613920565b5b9060005260206000200160009054906101000a900473ffffffffffffffffffffffffffffffffffffffff1690508073ffffffffffffffffffffffffffffffffffffffff166370a08231600586815481106114dc576114db613920565b5b9060005260206000200160009054906101000a900473ffffffffffffffffffffffffffffffffffffffff166040518263ffffffff1660e01b815260040161152391906131f9565b60206040518083038186803b15801561153b57600080fd5b505afa15801561154f573d6000803e3d6000fd5b505050506040513d601f19601f820116820180604052508101906115739190612ede565b91505092915050565b60006115a061159b61158d85611ec3565b61159685611ec3565b611f41565b61240a565b905092915050565b6000600580549050905090565b6000600480549050905090565b60006115da82600a806115d59190613565565b6115e1565b9050919050565b60006116056116006115f285611ec3565b6115fb85611ec3565b612508565b61240a565b905092915050565b60008084905060008490506000600360008873ffffffffffffffffffffffffffffffffffffffff1673ffffffffffffffffffffffffffffffffffffffff16815260200190815260200160002060008773ffffffffffffffffffffffffffffffffffffffff1673ffffffffffffffffffffffffffffffffffffffff1681526020019081526020016000205411611737576012600a6116aa9190613565565b60016116b69190613683565b600360008873ffffffffffffffffffffffffffffffffffffffff1673ffffffffffffffffffffffffffffffffffffffff16815260200190815260200160002060008773ffffffffffffffffffffffffffffffffffffffff1673ffffffffffffffffffffffffffffffffffffffff168152602001908152602001600020819055505b60006117c0600360008973ffffffffffffffffffffffffffffffffffffffff1673ffffffffffffffffffffffffffffffffffffffff16815260200190815260200160002060008873ffffffffffffffffffffffffffffffffffffffff1673ffffffffffffffffffffffffffffffffffffffff16815260200190815260200160002054600a61157c565b60646117cc9190613471565b905080851015611811576040517f08c379a0000000000000000000000000000000000000000000000000000000008152600401611808906132f1565b60405180910390fd5b8273ffffffffffffffffffffffffffffffffffffffff166323b872dd3330886040518463ffffffff1660e01b815260040161184e93929190613214565b602060405180830381600087803b15801561186857600080fd5b505af115801561187c573d6000803e3d6000fd5b505050506040513d601f19601f820116820180604052508101906118a09190612e3b565b506118b533836118b0888561157c565b61299d565b6118bf858261157c565b600360008973ffffffffffffffffffffffffffffffffffffffff1673ffffffffffffffffffffffffffffffffffffffff16815260200190815260200160002060008873ffffffffffffffffffffffffffffffffffffffff1673ffffffffffffffffffffffffffffffffffffffff168152602001908152602001600020600082825461194a9190613471565b9250508190555061195b858261157c565b600360008873ffffffffffffffffffffffffffffffffffffffff1673ffffffffffffffffffffffffffffffffffffffff16815260200190815260200160002060008973ffffffffffffffffffffffffffffffffffffffff1673ffffffffffffffffffffffffffffffffffffffff168152602001908152602001600020541115611a7b576119e8858261157c565b600360008873ffffffffffffffffffffffffffffffffffffffff1673ffffffffffffffffffffffffffffffffffffffff16815260200190815260200160002060008973ffffffffffffffffffffffffffffffffffffffff1673ffffffffffffffffffffffffffffffffffffffff1681526020019081526020016000206000828254611a7391906136dd565b925050819055505b600193505050509392505050565b60008060009054906101000a900473ffffffffffffffffffffffffffffffffffffffff1673ffffffffffffffffffffffffffffffffffffffff163373ffffffffffffffffffffffffffffffffffffffff1614611b1a576040517f08c379a0000000000000000000000000000000000000000000000000000000008152600401611b1190613311565b60405180910390fd5b60001515600160008573ffffffffffffffffffffffffffffffffffffffff1673ffffffffffffffffffffffffffffffffffffffff16815260200190815260200160002060020160009054906101000a900460ff16151514611bb0576040517f08c379a0000000000000000000000000000000000000000000000000000000008152600401611ba790613371565b60405180910390fd5b60005b600480549050811015611cdf57600060048281548110611bd657611bd5613920565b5b9060005260206000200160009054906101000a900473ffffffffffffffffffffffffffffffffffffffff1690508073ffffffffffffffffffffffffffffffffffffffff166323b872dd60008054906101000a900473ffffffffffffffffffffffffffffffffffffffff16876012600a611c4f9190613565565b88611c5a9190613683565b6040518463ffffffff1660e01b8152600401611c7893929190613214565b602060405180830381600087803b158015611c9257600080fd5b505af1158015611ca6573d6000803e3d6000fd5b505050506040513d601f19601f82011682018060405250810190611cca9190612e3b565b50508080611cd79061381b565b915050611bb3565b5060018060008573ffffffffffffffffffffffffffffffffffffffff1673ffffffffffffffffffffffffffffffffffffffff16815260200190815260200160002060020160006101000a81548160ff0219169083151502179055506001905092915050565b6000600260008373ffffffffffffffffffffffffffffffffffffffff1673ffffffffffffffffffffffffffffffffffffffff168152602001908152602001600020549050919050565b600080600360008573ffffffffffffffffffffffffffffffffffffffff1673ffffffffffffffffffffffffffffffffffffffff16815260200190815260200160002060008473ffffffffffffffffffffffffffffffffffffffff1673ffffffffffffffffffffffffffffffffffffffff1681526020019081526020016000205411611e33576012600a611e209190613565565b6001611e2c9190613683565b9050611ebd565b611eba600360008573ffffffffffffffffffffffffffffffffffffffff1673ffffffffffffffffffffffffffffffffffffffff16815260200190815260200160002060008473ffffffffffffffffffffffffffffffffffffffff1673ffffffffffffffffffffffffffffffffffffffff16815260200190815260200160002054600a61157c565b90505b92915050565b600080821415611ed957600060801b9050611f3c565b60008290506000611ee982612a30565b90506070811015611f02578060700382901b9150611f16565b6070811115611f15576070810382901c91505b5b607081613fff01901b6dffffffffffffffffffffffffffff83161791508160801b925050505b919050565b600080617fff60708560801c6fffffffffffffffffffffffffffffffff16901c166fffffffffffffffffffffffffffffffff1690506000617fff60708560801c6fffffffffffffffffffffffffffffffff16901c166fffffffffffffffffffffffffffffffff169050617fff821415611ffc57617fff811415611fdb576f7fff800000000000000000000000000060801b92505050612404565b6f8000000000000000000000000000000060801b8416851892505050612404565b617fff81141561207b57600060801b6dffffffffffffffffffffffffffff60801b85166fffffffffffffffffffffffffffffffff191614612054576f7fff800000000000000000000000000060801b92505050612404565b6f8000000000000000000000000000000060801b84861816600060801b1792505050612404565b600060801b6f7fffffffffffffffffffffffffffffff60801b85166fffffffffffffffffffffffffffffffff1916141561213657600060801b6f7fffffffffffffffffffffffffffffff60801b86166fffffffffffffffffffffffffffffffff19161415612100576f7fff800000000000000000000000000060801b92505050612404565b6f8000000000000000000000000000000060801b848618166f7fff000000000000000000000000000060801b1792505050612404565b60006dffffffffffffffffffffffffffff8560801c166fffffffffffffffffffffffffffffffff16905060008214156121725760019150612187565b6e010000000000000000000000000000811790505b60006dffffffffffffffffffffffffffff8760801c166fffffffffffffffffffffffffffffffff16905060008414156121eb57600081146121e65760006121cd82612a30565b60e20390508082901b9150600194506072810384019350505b612204565b60726e0100000000000000000000000000008217901b90505b818181612214576122136138c2565b5b049050600081141561227f57600060801b6f8000000000000000000000000000000060801b878918166fffffffffffffffffffffffffffffffff19161161225f57600060801b612274565b6f8000000000000000000000000000000060801b5b945050505050612404565b6d100000000000000000000000000081101561229e5761229d613864565b5b60006e0800000000000000000000000000008210156122ff576e0400000000000000000000000000008210156122f4576e0200000000000000000000000000008210156122ec5760706122ef565b60715b6122f7565b60725b60ff16612309565b61230882612a30565b5b90506140718401818601111561232757617fff9450600091506123c4565b83613ffc8287010110156123425760009450600091506123c3565b83613f8c8287010110156123905783613ffc8601111561236d5783613ffc86010382901b9150612387565b83613ffc8601101561238657613ffc8585030382901c91505b5b600094506123c2565b60708111156123a3576070810382901c91505b6dffffffffffffffffffffffffffff8216915083613f8d828701010394505b5b5b81607086901b6f8000000000000000000000000000000060801b898b181660801c6fffffffffffffffffffffffffffffffff16171760801b955050505050505b92915050565b600080617fff60708460801c6fffffffffffffffffffffffffffffffff16901c166fffffffffffffffffffffffffffffffff169050613fff811015612453576000915050612503565b6f800000000000000000000000000000008360801c6fffffffffffffffffffffffffffffffff161061248457600080fd5b6140fe81111561249357600080fd5b60006e0100000000000000000000000000006dffffffffffffffffffffffffffff8560801c6fffffffffffffffffffffffffffffffff161617905061406f8210156124e7578161406f0381901c90506124fd565b61406f8211156124fc5761406f820381901b90505b5b80925050505b919050565b600080617fff60708560801c6fffffffffffffffffffffffffffffffff16901c166fffffffffffffffffffffffffffffffff1690506000617fff60708560801c6fffffffffffffffffffffffffffffffff16901c166fffffffffffffffffffffffffffffffff169050617fff82141561269f57617fff81141561262d57836fffffffffffffffffffffffffffffffff1916856fffffffffffffffffffffffffffffffff191614156125d4576f8000000000000000000000000000000060801b8416851892505050612997565b6f8000000000000000000000000000000060801b8486186fffffffffffffffffffffffffffffffff191614156126105783851792505050612997565b6f7fff800000000000000000000000000060801b92505050612997565b600060801b6f7fffffffffffffffffffffffffffffff60801b85166fffffffffffffffffffffffffffffffff1916141561267e576f7fff800000000000000000000000000060801b92505050612997565b6f8000000000000000000000000000000060801b8416851892505050612997565b617fff81141561271b57600060801b6f7fffffffffffffffffffffffffffffff60801b86166fffffffffffffffffffffffffffffffff191614156126fa576f7fff800000000000000000000000000060801b92505050612997565b6f8000000000000000000000000000000060801b8516841892505050612997565b60006dffffffffffffffffffffffffffff8660801c166fffffffffffffffffffffffffffffffff1690506000831415612757576001925061276c565b6e010000000000000000000000000000811790505b60006dffffffffffffffffffffffffffff8660801c166fffffffffffffffffffffffffffffffff16905060008314156127a857600192506127bd565b6e010000000000000000000000000000811790505b8082029150600082141561282a57600060801b6f8000000000000000000000000000000060801b878918166fffffffffffffffffffffffffffffffff19161161280a57600060801b61281f565b6f8000000000000000000000000000000060801b5b945050505050612997565b828401935060007c0200000000000000000000000000000000000000000000000000000000831015612891577c01000000000000000000000000000000000000000000000000000000008310156128895761288483612a30565b61288c565b60e05b612894565b60e15b905061407081860110156128af576000945060009250612957565b6140e081860110156128f3576140708510156128d457846140700383901c92506128ea565b6140708511156128e957614070850383901b92505b5b60009450612956565b61c0dd818601111561290d57617fff945060009250612955565b6070811115612924576070810383901c9250612938565b6070811015612937578060700383901b92505b5b6dffffffffffffffffffffffffffff831692506140df8186010394505b5b5b82607086901b6f8000000000000000000000000000000060801b898b181660801c6fffffffffffffffffffffffffffffffff16171760801b955050505050505b92915050565b8173ffffffffffffffffffffffffffffffffffffffff1663a9059cbb84836040518363ffffffff1660e01b81526004016129d892919061324b565b602060405180830381600087803b1580156129f257600080fd5b505af1158015612a06573d6000803e3d6000fd5b505050506040513d601f19601f82011682018060405250810190612a2a9190612e3b565b50505050565b6000808211612a3e57600080fd5b60007001000000000000000000000000000000008310612a6657608083901c92506080810190505b680100000000000000008310612a8457604083901c92506040810190505b6401000000008310612a9e57602083901c92506020810190505b620100008310612ab657601083901c92506010810190505b6101008310612acd57600883901c92506008810190505b60108310612ae357600483901c92506004810190505b60048310612af957600283901c92506002810190505b60028310612b08576001810190505b80915050919050565b6040518060600160405280600063ffffffff168152602001606081526020016000151581525090565b828054612b46906137b8565b90600052602060002090601f016020900481019282612b685760008555612baf565b82601f10612b8157805160ff1916838001178555612baf565b82800160010185558215612baf579182015b82811115612bae578251825591602001919060010190612b93565b5b509050612bbc9190612bc0565b5090565b5b80821115612bd9576000816000905550600101612bc1565b5090565b6000612bf0612beb84613413565b6133ee565b905082815260208101848484011115612c0c57612c0b613983565b5b612c17848285613776565b509392505050565b6000612c32612c2d84613413565b6133ee565b905082815260208101848484011115612c4e57612c4d613983565b5b612c59848285613785565b509392505050565b600081359050612c7081613b1e565b92915050565b600081519050612c8581613b35565b92915050565b600082601f830112612ca057612c9f61397e565b5b8135612cb0848260208601612bdd565b91505092915050565b600082601f830112612cce57612ccd61397e565b5b8151612cde848260208601612c1f565b91505092915050565b600081359050612cf681613b4c565b92915050565b600081519050612d0b81613b4c565b92915050565b600081359050612d2081613b63565b92915050565b600081519050612d3581613b7a565b92915050565b600060208284031215612d5157612d5061398d565b5b6000612d5f84828501612c61565b91505092915050565b60008060408385031215612d7f57612d7e61398d565b5b6000612d8d85828601612c61565b9250506020612d9e85828601612c61565b9150509250929050565b600080600060608486031215612dc157612dc061398d565b5b6000612dcf86828701612c61565b9350506020612de086828701612c61565b9250506040612df186828701612ce7565b9150509250925092565b60008060408385031215612e1257612e1161398d565b5b6000612e2085828601612c61565b9250506020612e3185828601612ce7565b9150509250929050565b600060208284031215612e5157612e5061398d565b5b6000612e5f84828501612c76565b91505092915050565b600060208284031215612e7e57612e7d61398d565b5b600082015167ffffffffffffffff811115612e9c57612e9b613988565b5b612ea884828501612cb9565b91505092915050565b600060208284031215612ec757612ec661398d565b5b6000612ed584828501612ce7565b91505092915050565b600060208284031215612ef457612ef361398d565b5b6000612f0284828501612cfc565b91505092915050565b60008060408385031215612f2257612f2161398d565b5b6000612f3085828601612ce7565b9250506020612f4185828601612ce7565b9150509250929050565b60008060408385031215612f6257612f6161398d565b5b6000612f7085828601612d11565b925050602083013567ffffffffffffffff811115612f9157612f90613988565b5b612f9d85828601612c8b565b9150509250929050565b600060208284031215612fbd57612fbc61398d565b5b6000612fcb84828501612d26565b91505092915050565b612fdd81613711565b82525050565b612fec81613723565b82525050565b612ffb81613723565b82525050565b600061300c82613444565b613016818561344f565b9350613026818560208601613785565b61302f81613992565b840191505092915050565b600061304582613444565b61304f8185613460565b935061305f818560208601613785565b61306881613992565b840191505092915050565b6000613080601183613460565b915061308b826139b0565b602082019050919050565b60006130a3600f83613460565b91506130ae826139d9565b602082019050919050565b60006130c6601b83613460565b91506130d182613a02565b602082019050919050565b60006130e9602283613460565b91506130f482613a2b565b604082019050919050565b600061310c601983613460565b915061311782613a7a565b602082019050919050565b600061312f601283613460565b915061313a82613aa3565b602082019050919050565b6000613152600e83613460565b915061315d82613acc565b602082019050919050565b6000613175601283613460565b915061318082613af5565b602082019050919050565b60006060830160008301516131a360008601826131ea565b50602083015184820360208601526131bb8282613001565b91505060408301516131d06040860182612fe3565b508091505092915050565b6131e48161374f565b82525050565b6131f381613759565b82525050565b600060208201905061320e6000830184612fd4565b92915050565b60006060820190506132296000830186612fd4565b6132366020830185612fd4565b61324360408301846131db565b949350505050565b60006040820190506132606000830185612fd4565b61326d60208301846131db565b9392505050565b60006020820190506132896000830184612ff2565b92915050565b600060208201905081810360008301526132a9818461303a565b905092915050565b600060208201905081810360008301526132ca81613073565b9050919050565b600060208201905081810360008301526132ea81613096565b9050919050565b6000602082019050818103600083015261330a816130b9565b9050919050565b6000602082019050818103600083015261332a816130dc565b9050919050565b6000602082019050818103600083015261334a816130ff565b9050919050565b6000602082019050818103600083015261336a81613122565b9050919050565b6000602082019050818103600083015261338a81613145565b9050919050565b600060208201905081810360008301526133aa81613168565b9050919050565b600060208201905081810360008301526133cb818461318b565b905092915050565b60006020820190506133e860008301846131db565b92915050565b60006133f8613409565b905061340482826137ea565b919050565b6000604051905090565b600067ffffffffffffffff82111561342e5761342d61394f565b5b61343782613992565b9050602081019050919050565b600081519050919050565b600082825260208201905092915050565b600082825260208201905092915050565b600061347c8261374f565b91506134878361374f565b9250827fffffffffffffffffffffffffffffffffffffffffffffffffffffffffffffffff038211156134bc576134bb613893565b5b828201905092915050565b6000808291508390505b6001851115613511578086048111156134ed576134ec613893565b5b60018516156134fc5780820291505b808102905061350a856139a3565b94506134d1565b94509492505050565b60006135258261374f565b91506135308361374f565b925061355d7fffffffffffffffffffffffffffffffffffffffffffffffffffffffffffffffff84846135b0565b905092915050565b60006135708261374f565b915061357b83613769565b92506135a87fffffffffffffffffffffffffffffffffffffffffffffffffffffffffffffffff84846135b0565b905092915050565b6000826135c0576001905061367c565b816135ce576000905061367c565b81600181146135e457600281146135ee5761361d565b600191505061367c565b60ff841115613600576135ff613893565b5b8360020a91508482111561361757613616613893565b5b5061367c565b5060208310610133831016604e8410600b84101617156136525782820a90508381111561364d5761364c613893565b5b61367c565b61365f84848460016134c7565b9250905081840481111561367657613675613893565b5b81810290505b9392505050565b600061368e8261374f565b91506136998361374f565b9250817fffffffffffffffffffffffffffffffffffffffffffffffffffffffffffffffff04831182151516156136d2576136d1613893565b5b828202905092915050565b60006136e88261374f565b91506136f38361374f565b92508282101561370657613705613893565b5b828203905092915050565b600061371c8261372f565b9050919050565b60008115159050919050565b600073ffffffffffffffffffffffffffffffffffffffff82169050919050565b6000819050919050565b600063ffffffff82169050919050565b600060ff82169050919050565b82818337600083830152505050565b60005b838110156137a3578082015181840152602081019050613788565b838111156137b2576000848401525b50505050565b600060028204905060018216806137d057607f821691505b602082108114156137e4576137e36138f1565b5b50919050565b6137f382613992565b810181811067ffffffffffffffff821117156138125761381161394f565b5b80604052505050565b60006138268261374f565b91507fffffffffffffffffffffffffffffffffffffffffffffffffffffffffffffffff82141561385957613858613893565b5b600182019050919050565b7f4e487b7100000000000000000000000000000000000000000000000000000000600052600160045260246000fd5b7f4e487b7100000000000000000000000000000000000000000000000000000000600052601160045260246000fd5b7f4e487b7100000000000000000000000000000000000000000000000000000000600052601260045260246000fd5b7f4e487b7100000000000000000000000000000000000000000000000000000000600052602260045260246000fd5b7f4e487b7100000000000000000000000000000000000000000000000000000000600052603260045260246000fd5b7f4e487b7100000000000000000000000000000000000000000000000000000000600052604160045260246000fd5b600080fd5b600080fd5b600080fd5b600080fd5b6000601f19601f8301169050919050565b60008160011c9050919050565b7f496e76616c6964204f7065726174696f6e000000000000000000000000000000600082015250565b7f436f6e7461206578697374656e74650000000000000000000000000000000000600082015250565b7f56616c6f7220696e7375666963656e7465207061726120737761700000000000600082015250565b7f41636573736f20726573747269746f206170656e617320706172612041646d6960008201527f6e21000000000000000000000000000000000000000000000000000000000000602082015250565b7f456e64657265636f20646120436f696e20496e76616c69646f00000000000000600082015250565b7f496e646578204f7574206f662052616e67650000000000000000000000000000600082015250565b7f436f6e7461206a6120646f616461000000000000000000000000000000000000600082015250565b7f456e64657265636f20496e76616c69646f210000000000000000000000000000600082015250565b613b2781613711565b8114613b3257600080fd5b50565b613b3e81613723565b8114613b4957600080fd5b50565b613b558161374f565b8114613b6057600080fd5b50565b613b6c81613759565b8114613b7757600080fd5b50565b613b8381613769565b8114613b8e57600080fd5b5056fea26469706673582212208cdc0e112931c2e3525c08c55faffe07e711c0b598ef5de7e9887fa51830d94f64736f6c63430008060033",
  "immutableReferences": {},
  "source": "// CdBy mand0mb3\n// SPDX-License-Identifier: MIT\n\npragma solidity ^0.8.4;\n\n//import \"https://github.com/OpenZeppelin/openzeppelin-contracts/blob/master/contracts/token/ERC1155/ERC1155.sol\";\nimport 'openzeppelin-solidity/contracts/token/ERC20/ERC20.sol';\nimport './ABDKMathQuad.sol';\nimport './Coin1.sol';\n\ncontract Swap{\n\n    address private owner;\n\n    struct Account{\n        uint32 id;\n        string name;\n        bool received;\n        //uint256 balance;\n    }\n\n    event TokensSwap(\n        address account,\n        uint id_from,\n        uint id_to,\n        uint amount,\n        uint rate\n    );\n\n    mapping(address=>Account) private proprietarios;\n    mapping(address=>uint256) private max;\n    mapping(address=>mapping(address=>uint256)) private rates;\n\n    address[] private coins;\n    address[] private students;\n    uint256 private price = 1*(uint256(10)**18);\n    uint256 constant fee = 10;\n\n    modifier onlyOwner(){\n        require(msg.sender==owner, \"Acesso restrito apenas para Admin!\");\n        _;\n    }\n    modifier onlyReal(){\n        require(msg.sender!=address(0), \"Endereco Invalido!\");\n        _;\n    }\n\n    constructor(){\n        owner = msg.sender;\n    }\n//OBS ADD EVENTS ON THE FUNCTIONS---------------->\n    function signUp(uint32 id_, string memory name_) public onlyReal returns(bool){\n        require(proprietarios[msg.sender].id==0,\"Conta existente\");\n        for (uint256 index = 0; index < students.length; index++) {\n            //if (proprietarios[students[index]].id == id_) return false;\n            require(proprietarios[msg.sender].id!=id_,\"Conta existente\");\n        }\n        /*for (uint256 index = 0; index < coins.length; index++) {\n            ERC20 temp = ERC20(coins[index]);\n            temp.approve(address(this),1000000*(uint256(10)**18));\n        }*/\n        students.push(msg.sender);\n        proprietarios[msg.sender]=Account({id:id_, name:name_, received:false});\n        return true;\n    } \n\n\n    function donateCoin(address student, uint256 amount) public onlyOwner returns(bool){\n        require(proprietarios[student].received==false, \"Conta ja doada\");\n        for (uint256 index = 0; index < coins.length; index++) {\n            ERC20 temp = ERC20(coins[index]);\n            temp.transferFrom(owner,student,amount*(uint256(10)**18));\n        }\n        proprietarios[student].received=true;\n        return true;\n    } \n\n    function addCoin(address coin) public returns(bool){\n        require(keccak256(bytes(ERC20(coin).name()))!=keccak256(bytes(\"\")), \"Endereco da Coin Invalido\");\n        for (uint256 index = 0; index < coins.length; index++) {\n            if (coin == coins[index]) return false;\n            /*for (uint256 index_ = index+1; index_ < coins.length; index_++) {\n                initPar(coins[index],coins[index_]);\n            }*/\n        }\n        coins.push(coin);\n        max[coin]=div(ERC20(coin).balanceOf(address(this)),10**ERC20(coin).decimals());\n        return true;\n    }\n\n    function priceCoin(address _coinFrom, address _coinTo) public view returns(uint256){\n        if (rates[_coinFrom][_coinTo]<=0) return 1*(uint256(10)**18);\n        return div(rates[_coinFrom][_coinTo],fee);//price +  price*(rates[_coinFrom][_coinTo]+div(max[_coinTo],uint256(10)**18));\n    }\n\n    function priceCoinAt(uint index_1, uint index_2) public view returns(uint256){\n        require(index_1<getCoinsLength(),\"Index Out of Range\");\n        require(index_2<getCoinsLength(),\"Index Out of Range\");\n        if (rates[coins[index_1]][coins[index_2]]<=0) return 1*(uint256(10)**18);\n        return div(rates[coins[index_1]][coins[index_2]],fee);\n    }\n    function getRate(address _coinFrom, address _coinTo) public view returns(uint256){\n        return rates[_coinFrom][_coinTo];\n    }\n    function getMax(address _coinFrom) public view returns(uint256){\n        return max[_coinFrom];\n    }\n    function getStudentsLength() public view returns(uint256){\n        return students.length;\n    }\n    function getCoinsLength() public view returns(uint256){\n        return coins.length;\n    }\n    function getStudent(uint256 index) public view returns(Account memory){\n        require(index<getStudentsLength(),\"Index Out of Range\");\n        return proprietarios[students[index]];\n    }\n    function getCoinSymbol(uint256 index) public view returns(string memory){\n        require(index<getCoinsLength(),\"Index Out of Range\");\n        return ERC20(coins[index]).symbol();\n    }\n    function approve(address _coinFrom, uint256 amount) public virtual returns(bool){\n        require(msg.sender!=address(this),\"Invalid Operation\");\n        ERC20 coinFrom_ = ERC20(_coinFrom);\n        return coinFrom_.increaseAllowance(address(this), amount*(10**uint256(coinFrom_.decimals())));\n    }\n    function balanceOf(address _coinFrom) public view onlyReal returns(uint256){\n        ERC20 coinFrom_ = ERC20(_coinFrom);\n        return coinFrom_.balanceOf(msg.sender);\n    }\n    function balanceOfAt(uint256 index_U, uint256 index_C) public view onlyReal returns(uint256){\n        require(index_C<getCoinsLength(),\"Index Out of Range\");\n        require(index_U<getStudentsLength(),\"Index Out of Range\");\n        ERC20 coinFrom_ = ERC20(coins[index_C]);\n        return coinFrom_.balanceOf(students[index_U]);\n    }\n\n    function swap(address _coinFrom, address _coinTo, uint256 amount) public returns(bool){\n        ERC20 coinFrom_ = ERC20(_coinFrom);\n        ERC20 coinTo_ = ERC20(_coinTo);\n\n        if (rates[_coinFrom][_coinTo]<=0) rates[_coinFrom][_coinTo]=1*(uint256(10)**18);\n        uint256 temp_ = 100 + div(rates[_coinFrom][_coinTo],fee);\n        require(amount>=temp_, \"Valor insuficente para swap\");\n        //uint256 temp_price = price +  price*div(rates[_coinFrom][_coinTo]*100,div(max[_coinTo],uint256(10)**_coinTo.decimals()));\n        //coinFrom_.approve(address(this), mul(amount,(uint256(10)**18)));\n        coinFrom_.transferFrom(msg.sender, address(this), amount);//mul(amount,(uint256(10)**18)));\n        sendCoin(msg.sender, coinTo_, div(amount,temp_));\n        //temp_ +=  div(/*mul(*/amount/*,(uint256(10)**18)) */,rates[_coinFrom][_coinTo]);\n        rates[_coinFrom][_coinTo] += div(amount,temp_);\n        if (rates[_coinTo][_coinFrom]> div(amount,temp_))\n            rates[_coinTo][_coinFrom] -= div(amount,temp_);\n\n        \n        return true;\n    }\n\n    function sendCoin(address target, ERC20 coinTo_, uint256 amount) internal virtual{\n        coinTo_.transfer(target, amount);\n    }\n\n    function initPar(address _coinFrom, address _coinTo) internal virtual{\n        if (rates[_coinFrom][_coinTo]<=0) rates[_coinFrom][_coinTo]=1*(uint256(10)**18);\n        if (rates[_coinTo][_coinFrom]<=0) rates[_coinTo][_coinFrom]=1*(uint256(10)**18);\n    }\n\n    function div(uint256 x, uint256 y) public pure returns(uint256){\n        return ABDKMathQuad.toUInt(\n            ABDKMathQuad.div(ABDKMathQuad.fromUInt(x),ABDKMathQuad.fromUInt(y))\n        );\n    }\n\n    function mul(uint256 x, uint256 y) public pure returns(uint256){\n        return ABDKMathQuad.toUInt(\n            ABDKMathQuad.mul(ABDKMathQuad.fromUInt(x),ABDKMathQuad.fromUInt(y))\n        );\n    }\n\n    function value(uint256 a) public pure returns (uint256) {\n        return mul(a ,(uint256(10)**10));\n    }\n\n}\n\n// Learn about automatic market to study formule to",
  "sourcePath": "/home/mandombe/Script/development/smart-contract/mkingdom/contracts/Swap.sol",
  "compiler": {
    "name": "solc",
    "version": "0.8.6+commit.11564f7e.Emscripten.clang"
  },
  "schemaVersion": "3.3.4",
  "updatedAt": "2021-07-19T18:09:22.629Z",
  "networkType": "ethereum",
  "devdoc": {
    "kind": "dev",
    "methods": {},
    "version": 1
  },
  "userdoc": {
    "kind": "user",
    "methods": {},
    "version": 1
  }
}