{
  "contractName": "Swap",
  "abi": [
    {
      "inputs": [],
      "stateMutability": "nonpayable",
      "type": "constructor"
    },
    {
      "anonymous": false,
      "inputs": [
        {
          "indexed": false,
          "internalType": "address",
          "name": "_coinFrom",
          "type": "address"
        },
        {
          "indexed": false,
          "internalType": "uint256",
          "name": "amount",
          "type": "uint256"
        }
      ],
      "name": "Approve",
      "type": "event"
    },
    {
      "anonymous": false,
      "inputs": [
        {
          "indexed": false,
          "internalType": "address",
          "name": "account",
          "type": "address"
        },
        {
          "indexed": false,
          "internalType": "address",
          "name": "id_from",
          "type": "address"
        },
        {
          "indexed": false,
          "internalType": "address",
          "name": "id_to",
          "type": "address"
        },
        {
          "indexed": false,
          "internalType": "uint256",
          "name": "amount",
          "type": "uint256"
        },
        {
          "indexed": false,
          "internalType": "uint256",
          "name": "rate",
          "type": "uint256"
        }
      ],
      "name": "TokensSwap",
      "type": "event"
    },
    {
      "inputs": [
        {
          "internalType": "uint32",
          "name": "id_",
          "type": "uint32"
        },
        {
          "internalType": "string",
          "name": "name_",
          "type": "string"
        }
      ],
      "name": "signUp",
      "outputs": [
        {
          "internalType": "bool",
          "name": "",
          "type": "bool"
        }
      ],
      "stateMutability": "nonpayable",
      "type": "function"
    },
    {
      "inputs": [
        {
          "internalType": "address",
          "name": "student",
          "type": "address"
        },
        {
          "internalType": "uint256",
          "name": "amount",
          "type": "uint256"
        }
      ],
      "name": "donateCoin",
      "outputs": [
        {
          "internalType": "bool",
          "name": "",
          "type": "bool"
        }
      ],
      "stateMutability": "nonpayable",
      "type": "function"
    },
    {
      "inputs": [
        {
          "internalType": "address",
          "name": "coin",
          "type": "address"
        }
      ],
      "name": "addCoin",
      "outputs": [
        {
          "internalType": "bool",
          "name": "",
          "type": "bool"
        }
      ],
      "stateMutability": "nonpayable",
      "type": "function"
    },
    {
      "inputs": [
        {
          "internalType": "address",
          "name": "_coinFrom",
          "type": "address"
        }
      ],
      "name": "getPercent",
      "outputs": [
        {
          "internalType": "uint256",
          "name": "",
          "type": "uint256"
        }
      ],
      "stateMutability": "view",
      "type": "function",
      "constant": true
    },
    {
      "inputs": [
        {
          "internalType": "address",
          "name": "_coinFrom",
          "type": "address"
        },
        {
          "internalType": "address",
          "name": "_coinTo",
          "type": "address"
        }
      ],
      "name": "priceCoin",
      "outputs": [
        {
          "internalType": "uint256",
          "name": "",
          "type": "uint256"
        }
      ],
      "stateMutability": "view",
      "type": "function",
      "constant": true
    },
    {
      "inputs": [
        {
          "internalType": "uint256",
          "name": "index_1",
          "type": "uint256"
        },
        {
          "internalType": "uint256",
          "name": "index_2",
          "type": "uint256"
        }
      ],
      "name": "priceCoinAt",
      "outputs": [
        {
          "internalType": "uint256",
          "name": "",
          "type": "uint256"
        }
      ],
      "stateMutability": "view",
      "type": "function",
      "constant": true
    },
    {
      "inputs": [
        {
          "internalType": "address",
          "name": "_coinFrom",
          "type": "address"
        },
        {
          "internalType": "address",
          "name": "_coinTo",
          "type": "address"
        }
      ],
      "name": "getRate",
      "outputs": [
        {
          "internalType": "uint256",
          "name": "",
          "type": "uint256"
        }
      ],
      "stateMutability": "view",
      "type": "function",
      "constant": true
    },
    {
      "inputs": [
        {
          "internalType": "address",
          "name": "_coinFrom",
          "type": "address"
        }
      ],
      "name": "getMax",
      "outputs": [
        {
          "internalType": "uint256",
          "name": "",
          "type": "uint256"
        }
      ],
      "stateMutability": "view",
      "type": "function",
      "constant": true
    },
    {
      "inputs": [],
      "name": "getStudentsLength",
      "outputs": [
        {
          "internalType": "uint256",
          "name": "",
          "type": "uint256"
        }
      ],
      "stateMutability": "view",
      "type": "function",
      "constant": true
    },
    {
      "inputs": [],
      "name": "getCoinsLength",
      "outputs": [
        {
          "internalType": "uint256",
          "name": "",
          "type": "uint256"
        }
      ],
      "stateMutability": "view",
      "type": "function",
      "constant": true
    },
    {
      "inputs": [
        {
          "internalType": "uint256",
          "name": "index",
          "type": "uint256"
        }
      ],
      "name": "getStudent",
      "outputs": [
        {
          "components": [
            {
              "internalType": "uint32",
              "name": "id",
              "type": "uint32"
            },
            {
              "internalType": "string",
              "name": "name",
              "type": "string"
            },
            {
              "internalType": "bool",
              "name": "received",
              "type": "bool"
            }
          ],
          "internalType": "struct Swap.Account",
          "name": "",
          "type": "tuple"
        }
      ],
      "stateMutability": "view",
      "type": "function",
      "constant": true
    },
    {
      "inputs": [
        {
          "internalType": "uint256",
          "name": "index",
          "type": "uint256"
        }
      ],
      "name": "getCoinSymbol",
      "outputs": [
        {
          "internalType": "string",
          "name": "",
          "type": "string"
        }
      ],
      "stateMutability": "view",
      "type": "function",
      "constant": true
    },
    {
      "inputs": [
        {
          "internalType": "address",
          "name": "_coinFrom",
          "type": "address"
        },
        {
          "internalType": "uint256",
          "name": "amount",
          "type": "uint256"
        }
      ],
      "name": "approve",
      "outputs": [],
      "stateMutability": "nonpayable",
      "type": "function"
    },
    {
      "inputs": [
        {
          "internalType": "uint256",
          "name": "_coinFrom",
          "type": "uint256"
        },
        {
          "internalType": "uint256",
          "name": "amount",
          "type": "uint256"
        }
      ],
      "name": "approveAt",
      "outputs": [],
      "stateMutability": "nonpayable",
      "type": "function"
    },
    {
      "inputs": [
        {
          "internalType": "address",
          "name": "_coinFrom",
          "type": "address"
        }
      ],
      "name": "balanceOf",
      "outputs": [
        {
          "internalType": "uint256",
          "name": "",
          "type": "uint256"
        }
      ],
      "stateMutability": "view",
      "type": "function",
      "constant": true
    },
    {
      "inputs": [
        {
          "internalType": "uint256",
          "name": "index_U",
          "type": "uint256"
        },
        {
          "internalType": "uint256",
          "name": "index_C",
          "type": "uint256"
        }
      ],
      "name": "balanceOfAt",
      "outputs": [
        {
          "internalType": "uint256",
          "name": "",
          "type": "uint256"
        }
      ],
      "stateMutability": "view",
      "type": "function",
      "constant": true
    },
    {
      "inputs": [
        {
          "internalType": "address",
          "name": "_coinFrom",
          "type": "address"
        },
        {
          "internalType": "address",
          "name": "_coinTo",
          "type": "address"
        },
        {
          "internalType": "uint256",
          "name": "amount",
          "type": "uint256"
        }
      ],
      "name": "swap",
      "outputs": [
        {
          "internalType": "bool",
          "name": "",
          "type": "bool"
        }
      ],
      "stateMutability": "nonpayable",
      "type": "function"
    },
    {
      "inputs": [
        {
          "internalType": "uint256",
          "name": "x",
          "type": "uint256"
        },
        {
          "internalType": "uint256",
          "name": "y",
          "type": "uint256"
        }
      ],
      "name": "div",
      "outputs": [
        {
          "internalType": "uint256",
          "name": "",
          "type": "uint256"
        }
      ],
      "stateMutability": "pure",
      "type": "function",
      "constant": true
    },
    {
      "inputs": [
        {
          "internalType": "uint256",
          "name": "x",
          "type": "uint256"
        },
        {
          "internalType": "uint256",
          "name": "y",
          "type": "uint256"
        }
      ],
      "name": "mul",
      "outputs": [
        {
          "internalType": "uint256",
          "name": "",
          "type": "uint256"
        }
      ],
      "stateMutability": "pure",
      "type": "function",
      "constant": true
    },
    {
      "inputs": [
        {
          "internalType": "uint256",
          "name": "a",
          "type": "uint256"
        }
      ],
      "name": "value",
      "outputs": [
        {
          "internalType": "uint256",
          "name": "",
          "type": "uint256"
        }
      ],
      "stateMutability": "pure",
      "type": "function",
      "constant": true
    }
  ],
  "bytecode": "0x60806040526012600a620000149190620000d4565b600162000022919062000211565b6007553480156200003257600080fd5b50336000806101000a81548173ffffffffffffffffffffffffffffffffffffffff021916908373ffffffffffffffffffffffffffffffffffffffff160217905550620002c5565b6000808291508390505b6001851115620000cb57808604811115620000a357620000a262000289565b5b6001851615620000b35780820291505b8081029050620000c385620002b8565b945062000083565b94509492505050565b6000620000e18262000272565b9150620000ee836200027c565b92506200011d7fffffffffffffffffffffffffffffffffffffffffffffffffffffffffffffffff848462000125565b905092915050565b6000826200013757600190506200020a565b816200014757600090506200020a565b81600181146200016057600281146200016b57620001a1565b60019150506200020a565b60ff84111562000180576200017f62000289565b5b8360020a9150848211156200019a576200019962000289565b5b506200020a565b5060208310610133831016604e8410600b8410161715620001db5782820a905083811115620001d557620001d462000289565b5b6200020a565b620001ea848484600162000079565b9250905081840481111562000204576200020362000289565b5b81810290505b9392505050565b60006200021e8262000272565b91506200022b8362000272565b9250817fffffffffffffffffffffffffffffffffffffffffffffffffffffffffffffffff048311821515161562000267576200026662000289565b5b828202905092915050565b6000819050919050565b600060ff82169050919050565b7f4e487b7100000000000000000000000000000000000000000000000000000000600052601160045260246000fd5b60008160011c9050919050565b61488380620002d56000396000f3fe608060405234801561001057600080fd5b506004361061012b5760003560e01c8063a391c15b116100ad578063d630020111610071578063d6300201146103b4578063df791e50146103e4578063e659fd3214610414578063f69f188914610444578063fe9ec6b6146104745761012b565b8063a391c15b146102e8578063b807be3814610318578063bbc975cc14610336578063c5a46ee614610354578063c8a4ac9c146103845761012b565b80633fe14d90116100f45780633fe14d90146101f8578063642f91631461022857806369284f5b1461025857806370a0823114610288578063853c8aeb146102b85761012b565b8062d79cf314610130578063095ea7b31461014c57806316da863214610168578063379b87ea1461019857806339e62c46146101c8575b600080fd5b61014a60048036038101906101459190613a6b565b6104a4565b005b6101666004803603810190610161919061395b565b61069b565b005b610182600480360381019061017d919061389b565b61080b565b60405161018f9190613e6d565b60405180910390f35b6101b260048036038101906101ad91906138c8565b610c26565b6040516101bf919061400c565b60405180910390f35b6101e260048036038101906101dd9190613a11565b610cad565b6040516101ef9190613e88565b60405180910390f35b610212600480360381019061020d9190613a6b565b610dc0565b60405161021f919061400c565b60405180910390f35b610242600480360381019061023d9190613a11565b61115a565b60405161024f9190613fea565b60405180910390f35b610272600480360381019061026d9190613aab565b61130d565b60405161027f9190613e6d565b60405180910390f35b6102a2600480360381019061029d919061389b565b611826565b6040516102af919061400c565b60405180910390f35b6102d260048036038101906102cd9190613a6b565b61192d565b6040516102df919061400c565b60405180910390f35b61030260048036038101906102fd9190613a6b565b611b43565b60405161030f919061400c565b60405180910390f35b610320611b6f565b60405161032d919061400c565b60405180910390f35b61033e611b7c565b60405161034b919061400c565b60405180910390f35b61036e60048036038101906103699190613a11565b611b89565b60405161037b919061400c565b60405180910390f35b61039e60048036038101906103999190613a6b565b611ba8565b6040516103ab919061400c565b60405180910390f35b6103ce60048036038101906103c9919061389b565b611bd4565b6040516103db919061400c565b60405180910390f35b6103fe60048036038101906103f99190613908565b611e7b565b60405161040b9190613e6d565b60405180910390f35b61042e6004803603810190610429919061395b565b612357565b60405161043b9190613e6d565b60405180910390f35b61045e6004803603810190610459919061389b565b612612565b60405161046b919061400c565b60405180910390f35b61048e600480360381019061048991906138c8565b61265b565b60405161049b919061400c565b60405180910390f35b6104ac611b7c565b82106104ed576040517f08c379a00000000000000000000000000000000000000000000000000000000081526004016104e490613f8a565b60405180910390fd5b3073ffffffffffffffffffffffffffffffffffffffff163373ffffffffffffffffffffffffffffffffffffffff16141561055c576040517f08c379a000000000000000000000000000000000000000000000000000000000815260040161055390613eaa565b60405180910390fd5b6000600583815481106105725761057161458a565b5b9060005260206000200160009054906101000a900473ffffffffffffffffffffffffffffffffffffffff1690508073ffffffffffffffffffffffffffffffffffffffff166339509351306012600a6105ca9190614184565b856105d591906142ed565b6040518363ffffffff1660e01b81526004016105f2929190613e44565b602060405180830381600087803b15801561060c57600080fd5b505af1158015610620573d6000803e3d6000fd5b505050506040513d601f19601f82011682018060405250810190610644919061399b565b507f90ec57f18fa7b15c6b8d5e4d1deb90796c74b2ff23d4d0cecad0cb42a96b3128306012600a6106759190614184565b8461068091906142ed565b60405161068e929190613e44565b60405180910390a1505050565b3073ffffffffffffffffffffffffffffffffffffffff163373ffffffffffffffffffffffffffffffffffffffff16141561070a576040517f08c379a000000000000000000000000000000000000000000000000000000000815260040161070190613eaa565b60405180910390fd5b60008290508073ffffffffffffffffffffffffffffffffffffffff166339509351306012600a61073a9190614184565b8561074591906142ed565b6040518363ffffffff1660e01b8152600401610762929190613e44565b602060405180830381600087803b15801561077c57600080fd5b505af1158015610790573d6000803e3d6000fd5b505050506040513d601f19601f820116820180604052508101906107b4919061399b565b507f90ec57f18fa7b15c6b8d5e4d1deb90796c74b2ff23d4d0cecad0cb42a96b3128306012600a6107e59190614184565b846107f091906142ed565b6040516107fe929190613e44565b60405180910390a1505050565b600060405180602001604052806000815250805190602001208273ffffffffffffffffffffffffffffffffffffffff166306fdde036040518163ffffffff1660e01b815260040160006040518083038186803b15801561086a57600080fd5b505afa15801561087e573d6000803e3d6000fd5b505050506040513d6000823e3d601f19601f820116820180604052508101906108a791906139c8565b8051906020012014156108ef576040517f08c379a00000000000000000000000000000000000000000000000000000000081526004016108e690613f4a565b60405180910390fd5b60005b60058054905081101561098e57600581815481106109135761091261458a565b5b9060005260206000200160009054906101000a900473ffffffffffffffffffffffffffffffffffffffff1673ffffffffffffffffffffffffffffffffffffffff168373ffffffffffffffffffffffffffffffffffffffff16141561097b576000915050610c21565b808061098690614485565b9150506108f2565b506005829080600181540180825580915050600190039060005260206000200160009091909190916101000a81548173ffffffffffffffffffffffffffffffffffffffff021916908373ffffffffffffffffffffffffffffffffffffffff160217905550610b0d8273ffffffffffffffffffffffffffffffffffffffff166370a08231306040518263ffffffff1660e01b8152600401610a2e9190613d9f565b60206040518083038186803b158015610a4657600080fd5b505afa158015610a5a573d6000803e3d6000fd5b505050506040513d601f19601f82011682018060405250810190610a7e9190613a3e565b8373ffffffffffffffffffffffffffffffffffffffff1663313ce5676040518163ffffffff1660e01b815260040160206040518083038186803b158015610ac457600080fd5b505afa158015610ad8573d6000803e3d6000fd5b505050506040513d601f19601f82011682018060405250810190610afc9190613b07565b600a610b0891906141cf565b611b43565b600260008473ffffffffffffffffffffffffffffffffffffffff1673ffffffffffffffffffffffffffffffffffffffff168152602001908152602001600020819055508173ffffffffffffffffffffffffffffffffffffffff166370a08231306040518263ffffffff1660e01b8152600401610b899190613d9f565b60206040518083038186803b158015610ba157600080fd5b505afa158015610bb5573d6000803e3d6000fd5b505050506040513d601f19601f82011682018060405250810190610bd99190613a3e565b600360008473ffffffffffffffffffffffffffffffffffffffff1673ffffffffffffffffffffffffffffffffffffffff16815260200190815260200160002081905550600190505b919050565b6000600460008473ffffffffffffffffffffffffffffffffffffffff1673ffffffffffffffffffffffffffffffffffffffff16815260200190815260200160002060008373ffffffffffffffffffffffffffffffffffffffff1673ffffffffffffffffffffffffffffffffffffffff16815260200190815260200160002054905092915050565b6060610cb7611b7c565b8210610cf8576040517f08c379a0000000000000000000000000000000000000000000000000000000008152600401610cef90613f8a565b60405180910390fd5b60058281548110610d0c57610d0b61458a565b5b9060005260206000200160009054906101000a900473ffffffffffffffffffffffffffffffffffffffff1673ffffffffffffffffffffffffffffffffffffffff166395d89b416040518163ffffffff1660e01b815260040160006040518083038186803b158015610d7c57600080fd5b505afa158015610d90573d6000803e3d6000fd5b505050506040513d6000823e3d601f19601f82011682018060405250810190610db991906139c8565b9050919050565b6000610dca611b7c565b8310610e0b576040517f08c379a0000000000000000000000000000000000000000000000000000000008152600401610e0290613f8a565b60405180910390fd5b610e13611b7c565b8210610e54576040517f08c379a0000000000000000000000000000000000000000000000000000000008152600401610e4b90613f8a565b60405180910390fd5b60006004600060058681548110610e6e57610e6d61458a565b5b9060005260206000200160009054906101000a900473ffffffffffffffffffffffffffffffffffffffff1673ffffffffffffffffffffffffffffffffffffffff1673ffffffffffffffffffffffffffffffffffffffff168152602001908152602001600020600060058581548110610ee957610ee861458a565b5b9060005260206000200160009054906101000a900473ffffffffffffffffffffffffffffffffffffffff1673ffffffffffffffffffffffffffffffffffffffff1673ffffffffffffffffffffffffffffffffffffffff16815260200190815260200160002054905060008111610f7b576012600a610f6791906141cf565b6001610f7391906142ed565b915050611154565b6000610fc460058581548110610f9457610f9361458a565b5b9060005260206000200160009054906101000a900473ffffffffffffffffffffffffffffffffffffffff16611bd4565b9050600060058581548110610fdc57610fdb61458a565b5b9060005260206000200160009054906101000a900473ffffffffffffffffffffffffffffffffffffffff1690508073ffffffffffffffffffffffffffffffffffffffff166370a08231306040518263ffffffff1660e01b81526004016110429190613d9f565b60206040518083038186803b15801561105a57600080fd5b505afa15801561106e573d6000803e3d6000fd5b505050506040513d601f19601f820116820180604052508101906110929190613a3e565b60036000600588815481106110aa576110a961458a565b5b9060005260206000200160009054906101000a900473ffffffffffffffffffffffffffffffffffffffff1673ffffffffffffffffffffffffffffffffffffffff1673ffffffffffffffffffffffffffffffffffffffff16815260200190815260200160002054111561113757818361112291906142ed565b8361112d91906140aa565b9350505050611154565b818361114391906142ed565b8361114e9190614347565b93505050505b92915050565b611162613671565b61116a611b6f565b82106111ab576040517f08c379a00000000000000000000000000000000000000000000000000000000081526004016111a290613f8a565b60405180910390fd5b60016000600684815481106111c3576111c261458a565b5b9060005260206000200160009054906101000a900473ffffffffffffffffffffffffffffffffffffffff1673ffffffffffffffffffffffffffffffffffffffff1673ffffffffffffffffffffffffffffffffffffffff1681526020019081526020016000206040518060600160405290816000820160009054906101000a900463ffffffff1663ffffffff1663ffffffff16815260200160018201805461126990614422565b80601f016020809104026020016040519081016040528092919081815260200182805461129590614422565b80156112e25780601f106112b7576101008083540402835291602001916112e2565b820191906000526020600020905b8154815290600101906020018083116112c557829003601f168201915b505050505081526020016002820160009054906101000a900460ff1615151515815250509050919050565b60008073ffffffffffffffffffffffffffffffffffffffff163373ffffffffffffffffffffffffffffffffffffffff16141561137e576040517f08c379a000000000000000000000000000000000000000000000000000000000815260040161137590613fca565b60405180910390fd5b6000600160003373ffffffffffffffffffffffffffffffffffffffff1673ffffffffffffffffffffffffffffffffffffffff16815260200190815260200160002060000160009054906101000a900463ffffffff1663ffffffff1614611419576040517f08c379a000000000000000000000000000000000000000000000000000000000815260040161141090613eca565b60405180910390fd5b8263ffffffff16600160003373ffffffffffffffffffffffffffffffffffffffff1673ffffffffffffffffffffffffffffffffffffffff16815260200190815260200160002060000160009054906101000a900463ffffffff1663ffffffff1614156114ba576040517f08c379a00000000000000000000000000000000000000000000000000000000081526004016114b190613f0a565b60405180910390fd5b60005b6006805490508110156115bc578363ffffffff1660016000600684815481106114e9576114e861458a565b5b9060005260206000200160009054906101000a900473ffffffffffffffffffffffffffffffffffffffff1673ffffffffffffffffffffffffffffffffffffffff1673ffffffffffffffffffffffffffffffffffffffff16815260200190815260200160002060000160009054906101000a900463ffffffff1663ffffffff1614156115a9576040517f08c379a00000000000000000000000000000000000000000000000000000000081526004016115a090613f6a565b60405180910390fd5b80806115b490614485565b9150506114bd565b5060005b6005805490508110156116ee576000600582815481106115e3576115e261458a565b5b9060005260206000200160009054906101000a900473ffffffffffffffffffffffffffffffffffffffff1690508073ffffffffffffffffffffffffffffffffffffffff166323b872dd60008054906101000a900473ffffffffffffffffffffffffffffffffffffffff16336012600a61165c91906141cf565b6107d061166991906142ed565b6040518463ffffffff1660e01b815260040161168793929190613e0d565b602060405180830381600087803b1580156116a157600080fd5b505af11580156116b5573d6000803e3d6000fd5b505050506040513d601f19601f820116820180604052508101906116d9919061399b565b505080806116e690614485565b9150506115c0565b506006339080600181540180825580915050600190039060005260206000200160009091909190916101000a81548173ffffffffffffffffffffffffffffffffffffffff021916908373ffffffffffffffffffffffffffffffffffffffff16021790555060405180606001604052808463ffffffff16815260200183815260200160011515815250600160003373ffffffffffffffffffffffffffffffffffffffff1673ffffffffffffffffffffffffffffffffffffffff16815260200190815260200160002060008201518160000160006101000a81548163ffffffff021916908363ffffffff16021790555060208201518160010190805190602001906117f892919061369a565b5060408201518160020160006101000a81548160ff0219169083151502179055509050506001905092915050565b60008073ffffffffffffffffffffffffffffffffffffffff163373ffffffffffffffffffffffffffffffffffffffff161415611897576040517f08c379a000000000000000000000000000000000000000000000000000000000815260040161188e90613fca565b60405180910390fd5b60008290508073ffffffffffffffffffffffffffffffffffffffff166370a08231336040518263ffffffff1660e01b81526004016118d59190613d9f565b60206040518083038186803b1580156118ed57600080fd5b505afa158015611901573d6000803e3d6000fd5b505050506040513d601f19601f820116820180604052508101906119259190613a3e565b915050919050565b60008073ffffffffffffffffffffffffffffffffffffffff163373ffffffffffffffffffffffffffffffffffffffff16141561199e576040517f08c379a000000000000000000000000000000000000000000000000000000000815260040161199590613fca565b60405180910390fd5b6119a6611b7c565b82106119e7576040517f08c379a00000000000000000000000000000000000000000000000000000000081526004016119de90613f8a565b60405180910390fd5b6119ef611b6f565b8310611a30576040517f08c379a0000000000000000000000000000000000000000000000000000000008152600401611a2790613f8a565b60405180910390fd5b600060058381548110611a4657611a4561458a565b5b9060005260206000200160009054906101000a900473ffffffffffffffffffffffffffffffffffffffff1690508073ffffffffffffffffffffffffffffffffffffffff166370a0823160068681548110611aa357611aa261458a565b5b9060005260206000200160009054906101000a900473ffffffffffffffffffffffffffffffffffffffff166040518263ffffffff1660e01b8152600401611aea9190613d9f565b60206040518083038186803b158015611b0257600080fd5b505afa158015611b16573d6000803e3d6000fd5b505050506040513d601f19601f82011682018060405250810190611b3a9190613a3e565b91505092915050565b6000611b67611b62611b5485612a23565b611b5d85612a23565b612aa1565b612f6a565b905092915050565b6000600680549050905090565b6000600580549050905090565b6000611ba182600a80611b9c91906141cf565b611ba8565b9050919050565b6000611bcc611bc7611bb985612a23565b611bc285612a23565b613068565b612f6a565b905092915050565b6000808290506000806000600360008773ffffffffffffffffffffffffffffffffffffffff1673ffffffffffffffffffffffffffffffffffffffff16815260200190815260200160002054905060008473ffffffffffffffffffffffffffffffffffffffff166370a08231306040518263ffffffff1660e01b8152600401611c5c9190613d9f565b60206040518083038186803b158015611c7457600080fd5b505afa158015611c88573d6000803e3d6000fd5b505050506040513d601f19601f82011682018060405250810190611cac9190613a3e565b90508473ffffffffffffffffffffffffffffffffffffffff166370a08231306040518263ffffffff1660e01b8152600401611ce79190613d9f565b60206040518083038186803b158015611cff57600080fd5b505afa158015611d13573d6000803e3d6000fd5b505050506040513d601f19601f82011682018060405250810190611d379190613a3e565b600360008973ffffffffffffffffffffffffffffffffffffffff1673ffffffffffffffffffffffffffffffffffffffff168152602001908152602001600020541115611dc757600360008873ffffffffffffffffffffffffffffffffffffffff1673ffffffffffffffffffffffffffffffffffffffff168152602001908152602001600020549350809250611e0d565b809350600360008873ffffffffffffffffffffffffffffffffffffffff1673ffffffffffffffffffffffffffffffffffffffff1681526020019081526020016000205492505b600360008873ffffffffffffffffffffffffffffffffffffffff1673ffffffffffffffffffffffffffffffffffffffff1681526020019081526020016000205460648486611e5b9190614347565b611e6591906142ed565b611e6f9190614100565b95505050505050919050565b60008084905060008490506000600460008873ffffffffffffffffffffffffffffffffffffffff1673ffffffffffffffffffffffffffffffffffffffff16815260200190815260200160002060008773ffffffffffffffffffffffffffffffffffffffff1673ffffffffffffffffffffffffffffffffffffffff1681526020019081526020016000205411611fa5576012600a611f1891906141cf565b6001611f2491906142ed565b600460008873ffffffffffffffffffffffffffffffffffffffff1673ffffffffffffffffffffffffffffffffffffffff16815260200190815260200160002060008773ffffffffffffffffffffffffffffffffffffffff1673ffffffffffffffffffffffffffffffffffffffff168152602001908152602001600020819055505b6000600460008773ffffffffffffffffffffffffffffffffffffffff1673ffffffffffffffffffffffffffffffffffffffff16815260200190815260200160002060008873ffffffffffffffffffffffffffffffffffffffff1673ffffffffffffffffffffffffffffffffffffffff16815260200190815260200160002054116120c4576012600a61203791906141cf565b600161204391906142ed565b600460008773ffffffffffffffffffffffffffffffffffffffff1673ffffffffffffffffffffffffffffffffffffffff16815260200190815260200160002060008873ffffffffffffffffffffffffffffffffffffffff1673ffffffffffffffffffffffffffffffffffffffff168152602001908152602001600020819055505b60006120d0878761265b565b905080851015612115576040517f08c379a000000000000000000000000000000000000000000000000000000000815260040161210c90613eea565b60405180910390fd5b60006121438661213e846012600a61212d91906141cf565b600161213991906142ed565b611b43565b611b43565b90508373ffffffffffffffffffffffffffffffffffffffff166323b872dd3330896040518463ffffffff1660e01b815260040161218293929190613e0d565b602060405180830381600087803b15801561219c57600080fd5b505af11580156121b0573d6000803e3d6000fd5b505050506040513d601f19601f820116820180604052508101906121d4919061399b565b506121e03384836134fd565b6121ea888861265b565b600460008a73ffffffffffffffffffffffffffffffffffffffff1673ffffffffffffffffffffffffffffffffffffffff16815260200190815260200160002060008973ffffffffffffffffffffffffffffffffffffffff1673ffffffffffffffffffffffffffffffffffffffff16815260200190815260200160002081905550612274878961265b565b600460008973ffffffffffffffffffffffffffffffffffffffff1673ffffffffffffffffffffffffffffffffffffffff16815260200190815260200160002060008a73ffffffffffffffffffffffffffffffffffffffff1673ffffffffffffffffffffffffffffffffffffffff168152602001908152602001600020819055507fb06a6d3ebb85103fd7d0cc0f5ce6d6f68354b0bdfcce4e8bd6e3ad37c72d814e338989896010600a61232791906141cf565b602261233391906142ed565b604051612344959493929190613dba565b60405180910390a1505050509392505050565b60008060009054906101000a900473ffffffffffffffffffffffffffffffffffffffff1673ffffffffffffffffffffffffffffffffffffffff163373ffffffffffffffffffffffffffffffffffffffff16146123e8576040517f08c379a00000000000000000000000000000000000000000000000000000000081526004016123df90613f2a565b60405180910390fd5b60001515600160008573ffffffffffffffffffffffffffffffffffffffff1673ffffffffffffffffffffffffffffffffffffffff16815260200190815260200160002060020160009054906101000a900460ff1615151461247e576040517f08c379a000000000000000000000000000000000000000000000000000000000815260040161247590613faa565b60405180910390fd5b60005b6005805490508110156125ad576000600582815481106124a4576124a361458a565b5b9060005260206000200160009054906101000a900473ffffffffffffffffffffffffffffffffffffffff1690508073ffffffffffffffffffffffffffffffffffffffff166323b872dd60008054906101000a900473ffffffffffffffffffffffffffffffffffffffff16876012600a61251d91906141cf565b8861252891906142ed565b6040518463ffffffff1660e01b815260040161254693929190613e0d565b602060405180830381600087803b15801561256057600080fd5b505af1158015612574573d6000803e3d6000fd5b505050506040513d601f19601f82011682018060405250810190612598919061399b565b505080806125a590614485565b915050612481565b5060018060008573ffffffffffffffffffffffffffffffffffffffff1673ffffffffffffffffffffffffffffffffffffffff16815260200190815260200160002060020160006101000a81548160ff0219169083151502179055506001905092915050565b6000600260008373ffffffffffffffffffffffffffffffffffffffff1673ffffffffffffffffffffffffffffffffffffffff168152602001908152602001600020549050919050565b600080600460008573ffffffffffffffffffffffffffffffffffffffff1673ffffffffffffffffffffffffffffffffffffffff16815260200190815260200160002060008473ffffffffffffffffffffffffffffffffffffffff1673ffffffffffffffffffffffffffffffffffffffff1681526020019081526020016000205411612701576012600a6126ee91906141cf565b60016126fa91906142ed565b9050612a1d565b60008290506000600360008573ffffffffffffffffffffffffffffffffffffffff1673ffffffffffffffffffffffffffffffffffffffff16815260200190815260200160002054905060008273ffffffffffffffffffffffffffffffffffffffff166370a08231306040518263ffffffff1660e01b81526004016127859190613d9f565b60206040518083038186803b15801561279d57600080fd5b505afa1580156127b1573d6000803e3d6000fd5b505050506040513d601f19601f820116820180604052508101906127d59190613a3e565b905080821115612900576127e885611bd4565b600460008873ffffffffffffffffffffffffffffffffffffffff1673ffffffffffffffffffffffffffffffffffffffff16815260200190815260200160002060008773ffffffffffffffffffffffffffffffffffffffff1673ffffffffffffffffffffffffffffffffffffffff1681526020019081526020016000205461286f91906142ed565b600460008873ffffffffffffffffffffffffffffffffffffffff1673ffffffffffffffffffffffffffffffffffffffff16815260200190815260200160002060008773ffffffffffffffffffffffffffffffffffffffff1673ffffffffffffffffffffffffffffffffffffffff168152602001908152602001600020546128f691906140aa565b9350505050612a1d565b61290985611bd4565b600460008873ffffffffffffffffffffffffffffffffffffffff1673ffffffffffffffffffffffffffffffffffffffff16815260200190815260200160002060008773ffffffffffffffffffffffffffffffffffffffff1673ffffffffffffffffffffffffffffffffffffffff1681526020019081526020016000205461299091906142ed565b600460008873ffffffffffffffffffffffffffffffffffffffff1673ffffffffffffffffffffffffffffffffffffffff16815260200190815260200160002060008773ffffffffffffffffffffffffffffffffffffffff1673ffffffffffffffffffffffffffffffffffffffff16815260200190815260200160002054612a179190614347565b93505050505b92915050565b600080821415612a3957600060801b9050612a9c565b60008290506000612a4982613590565b90506070811015612a62578060700382901b9150612a76565b6070811115612a75576070810382901c91505b5b607081613fff01901b6dffffffffffffffffffffffffffff83161791508160801b925050505b919050565b600080617fff60708560801c6fffffffffffffffffffffffffffffffff16901c166fffffffffffffffffffffffffffffffff1690506000617fff60708560801c6fffffffffffffffffffffffffffffffff16901c166fffffffffffffffffffffffffffffffff169050617fff821415612b5c57617fff811415612b3b576f7fff800000000000000000000000000060801b92505050612f64565b6f8000000000000000000000000000000060801b8416851892505050612f64565b617fff811415612bdb57600060801b6dffffffffffffffffffffffffffff60801b85166fffffffffffffffffffffffffffffffff191614612bb4576f7fff800000000000000000000000000060801b92505050612f64565b6f8000000000000000000000000000000060801b84861816600060801b1792505050612f64565b600060801b6f7fffffffffffffffffffffffffffffff60801b85166fffffffffffffffffffffffffffffffff19161415612c9657600060801b6f7fffffffffffffffffffffffffffffff60801b86166fffffffffffffffffffffffffffffffff19161415612c60576f7fff800000000000000000000000000060801b92505050612f64565b6f8000000000000000000000000000000060801b848618166f7fff000000000000000000000000000060801b1792505050612f64565b60006dffffffffffffffffffffffffffff8560801c166fffffffffffffffffffffffffffffffff1690506000821415612cd25760019150612ce7565b6e010000000000000000000000000000811790505b60006dffffffffffffffffffffffffffff8760801c166fffffffffffffffffffffffffffffffff1690506000841415612d4b5760008114612d46576000612d2d82613590565b60e20390508082901b9150600194506072810384019350505b612d64565b60726e0100000000000000000000000000008217901b90505b818181612d7457612d7361452c565b5b0490506000811415612ddf57600060801b6f8000000000000000000000000000000060801b878918166fffffffffffffffffffffffffffffffff191611612dbf57600060801b612dd4565b6f8000000000000000000000000000000060801b5b945050505050612f64565b6d1000000000000000000000000000811015612dfe57612dfd6144ce565b5b60006e080000000000000000000000000000821015612e5f576e040000000000000000000000000000821015612e54576e020000000000000000000000000000821015612e4c576070612e4f565b60715b612e57565b60725b60ff16612e69565b612e6882613590565b5b905061407184018186011115612e8757617fff945060009150612f24565b83613ffc828701011015612ea2576000945060009150612f23565b83613f8c828701011015612ef05783613ffc86011115612ecd5783613ffc86010382901b9150612ee7565b83613ffc86011015612ee657613ffc8585030382901c91505b5b60009450612f22565b6070811115612f03576070810382901c91505b6dffffffffffffffffffffffffffff8216915083613f8d828701010394505b5b5b81607086901b6f8000000000000000000000000000000060801b898b181660801c6fffffffffffffffffffffffffffffffff16171760801b955050505050505b92915050565b600080617fff60708460801c6fffffffffffffffffffffffffffffffff16901c166fffffffffffffffffffffffffffffffff169050613fff811015612fb3576000915050613063565b6f800000000000000000000000000000008360801c6fffffffffffffffffffffffffffffffff1610612fe457600080fd5b6140fe811115612ff357600080fd5b60006e0100000000000000000000000000006dffffffffffffffffffffffffffff8560801c6fffffffffffffffffffffffffffffffff161617905061406f821015613047578161406f0381901c905061305d565b61406f82111561305c5761406f820381901b90505b5b80925050505b919050565b600080617fff60708560801c6fffffffffffffffffffffffffffffffff16901c166fffffffffffffffffffffffffffffffff1690506000617fff60708560801c6fffffffffffffffffffffffffffffffff16901c166fffffffffffffffffffffffffffffffff169050617fff8214156131ff57617fff81141561318d57836fffffffffffffffffffffffffffffffff1916856fffffffffffffffffffffffffffffffff19161415613134576f8000000000000000000000000000000060801b84168518925050506134f7565b6f8000000000000000000000000000000060801b8486186fffffffffffffffffffffffffffffffff1916141561317057838517925050506134f7565b6f7fff800000000000000000000000000060801b925050506134f7565b600060801b6f7fffffffffffffffffffffffffffffff60801b85166fffffffffffffffffffffffffffffffff191614156131de576f7fff800000000000000000000000000060801b925050506134f7565b6f8000000000000000000000000000000060801b84168518925050506134f7565b617fff81141561327b57600060801b6f7fffffffffffffffffffffffffffffff60801b86166fffffffffffffffffffffffffffffffff1916141561325a576f7fff800000000000000000000000000060801b925050506134f7565b6f8000000000000000000000000000000060801b85168418925050506134f7565b60006dffffffffffffffffffffffffffff8660801c166fffffffffffffffffffffffffffffffff16905060008314156132b757600192506132cc565b6e010000000000000000000000000000811790505b60006dffffffffffffffffffffffffffff8660801c166fffffffffffffffffffffffffffffffff1690506000831415613308576001925061331d565b6e010000000000000000000000000000811790505b8082029150600082141561338a57600060801b6f8000000000000000000000000000000060801b878918166fffffffffffffffffffffffffffffffff19161161336a57600060801b61337f565b6f8000000000000000000000000000000060801b5b9450505050506134f7565b828401935060007c02000000000000000000000000000000000000000000000000000000008310156133f1577c01000000000000000000000000000000000000000000000000000000008310156133e9576133e483613590565b6133ec565b60e05b6133f4565b60e15b9050614070818601101561340f5760009450600092506134b7565b6140e081860110156134535761407085101561343457846140700383901c925061344a565b61407085111561344957614070850383901b92505b5b600094506134b6565b61c0dd818601111561346d57617fff9450600092506134b5565b6070811115613484576070810383901c9250613498565b6070811015613497578060700383901b92505b5b6dffffffffffffffffffffffffffff831692506140df8186010394505b5b5b82607086901b6f8000000000000000000000000000000060801b898b181660801c6fffffffffffffffffffffffffffffffff16171760801b955050505050505b92915050565b8173ffffffffffffffffffffffffffffffffffffffff1663a9059cbb84836040518363ffffffff1660e01b8152600401613538929190613e44565b602060405180830381600087803b15801561355257600080fd5b505af1158015613566573d6000803e3d6000fd5b505050506040513d601f19601f8201168201806040525081019061358a919061399b565b50505050565b600080821161359e57600080fd5b600070010000000000000000000000000000000083106135c657608083901c92506080810190505b6801000000000000000083106135e457604083901c92506040810190505b64010000000083106135fe57602083901c92506020810190505b62010000831061361657601083901c92506010810190505b610100831061362d57600883901c92506008810190505b6010831061364357600483901c92506004810190505b6004831061365957600283901c92506002810190505b60028310613668576001810190505b80915050919050565b6040518060600160405280600063ffffffff168152602001606081526020016000151581525090565b8280546136a690614422565b90600052602060002090601f0160209004810192826136c8576000855561370f565b82601f106136e157805160ff191683800117855561370f565b8280016001018555821561370f579182015b8281111561370e5782518255916020019190600101906136f3565b5b50905061371c9190613720565b5090565b5b80821115613739576000816000905550600101613721565b5090565b600061375061374b8461404c565b614027565b90508281526020810184848401111561376c5761376b6145ed565b5b6137778482856143e0565b509392505050565b600061379261378d8461404c565b614027565b9050828152602081018484840111156137ae576137ad6145ed565b5b6137b98482856143ef565b509392505050565b6000813590506137d0816147da565b92915050565b6000815190506137e5816147f1565b92915050565b600082601f830112613800576137ff6145e8565b5b813561381084826020860161373d565b91505092915050565b600082601f83011261382e5761382d6145e8565b5b815161383e84826020860161377f565b91505092915050565b60008135905061385681614808565b92915050565b60008151905061386b81614808565b92915050565b6000813590506138808161481f565b92915050565b60008151905061389581614836565b92915050565b6000602082840312156138b1576138b06145f7565b5b60006138bf848285016137c1565b91505092915050565b600080604083850312156138df576138de6145f7565b5b60006138ed858286016137c1565b92505060206138fe858286016137c1565b9150509250929050565b600080600060608486031215613921576139206145f7565b5b600061392f868287016137c1565b9350506020613940868287016137c1565b925050604061395186828701613847565b9150509250925092565b60008060408385031215613972576139716145f7565b5b6000613980858286016137c1565b925050602061399185828601613847565b9150509250929050565b6000602082840312156139b1576139b06145f7565b5b60006139bf848285016137d6565b91505092915050565b6000602082840312156139de576139dd6145f7565b5b600082015167ffffffffffffffff8111156139fc576139fb6145f2565b5b613a0884828501613819565b91505092915050565b600060208284031215613a2757613a266145f7565b5b6000613a3584828501613847565b91505092915050565b600060208284031215613a5457613a536145f7565b5b6000613a628482850161385c565b91505092915050565b60008060408385031215613a8257613a816145f7565b5b6000613a9085828601613847565b9250506020613aa185828601613847565b9150509250929050565b60008060408385031215613ac257613ac16145f7565b5b6000613ad085828601613871565b925050602083013567ffffffffffffffff811115613af157613af06145f2565b5b613afd858286016137eb565b9150509250929050565b600060208284031215613b1d57613b1c6145f7565b5b6000613b2b84828501613886565b91505092915050565b613b3d8161437b565b82525050565b613b4c8161438d565b82525050565b613b5b8161438d565b82525050565b6000613b6c8261407d565b613b768185614088565b9350613b868185602086016143ef565b613b8f816145fc565b840191505092915050565b6000613ba58261407d565b613baf8185614099565b9350613bbf8185602086016143ef565b613bc8816145fc565b840191505092915050565b6000613be0601183614099565b9150613beb8261461a565b602082019050919050565b6000613c03600f83614099565b9150613c0e82614643565b602082019050919050565b6000613c26601b83614099565b9150613c318261466c565b602082019050919050565b6000613c49601083614099565b9150613c5482614695565b602082019050919050565b6000613c6c602283614099565b9150613c77826146be565b604082019050919050565b6000613c8f601983614099565b9150613c9a8261470d565b602082019050919050565b6000613cb2600d83614099565b9150613cbd82614736565b602082019050919050565b6000613cd5601283614099565b9150613ce08261475f565b602082019050919050565b6000613cf8600e83614099565b9150613d0382614788565b602082019050919050565b6000613d1b601283614099565b9150613d26826147b1565b602082019050919050565b6000606083016000830151613d496000860182613d90565b5060208301518482036020860152613d618282613b61565b9150506040830151613d766040860182613b43565b508091505092915050565b613d8a816143b9565b82525050565b613d99816143c3565b82525050565b6000602082019050613db46000830184613b34565b92915050565b600060a082019050613dcf6000830188613b34565b613ddc6020830187613b34565b613de96040830186613b34565b613df66060830185613d81565b613e036080830184613d81565b9695505050505050565b6000606082019050613e226000830186613b34565b613e2f6020830185613b34565b613e3c6040830184613d81565b949350505050565b6000604082019050613e596000830185613b34565b613e666020830184613d81565b9392505050565b6000602082019050613e826000830184613b52565b92915050565b60006020820190508181036000830152613ea28184613b9a565b905092915050565b60006020820190508181036000830152613ec381613bd3565b9050919050565b60006020820190508181036000830152613ee381613bf6565b9050919050565b60006020820190508181036000830152613f0381613c19565b9050919050565b60006020820190508181036000830152613f2381613c3c565b9050919050565b60006020820190508181036000830152613f4381613c5f565b9050919050565b60006020820190508181036000830152613f6381613c82565b9050919050565b60006020820190508181036000830152613f8381613ca5565b9050919050565b60006020820190508181036000830152613fa381613cc8565b9050919050565b60006020820190508181036000830152613fc381613ceb565b9050919050565b60006020820190508181036000830152613fe381613d0e565b9050919050565b600060208201905081810360008301526140048184613d31565b905092915050565b60006020820190506140216000830184613d81565b92915050565b6000614031614042565b905061403d8282614454565b919050565b6000604051905090565b600067ffffffffffffffff821115614067576140666145b9565b5b614070826145fc565b9050602081019050919050565b600081519050919050565b600082825260208201905092915050565b600082825260208201905092915050565b60006140b5826143b9565b91506140c0836143b9565b9250827fffffffffffffffffffffffffffffffffffffffffffffffffffffffffffffffff038211156140f5576140f46144fd565b5b828201905092915050565b600061410b826143b9565b9150614116836143b9565b9250826141265761412561452c565b5b828204905092915050565b6000808291508390505b600185111561417b57808604811115614157576141566144fd565b5b60018516156141665780820291505b80810290506141748561460d565b945061413b565b94509492505050565b600061418f826143b9565b915061419a836143b9565b92506141c77fffffffffffffffffffffffffffffffffffffffffffffffffffffffffffffffff848461421a565b905092915050565b60006141da826143b9565b91506141e5836143d3565b92506142127fffffffffffffffffffffffffffffffffffffffffffffffffffffffffffffffff848461421a565b905092915050565b60008261422a57600190506142e6565b8161423857600090506142e6565b816001811461424e576002811461425857614287565b60019150506142e6565b60ff84111561426a576142696144fd565b5b8360020a915084821115614281576142806144fd565b5b506142e6565b5060208310610133831016604e8410600b84101617156142bc5782820a9050838111156142b7576142b66144fd565b5b6142e6565b6142c98484846001614131565b925090508184048111156142e0576142df6144fd565b5b81810290505b9392505050565b60006142f8826143b9565b9150614303836143b9565b9250817fffffffffffffffffffffffffffffffffffffffffffffffffffffffffffffffff048311821515161561433c5761433b6144fd565b5b828202905092915050565b6000614352826143b9565b915061435d836143b9565b9250828210156143705761436f6144fd565b5b828203905092915050565b600061438682614399565b9050919050565b60008115159050919050565b600073ffffffffffffffffffffffffffffffffffffffff82169050919050565b6000819050919050565b600063ffffffff82169050919050565b600060ff82169050919050565b82818337600083830152505050565b60005b8381101561440d5780820151818401526020810190506143f2565b8381111561441c576000848401525b50505050565b6000600282049050600182168061443a57607f821691505b6020821081141561444e5761444d61455b565b5b50919050565b61445d826145fc565b810181811067ffffffffffffffff8211171561447c5761447b6145b9565b5b80604052505050565b6000614490826143b9565b91507fffffffffffffffffffffffffffffffffffffffffffffffffffffffffffffffff8214156144c3576144c26144fd565b5b600182019050919050565b7f4e487b7100000000000000000000000000000000000000000000000000000000600052600160045260246000fd5b7f4e487b7100000000000000000000000000000000000000000000000000000000600052601160045260246000fd5b7f4e487b7100000000000000000000000000000000000000000000000000000000600052601260045260246000fd5b7f4e487b7100000000000000000000000000000000000000000000000000000000600052602260045260246000fd5b7f4e487b7100000000000000000000000000000000000000000000000000000000600052603260045260246000fd5b7f4e487b7100000000000000000000000000000000000000000000000000000000600052604160045260246000fd5b600080fd5b600080fd5b600080fd5b600080fd5b6000601f19601f8301169050919050565b60008160011c9050919050565b7f496e76616c6964204f7065726174696f6e000000000000000000000000000000600082015250565b7f436f6e7461206578697374656e74650000000000000000000000000000000000600082015250565b7f56616c6f7220696e7375666963656e7465207061726120737761700000000000600082015250565b7f436f6e7461206578697374656e74655f00000000000000000000000000000000600082015250565b7f41636573736f20726573747269746f206170656e617320706172612041646d6960008201527f6e21000000000000000000000000000000000000000000000000000000000000602082015250565b7f456e64657265636f20646120436f696e20496e76616c69646f00000000000000600082015250565b7f4964204578697374656e74652100000000000000000000000000000000000000600082015250565b7f496e646578204f7574206f662052616e67650000000000000000000000000000600082015250565b7f436f6e7461206a6120646f616461000000000000000000000000000000000000600082015250565b7f456e64657265636f20496e76616c69646f210000000000000000000000000000600082015250565b6147e38161437b565b81146147ee57600080fd5b50565b6147fa8161438d565b811461480557600080fd5b50565b614811816143b9565b811461481c57600080fd5b50565b614828816143c3565b811461483357600080fd5b50565b61483f816143d3565b811461484a57600080fd5b5056fea264697066735822122058fd00c4608c2fc22abd1bdbe50b6d356e2ddebd19382d45cda73e17a7e625c064736f6c63430008060033",
  "immutableReferences": {},
  "source": "// CdBy mand0mb3\n// SPDX-License-Identifier: MIT\n\npragma solidity ^0.8.4;\n\n//import \"https://github.com/OpenZeppelin/openzeppelin-contracts/blob/master/contracts/token/ERC1155/ERC1155.sol\";\nimport 'openzeppelin-solidity/contracts/token/ERC20/ERC20.sol';\nimport './ABDKMathQuad.sol';\nimport './Coin1.sol';\n\ncontract Swap{\n\n    address private owner;\n\n    struct Account{\n        uint32 id;\n        string name;\n        bool received;\n        //uint256 balance;\n    }\n\n    event TokensSwap(\n        address account,\n        address id_from,\n        address id_to,\n        uint amount,\n        uint rate\n    );\n\n    event Approve(address _coinFrom, uint256 amount);\n\n    mapping(address=>Account) private proprietarios;\n    mapping(address=>uint256) private max;\n    mapping(address=>uint256) private iCapital;\n    mapping(address=>mapping(address=>uint256)) private rates;\n\n    address[] private coins;\n    address[] private students;\n    uint256 private price = 1*(uint256(10)**18);\n    uint256 constant fee = 34*(uint256(10)**16);\n\n    modifier onlyOwner(){\n        require(msg.sender==owner, \"Acesso restrito apenas para Admin!\");\n        _;\n    }\n    modifier onlyReal(){\n        require(msg.sender!=address(0), \"Endereco Invalido!\");\n        _;\n    }\n\n    constructor(){\n        owner = msg.sender;\n    }\n//OBS ADD EVENTS ON THE FUNCTIONS---------------->\n    function signUp(uint32 id_, string memory name_) public onlyReal returns(bool){\n        require(proprietarios[msg.sender].id==0,\"Conta existente\");\n        require(proprietarios[msg.sender].id!=id_,\"Conta existente_\");\n        for (uint256 index = 0; index < students.length; index++) {\n            //if (proprietarios[students[index]].id == id_) return false;\n            require(proprietarios[students[index]].id!=id_,\"Id Existente!\");\n        }\n        \n        for (uint256 index = 0; index < coins.length; index++) {\n            ERC20 temp = ERC20(coins[index]);\n            temp.transferFrom(owner,msg.sender,2000*(uint256(10)**18));\n        }\n        students.push(msg.sender);\n        proprietarios[msg.sender]=Account({id:id_, name:name_, received:true});\n        return true;\n    } \n\n\n    function donateCoin(address student, uint256 amount) public onlyOwner returns(bool){\n        require(proprietarios[student].received==false, \"Conta ja doada\");\n        for (uint256 index = 0; index < coins.length; index++) {\n            ERC20 temp = ERC20(coins[index]);\n            temp.transferFrom(owner,student,amount*(uint256(10)**18));\n        }\n        proprietarios[student].received=true;\n        return true;\n    } \n\n    function addCoin(address coin) public returns(bool){\n        require(keccak256(bytes(ERC20(coin).name()))!=keccak256(bytes(\"\")), \"Endereco da Coin Invalido\");\n        for (uint256 index = 0; index < coins.length; index++) {\n            if (coin == coins[index]) return false;\n            /*for (uint256 index_ = index+1; index_ < coins.length; index_++) {\n                initPar(coins[index],coins[index_]);\n            }*/\n        }\n        coins.push(coin);\n        max[coin]=div(ERC20(coin).balanceOf(address(this)),10**ERC20(coin).decimals());\n        iCapital[coin]=ERC20(coin).balanceOf(address(this));\n        return true;\n    }\n\n    function getPercent(address _coinFrom) public view returns(uint256){\n        ERC20 temp = ERC20(_coinFrom);\n        uint256 val1;\n        uint256 val2;\n        uint256 i_capital = iCapital[_coinFrom];\n        uint256 balance_of = temp.balanceOf(address(this));\n        if (iCapital[_coinFrom] > temp.balanceOf(address(this))){\n            val1 = iCapital[_coinFrom];\n            val2 = balance_of;\n        }\n        else {\n            val1 = balance_of;\n            val2 = iCapital[_coinFrom];\n        }\n        return (val1 - val2) * 100 / iCapital[_coinFrom] ;//+ div(rates[_coinFrom][_coinTo],fee);\n    }\n\n    function priceCoin(address _coinFrom, address _coinTo) public view returns(uint256){\n        if (rates[_coinFrom][_coinTo]<=0) return 1*(uint256(10)**18);\n        ERC20 temp = ERC20(_coinTo);\n        uint256 i_capital = iCapital[_coinTo];\n        uint256 balance_of = temp.balanceOf(address(this));\n        if (i_capital > balance_of){\n            return rates[_coinFrom][_coinTo] + rates[_coinFrom][_coinTo]*getPercent(_coinTo) ;\n        }\n        //return 1*(uint256(10)**17) + div(rates[_coinFrom][_coinTo],fee);\n        return rates[_coinFrom][_coinTo] - rates[_coinFrom][_coinTo]*getPercent(_coinTo) ;//+ div(rates[_coinFrom][_coinTo],fee);\n    }\n\n    function priceCoinAt(uint index_1, uint index_2) public view returns(uint256){\n        require(index_1<getCoinsLength(),\"Index Out of Range\");\n        require(index_2<getCoinsLength(),\"Index Out of Range\");\n        uint256 temp = rates[coins[index_1]][coins[index_2]];\n        if (temp<=0) return 1*(uint256(10)**18);\n        uint256 percent = getPercent(coins[index_2]);\n        ERC20 temp_ = ERC20(coins[index_2]);\n        if (iCapital[coins[index_2]] > temp_.balanceOf(address(this))){\n            return temp + (temp*percent) ;\n        }\n        //return 1*(uint256(10)**17) + div(rates[coins[index_1]][coins[index_2]],fee);\n        return temp - (temp * percent); //+ div(rates[coins[index_1]][coins[index_2]],fee);\n    }\n    function getRate(address _coinFrom, address _coinTo) public view returns(uint256){\n        return rates[_coinFrom][_coinTo];\n    }\n    function getMax(address _coinFrom) public view returns(uint256){\n        return max[_coinFrom];\n    }\n    function getStudentsLength() public view returns(uint256){\n        return students.length;\n    }\n    function getCoinsLength() public view returns(uint256){\n        return coins.length;\n    }\n    function getStudent(uint256 index) public view returns(Account memory){\n        require(index<getStudentsLength(),\"Index Out of Range\");\n        return proprietarios[students[index]];\n    }\n    function getCoinSymbol(uint256 index) public view returns(string memory){\n        require(index<getCoinsLength(),\"Index Out of Range\");\n        return ERC20(coins[index]).symbol();\n    }\n    function approve(address _coinFrom, uint256 amount) public virtual {\n        require(msg.sender!=address(this),\"Invalid Operation\");\n        ERC20 coinFrom_ = ERC20(_coinFrom);\n        coinFrom_.increaseAllowance(address(this), amount*(10**uint256(18)));\n        emit Approve(address(this), amount*(10**uint256(18)));\n    }\n    function approveAt(uint256 _coinFrom, uint256 amount) public virtual {\n        require(_coinFrom<getCoinsLength(),\"Index Out of Range\");\n        require(msg.sender!=address(this),\"Invalid Operation\");\n        ERC20 coinFrom_ = ERC20(coins[_coinFrom]);\n        coinFrom_.increaseAllowance(address(this), amount*(10**uint256(18)));\n        emit Approve(address(this), amount*(10**uint256(18)));\n    }\n    function balanceOf(address _coinFrom) public view onlyReal returns(uint256){\n        ERC20 coinFrom_ = ERC20(_coinFrom);\n        return coinFrom_.balanceOf(msg.sender);\n    }\n    function balanceOfAt(uint256 index_U, uint256 index_C) public view onlyReal returns(uint256){\n        require(index_C<getCoinsLength(),\"Index Out of Range\");\n        require(index_U<getStudentsLength(),\"Index Out of Range\");\n        ERC20 coinFrom_ = ERC20(coins[index_C]);\n        return coinFrom_.balanceOf(students[index_U]);\n    }\n\n    function swap(address _coinFrom, address _coinTo, uint256 amount) public returns(bool){\n        ERC20 coinFrom_ = ERC20(_coinFrom);\n        ERC20 coinTo_ = ERC20(_coinTo);\n\n        if (rates[_coinFrom][_coinTo]<=0) rates[_coinFrom][_coinTo]=1*(uint256(10)**18);\n        if (rates[_coinTo][_coinFrom]<=0) rates[_coinTo][_coinFrom]=1*(uint256(10)**18);\n        \n        uint256 temp_ = priceCoin(_coinFrom, _coinTo);\n        require(amount>=temp_, \"Valor insuficente para swap\");\n        uint256 value_to_pay = div(amount,div(temp_,1*(uint256(10)**18)));\n        coinFrom_.transferFrom(msg.sender, address(this), amount);//mul(amount,(uint256(10)**18)));\n        sendCoin(msg.sender, coinTo_, value_to_pay);\n        //sendCoin(msg.sender, coinTo_, value_to_pay - div(fee*100,value_to_pay));\n        //temp_ +=  div(/*mul(*/amount/*,(uint256(10)**18)) */,rates[_coinFrom][_coinTo]);\n\n        rates[_coinFrom][_coinTo] = priceCoin(_coinFrom, _coinTo);\n        rates[_coinTo][_coinFrom] = priceCoin(_coinTo, _coinFrom);\n        emit TokensSwap(\n            msg.sender, _coinFrom, _coinTo, amount, fee\n        );\n    }\n\n    function sendCoin(address target, ERC20 coinTo_, uint256 amount) internal virtual{\n        coinTo_.transfer(target, amount);\n    }\n\n    function initPar(address _coinFrom, address _coinTo) internal virtual{\n        if (rates[_coinFrom][_coinTo]<=0) rates[_coinFrom][_coinTo]=1*(uint256(10)**18);\n        if (rates[_coinTo][_coinFrom]<=0) rates[_coinTo][_coinFrom]=1*(uint256(10)**18);\n    }\n\n    function div(uint256 x, uint256 y) public pure returns(uint256){\n        return ABDKMathQuad.toUInt(\n            ABDKMathQuad.div(ABDKMathQuad.fromUInt(x),ABDKMathQuad.fromUInt(y))\n        );\n    }\n\n    function mul(uint256 x, uint256 y) public pure returns(uint256){\n        return ABDKMathQuad.toUInt(\n            ABDKMathQuad.mul(ABDKMathQuad.fromUInt(x),ABDKMathQuad.fromUInt(y))\n        );\n    }\n\n    function value(uint256 a) public pure returns (uint256) {\n        return mul(a ,(uint256(10)**10));\n    }\n\n}\n\n// Learn about automatic market to study formule to",
  "sourcePath": "/home/mandombe/Script/development/smart-contract/mkingdom/contracts/Swap.sol",
  "compiler": {
    "name": "solc",
    "version": "0.8.6+commit.11564f7e.Emscripten.clang"
  },
  "schemaVersion": "3.3.4",
  "updatedAt": "2021-07-23T17:30:45.468Z",
  "networkType": "ethereum",
  "devdoc": {
    "kind": "dev",
    "methods": {},
    "version": 1
  },
  "userdoc": {
    "kind": "user",
    "methods": {},
    "version": 1
  }
}