{
  "contractName": "Swap",
  "abi": [
    {
      "inputs": [],
      "stateMutability": "nonpayable",
      "type": "constructor"
    },
    {
      "anonymous": false,
      "inputs": [
        {
          "indexed": false,
          "internalType": "address",
          "name": "account",
          "type": "address"
        },
        {
          "indexed": false,
          "internalType": "uint256",
          "name": "id_from",
          "type": "uint256"
        },
        {
          "indexed": false,
          "internalType": "uint256",
          "name": "id_to",
          "type": "uint256"
        },
        {
          "indexed": false,
          "internalType": "uint256",
          "name": "amount",
          "type": "uint256"
        },
        {
          "indexed": false,
          "internalType": "uint256",
          "name": "rate",
          "type": "uint256"
        }
      ],
      "name": "TokensSwap",
      "type": "event"
    },
    {
      "inputs": [
        {
          "internalType": "uint32",
          "name": "id_",
          "type": "uint32"
        },
        {
          "internalType": "string",
          "name": "name_",
          "type": "string"
        }
      ],
      "name": "signUp",
      "outputs": [
        {
          "internalType": "bool",
          "name": "",
          "type": "bool"
        }
      ],
      "stateMutability": "nonpayable",
      "type": "function"
    },
    {
      "inputs": [
        {
          "internalType": "address",
          "name": "student",
          "type": "address"
        },
        {
          "internalType": "uint256",
          "name": "amount",
          "type": "uint256"
        }
      ],
      "name": "donateCoin",
      "outputs": [
        {
          "internalType": "bool",
          "name": "",
          "type": "bool"
        }
      ],
      "stateMutability": "nonpayable",
      "type": "function"
    },
    {
      "inputs": [
        {
          "internalType": "address",
          "name": "coin",
          "type": "address"
        }
      ],
      "name": "addCoin",
      "outputs": [
        {
          "internalType": "bool",
          "name": "",
          "type": "bool"
        }
      ],
      "stateMutability": "nonpayable",
      "type": "function"
    },
    {
      "inputs": [
        {
          "internalType": "address",
          "name": "_coinFrom",
          "type": "address"
        },
        {
          "internalType": "address",
          "name": "_coinTo",
          "type": "address"
        }
      ],
      "name": "priceCoin",
      "outputs": [
        {
          "internalType": "uint256",
          "name": "",
          "type": "uint256"
        }
      ],
      "stateMutability": "view",
      "type": "function",
      "constant": true
    },
    {
      "inputs": [
        {
          "internalType": "address",
          "name": "_coinFrom",
          "type": "address"
        },
        {
          "internalType": "address",
          "name": "_coinTo",
          "type": "address"
        }
      ],
      "name": "getRate",
      "outputs": [
        {
          "internalType": "uint256",
          "name": "",
          "type": "uint256"
        }
      ],
      "stateMutability": "view",
      "type": "function",
      "constant": true
    },
    {
      "inputs": [
        {
          "internalType": "address",
          "name": "_coinFrom",
          "type": "address"
        }
      ],
      "name": "getMax",
      "outputs": [
        {
          "internalType": "uint256",
          "name": "",
          "type": "uint256"
        }
      ],
      "stateMutability": "view",
      "type": "function",
      "constant": true
    },
    {
      "inputs": [
        {
          "internalType": "address",
          "name": "_coinFrom",
          "type": "address"
        },
        {
          "internalType": "address",
          "name": "_coinTo",
          "type": "address"
        },
        {
          "internalType": "uint256",
          "name": "amount",
          "type": "uint256"
        }
      ],
      "name": "swap",
      "outputs": [
        {
          "internalType": "bool",
          "name": "",
          "type": "bool"
        }
      ],
      "stateMutability": "nonpayable",
      "type": "function"
    }
  ],
  "bytecode": "0x6080604052600a60055534801561001557600080fd5b50336000806101000a81548173ffffffffffffffffffffffffffffffffffffffff021916908373ffffffffffffffffffffffffffffffffffffffff160217905550611d33806100656000396000f3fe608060405234801561001057600080fd5b506004361061007d5760003560e01c8063df791e501161005b578063df791e5014610112578063e659fd3214610142578063f69f188914610172578063fe9ec6b6146101a25761007d565b806316da863214610082578063379b87ea146100b257806369284f5b146100e2575b600080fd5b61009c6004803603810190610097919061123a565b6101d2565b6040516100a991906115c9565b60405180910390f35b6100cc60048036038101906100c79190611263565b610549565b6040516100d99190611684565b60405180910390f35b6100fc60048036038101906100f791906113bd565b6105d0565b60405161010991906115c9565b60405180910390f35b61012c6004803603810190610127919061129f565b6108d1565b60405161013991906115c9565b60405180910390f35b61015c600480360381019061015791906112ee565b610bad565b60405161016991906115c9565b60405180910390f35b61018c6004803603810190610187919061123a565b610e76565b6040516101999190611684565b60405180910390f35b6101bc60048036038101906101b79190611263565b610ebf565b6040516101c99190611684565b60405180910390f35b600060405180602001604052806000815250805190602001208273ffffffffffffffffffffffffffffffffffffffff166306fdde036040518163ffffffff1660e01b815260040160006040518083038186803b15801561023157600080fd5b505afa158015610245573d6000803e3d6000fd5b505050506040513d6000823e3d601f19601f8201168201806040525081019061026e9190611353565b8051906020012014156102b6576040517f08c379a00000000000000000000000000000000000000000000000000000000081526004016102ad90611624565b60405180910390fd5b60005b60048054905081101561037b5760048181548110610300577f4e487b7100000000000000000000000000000000000000000000000000000000600052603260045260246000fd5b9060005260206000200160009054906101000a900473ffffffffffffffffffffffffffffffffffffffff1673ffffffffffffffffffffffffffffffffffffffff168373ffffffffffffffffffffffffffffffffffffffff161415610368576000915050610544565b808061037390611a74565b9150506102b9565b506004829080600181540180825580915050600190039060005260206000200160009091909190916101000a81548173ffffffffffffffffffffffffffffffffffffffff021916908373ffffffffffffffffffffffffffffffffffffffff1602179055508173ffffffffffffffffffffffffffffffffffffffff1663313ce5676040518163ffffffff1660e01b815260040160206040518083038186803b15801561042557600080fd5b505afa158015610439573d6000803e3d6000fd5b505050506040513d601f19601f8201168201806040525081019061045d9190611411565b600a61046991906117e0565b8273ffffffffffffffffffffffffffffffffffffffff166370a08231306040518263ffffffff1660e01b81526004016104a29190611525565b60206040518083038186803b1580156104ba57600080fd5b505afa1580156104ce573d6000803e3d6000fd5b505050506040513d601f19601f820116820180604052508101906104f29190611394565b6104fc919061175c565b600260008473ffffffffffffffffffffffffffffffffffffffff1673ffffffffffffffffffffffffffffffffffffffff16815260200190815260200160002081905550600190505b919050565b6000600360008473ffffffffffffffffffffffffffffffffffffffff1673ffffffffffffffffffffffffffffffffffffffff16815260200190815260200160002060008373ffffffffffffffffffffffffffffffffffffffff1673ffffffffffffffffffffffffffffffffffffffff16815260200190815260200160002054905092915050565b60008073ffffffffffffffffffffffffffffffffffffffff163373ffffffffffffffffffffffffffffffffffffffff161415610641576040517f08c379a000000000000000000000000000000000000000000000000000000000815260040161063890611664565b60405180910390fd5b6000600160003373ffffffffffffffffffffffffffffffffffffffff1673ffffffffffffffffffffffffffffffffffffffff16815260200190815260200160002060000160009054906101000a900463ffffffff1663ffffffff16146106dc576040517f08c379a00000000000000000000000000000000000000000000000000000000081526004016106d3906115e4565b60405180910390fd5b60405180606001604052808463ffffffff16815260200183815260200160001515815250600160003373ffffffffffffffffffffffffffffffffffffffff1673ffffffffffffffffffffffffffffffffffffffff16815260200190815260200160002060008201518160000160006101000a81548163ffffffff021916908363ffffffff1602179055506020820151816001019080519060200190610782929190611049565b5060408201518160020160006101000a81548160ff02191690831515021790555090505060005b6004805490508110156108c6576000600482815481106107f2577f4e487b7100000000000000000000000000000000000000000000000000000000600052603260045260246000fd5b9060005260206000200160009054906101000a900473ffffffffffffffffffffffffffffffffffffffff1690508073ffffffffffffffffffffffffffffffffffffffff1663095ea7b3306402540be4006040518363ffffffff1660e01b815260040161085f929190611577565b602060405180830381600087803b15801561087957600080fd5b505af115801561088d573d6000803e3d6000fd5b505050506040513d601f19601f820116820180604052508101906108b1919061132a565b505080806108be90611a74565b9150506107a9565b506001905092915050565b60008084905060008490506000600260008773ffffffffffffffffffffffffffffffffffffffff1673ffffffffffffffffffffffffffffffffffffffff168152602001908152602001600020546064600360008a73ffffffffffffffffffffffffffffffffffffffff1673ffffffffffffffffffffffffffffffffffffffff16815260200190815260200160002060008973ffffffffffffffffffffffffffffffffffffffff1673ffffffffffffffffffffffffffffffffffffffff168152602001908152602001600020546109a791906118fe565b6109b1919061175c565b6005546109be91906118fe565b6005546109cb9190611706565b90508273ffffffffffffffffffffffffffffffffffffffff1663095ea7b330876040518363ffffffff1660e01b8152600401610a089291906115a0565b602060405180830381600087803b158015610a2257600080fd5b505af1158015610a36573d6000803e3d6000fd5b505050506040513d601f19601f82011682018060405250810190610a5a919061132a565b508273ffffffffffffffffffffffffffffffffffffffff166323b872dd3330886040518463ffffffff1660e01b8152600401610a9893929190611540565b602060405180830381600087803b158015610ab257600080fd5b505af1158015610ac6573d6000803e3d6000fd5b505050506040513d601f19601f82011682018060405250810190610aea919061132a565b50610b0133838388610afc919061175c565b610fb6565b8085610b0d919061175c565b600360008973ffffffffffffffffffffffffffffffffffffffff1673ffffffffffffffffffffffffffffffffffffffff16815260200190815260200160002060008873ffffffffffffffffffffffffffffffffffffffff1673ffffffffffffffffffffffffffffffffffffffff1681526020019081526020016000206000828254610b989190611706565b92505081905550600193505050509392505050565b60008060009054906101000a900473ffffffffffffffffffffffffffffffffffffffff1673ffffffffffffffffffffffffffffffffffffffff163373ffffffffffffffffffffffffffffffffffffffff1614610c3e576040517f08c379a0000000000000000000000000000000000000000000000000000000008152600401610c3590611604565b60405180910390fd5b60001515600160008573ffffffffffffffffffffffffffffffffffffffff1673ffffffffffffffffffffffffffffffffffffffff16815260200190815260200160002060020160009054906101000a900460ff16151514610cd4576040517f08c379a0000000000000000000000000000000000000000000000000000000008152600401610ccb90611644565b60405180910390fd5b60005b600480549050811015610e1157600060048281548110610d20577f4e487b7100000000000000000000000000000000000000000000000000000000600052603260045260246000fd5b9060005260206000200160009054906101000a900473ffffffffffffffffffffffffffffffffffffffff1690508073ffffffffffffffffffffffffffffffffffffffff166323b872dd60008054906101000a900473ffffffffffffffffffffffffffffffffffffffff1687876040518463ffffffff1660e01b8152600401610daa93929190611540565b602060405180830381600087803b158015610dc457600080fd5b505af1158015610dd8573d6000803e3d6000fd5b505050506040513d601f19601f82011682018060405250810190610dfc919061132a565b50508080610e0990611a74565b915050610cd7565b5060018060008573ffffffffffffffffffffffffffffffffffffffff1673ffffffffffffffffffffffffffffffffffffffff16815260200190815260200160002060020160006101000a81548160ff0219169083151502179055506001905092915050565b6000600260008373ffffffffffffffffffffffffffffffffffffffff1673ffffffffffffffffffffffffffffffffffffffff168152602001908152602001600020549050919050565b6000600260008373ffffffffffffffffffffffffffffffffffffffff1673ffffffffffffffffffffffffffffffffffffffff168152602001908152602001600020546064600360008673ffffffffffffffffffffffffffffffffffffffff1673ffffffffffffffffffffffffffffffffffffffff16815260200190815260200160002060008573ffffffffffffffffffffffffffffffffffffffff1673ffffffffffffffffffffffffffffffffffffffff16815260200190815260200160002054610f8a91906118fe565b610f94919061175c565b600554610fa191906118fe565b600554610fae9190611706565b905092915050565b8173ffffffffffffffffffffffffffffffffffffffff1663a9059cbb84836040518363ffffffff1660e01b8152600401610ff19291906115a0565b602060405180830381600087803b15801561100b57600080fd5b505af115801561101f573d6000803e3d6000fd5b505050506040513d601f19601f82011682018060405250810190611043919061132a565b50505050565b82805461105590611a11565b90600052602060002090601f01602090048101928261107757600085556110be565b82601f1061109057805160ff19168380011785556110be565b828001600101855582156110be579182015b828111156110bd5782518255916020019190600101906110a2565b5b5090506110cb91906110cf565b5090565b5b808211156110e85760008160009055506001016110d0565b5090565b60006110ff6110fa846116c4565b61169f565b90508281526020810184848401111561111757600080fd5b6111228482856119cf565b509392505050565b600061113d611138846116c4565b61169f565b90508281526020810184848401111561115557600080fd5b6111608482856119de565b509392505050565b60008135905061117781611c8a565b92915050565b60008151905061118c81611ca1565b92915050565b600082601f8301126111a357600080fd5b81356111b38482602086016110ec565b91505092915050565b600082601f8301126111cd57600080fd5b81516111dd84826020860161112a565b91505092915050565b6000813590506111f581611cb8565b92915050565b60008151905061120a81611cb8565b92915050565b60008135905061121f81611ccf565b92915050565b60008151905061123481611ce6565b92915050565b60006020828403121561124c57600080fd5b600061125a84828501611168565b91505092915050565b6000806040838503121561127657600080fd5b600061128485828601611168565b925050602061129585828601611168565b9150509250929050565b6000806000606084860312156112b457600080fd5b60006112c286828701611168565b93505060206112d386828701611168565b92505060406112e4868287016111e6565b9150509250925092565b6000806040838503121561130157600080fd5b600061130f85828601611168565b9250506020611320858286016111e6565b9150509250929050565b60006020828403121561133c57600080fd5b600061134a8482850161117d565b91505092915050565b60006020828403121561136557600080fd5b600082015167ffffffffffffffff81111561137f57600080fd5b61138b848285016111bc565b91505092915050565b6000602082840312156113a657600080fd5b60006113b4848285016111fb565b91505092915050565b600080604083850312156113d057600080fd5b60006113de85828601611210565b925050602083013567ffffffffffffffff8111156113fb57600080fd5b61140785828601611192565b9150509250929050565b60006020828403121561142357600080fd5b600061143184828501611225565b91505092915050565b61144381611958565b82525050565b6114528161196a565b82525050565b611461816119bd565b82525050565b6000611474600f836116f5565b915061147f82611b97565b602082019050919050565b60006114976022836116f5565b91506114a282611bc0565b604082019050919050565b60006114ba6019836116f5565b91506114c582611c0f565b602082019050919050565b60006114dd600e836116f5565b91506114e882611c38565b602082019050919050565b60006115006012836116f5565b915061150b82611c61565b602082019050919050565b61151f81611996565b82525050565b600060208201905061153a600083018461143a565b92915050565b6000606082019050611555600083018661143a565b611562602083018561143a565b61156f6040830184611516565b949350505050565b600060408201905061158c600083018561143a565b6115996020830184611458565b9392505050565b60006040820190506115b5600083018561143a565b6115c26020830184611516565b9392505050565b60006020820190506115de6000830184611449565b92915050565b600060208201905081810360008301526115fd81611467565b9050919050565b6000602082019050818103600083015261161d8161148a565b9050919050565b6000602082019050818103600083015261163d816114ad565b9050919050565b6000602082019050818103600083015261165d816114d0565b9050919050565b6000602082019050818103600083015261167d816114f3565b9050919050565b60006020820190506116996000830184611516565b92915050565b60006116a96116ba565b90506116b58282611a43565b919050565b6000604051905090565b600067ffffffffffffffff8211156116df576116de611b4a565b5b6116e882611b79565b9050602081019050919050565b600082825260208201905092915050565b600061171182611996565b915061171c83611996565b9250827fffffffffffffffffffffffffffffffffffffffffffffffffffffffffffffffff0382111561175157611750611abd565b5b828201905092915050565b600061176782611996565b915061177283611996565b92508261178257611781611aec565b5b828204905092915050565b6000808291508390505b60018511156117d7578086048111156117b3576117b2611abd565b5b60018516156117c25780820291505b80810290506117d085611b8a565b9450611797565b94509492505050565b60006117eb82611996565b91506117f6836119b0565b92506118237fffffffffffffffffffffffffffffffffffffffffffffffffffffffffffffffff848461182b565b905092915050565b60008261183b57600190506118f7565b8161184957600090506118f7565b816001811461185f576002811461186957611898565b60019150506118f7565b60ff84111561187b5761187a611abd565b5b8360020a91508482111561189257611891611abd565b5b506118f7565b5060208310610133831016604e8410600b84101617156118cd5782820a9050838111156118c8576118c7611abd565b5b6118f7565b6118da848484600161178d565b925090508184048111156118f1576118f0611abd565b5b81810290505b9392505050565b600061190982611996565b915061191483611996565b9250817fffffffffffffffffffffffffffffffffffffffffffffffffffffffffffffffff048311821515161561194d5761194c611abd565b5b828202905092915050565b600061196382611976565b9050919050565b60008115159050919050565b600073ffffffffffffffffffffffffffffffffffffffff82169050919050565b6000819050919050565b600063ffffffff82169050919050565b600060ff82169050919050565b60006119c882611996565b9050919050565b82818337600083830152505050565b60005b838110156119fc5780820151818401526020810190506119e1565b83811115611a0b576000848401525b50505050565b60006002820490506001821680611a2957607f821691505b60208210811415611a3d57611a3c611b1b565b5b50919050565b611a4c82611b79565b810181811067ffffffffffffffff82111715611a6b57611a6a611b4a565b5b80604052505050565b6000611a7f82611996565b91507fffffffffffffffffffffffffffffffffffffffffffffffffffffffffffffffff821415611ab257611ab1611abd565b5b600182019050919050565b7f4e487b7100000000000000000000000000000000000000000000000000000000600052601160045260246000fd5b7f4e487b7100000000000000000000000000000000000000000000000000000000600052601260045260246000fd5b7f4e487b7100000000000000000000000000000000000000000000000000000000600052602260045260246000fd5b7f4e487b7100000000000000000000000000000000000000000000000000000000600052604160045260246000fd5b6000601f19601f8301169050919050565b60008160011c9050919050565b7f436f6e7461206578697374656e74650000000000000000000000000000000000600082015250565b7f41636573736f20726573747269746f206170656e617320706172612041646d6960008201527f6e21000000000000000000000000000000000000000000000000000000000000602082015250565b7f456e64657265636f20646120436f696e20496e76616c69646f00000000000000600082015250565b7f436f6e7461206a6120646f616461000000000000000000000000000000000000600082015250565b7f456e64657265636f20496e76616c69646f210000000000000000000000000000600082015250565b611c9381611958565b8114611c9e57600080fd5b50565b611caa8161196a565b8114611cb557600080fd5b50565b611cc181611996565b8114611ccc57600080fd5b50565b611cd8816119a0565b8114611ce357600080fd5b50565b611cef816119b0565b8114611cfa57600080fd5b5056fea2646970667358221220d9cf17acb921148206a649b7719d2591ad57eafc4c7a8d5f542420cf2b24f83164736f6c63430008040033",
  "immutableReferences": {},
  "source": "// CdBy mand0mb3\n// SPDX-License-Identifier: MIT\n\npragma solidity ^0.8.4;\n\n//import \"https://github.com/OpenZeppelin/openzeppelin-contracts/blob/master/contracts/token/ERC1155/ERC1155.sol\";\nimport 'openzeppelin-solidity/contracts/token/ERC20/ERC20.sol';\n\n\ncontract Swap{\n\n    address private owner;\n\n    struct Account{\n        uint32 id;\n        string name;\n        bool received;\n        //uint256 balance;\n    }\n\n    event TokensSwap(\n        address account,\n        uint id_from,\n        uint id_to,\n        uint amount,\n        uint rate\n    );\n\n    mapping(address=>Account) private proprietarios;\n    mapping(address=>uint256) private max;\n    mapping(address=>mapping(address=>uint256)) private rates;\n\n    address[] private coins;\n    uint256 private price = 10;\n\n    modifier onlyOwner(){\n        require(msg.sender==owner, \"Acesso restrito apenas para Admin!\");\n        _;\n    }\n    modifier onlyReal(){\n        require(msg.sender!=address(0), \"Endereco Invalido!\");\n        _;\n    }\n\n    constructor(){\n        owner = msg.sender;\n    }\n\n    function signUp(uint32 id_, string memory name_) public onlyReal returns(bool){\n        require(proprietarios[msg.sender].id==0,\"Conta existente\");\n        proprietarios[msg.sender]=Account({id:id_, name:name_, received:false});\n        for (uint256 index = 0; index < coins.length; index++) {\n            ERC20 temp = ERC20(coins[index]);\n            temp.approve(address(this),10**10);\n        }\n        return true;\n    } \n\n\n    function donateCoin(address student, uint256 amount) public onlyOwner returns(bool){\n        require(proprietarios[student].received==false, \"Conta ja doada\");\n        for (uint256 index = 0; index < coins.length; index++) {\n            ERC20 temp = ERC20(coins[index]);\n            temp.transferFrom(owner,student,amount);\n        }\n        proprietarios[student].received=true;\n        return true;\n    } \n\n    function addCoin(address coin) public returns(bool){\n        require(keccak256(bytes(ERC20(coin).name()))!=keccak256(bytes(\"\")), \"Endereco da Coin Invalido\");\n        for (uint256 index = 0; index < coins.length; index++) {\n            if (coin == coins[index]) return false;\n        }\n        coins.push(coin);\n        max[coin]=ERC20(coin).balanceOf(address(this))/10**ERC20(coin).decimals();\n        return true;\n    }\n\n    function priceCoin(address _coinFrom, address _coinTo) public view returns(uint256){\n        return price +  price*(rates[_coinFrom][_coinTo]*100/max[_coinTo]);\n    }\n    function getRate(address _coinFrom, address _coinTo) public view returns(uint256){\n        return rates[_coinFrom][_coinTo];\n    }\n    function getMax(address _coinFrom) public view returns(uint256){\n        return max[_coinFrom];\n    }\n\n    function swap(address _coinFrom, address _coinTo, uint256 amount) public returns(bool){\n        ERC20 coinFrom_ = ERC20(_coinFrom);\n        ERC20 coinTo_ = ERC20(_coinTo);\n\n        uint256 temp_price = price +  price*(rates[_coinFrom][_coinTo]*100/max[_coinTo]);\n        coinFrom_.approve(address(this), amount);\n        coinFrom_.transferFrom(msg.sender, address(this), amount);\n        sendCoin(msg.sender, coinTo_, amount/temp_price);\n        rates[_coinFrom][_coinTo] += amount/temp_price;\n\n        \n        return true;\n    }\n\n    function sendCoin(address target, ERC20 coinTo_, uint256 amount) internal virtual{\n        coinTo_.transfer(target, amount);\n    }\n\n}\n\n// Learn about automatic market to study formule to",
  "sourcePath": "C:/Users/gaspa/Documents/Experincias/Comercio Elotronico/uNt/contracts/Swap.sol",
  "compiler": {
    "name": "solc",
    "version": "0.8.4+commit.c7e474f2.Emscripten.clang"
  },
  "schemaVersion": "3.4.1",
  "updatedAt": "2021-07-08T00:32:34.529Z",
  "networkType": "ethereum",
  "devdoc": {
    "kind": "dev",
    "methods": {},
    "version": 1
  },
  "userdoc": {
    "kind": "user",
    "methods": {},
    "version": 1
  }
}